{
  "contractName": "Shop",
  "abi": [
    {
      "constant": true,
      "inputs": [],
      "name": "storeNumber",
      "outputs": [
        {
          "name": "",
          "type": "uint256"
        }
      ],
      "payable": false,
      "stateMutability": "view",
      "type": "function",
      "signature": "0x1cdb717f"
    },
    {
      "constant": true,
      "inputs": [],
      "name": "productNumber",
      "outputs": [
        {
          "name": "",
          "type": "uint256"
        }
      ],
      "payable": false,
      "stateMutability": "view",
      "type": "function",
      "signature": "0x5034735d"
    },
    {
      "constant": true,
      "inputs": [
        {
          "name": "",
          "type": "uint256"
        },
        {
          "name": "",
          "type": "uint256"
        }
      ],
      "name": "products",
      "outputs": [
        {
          "name": "productNumber",
          "type": "uint256"
        },
        {
          "name": "name",
          "type": "string"
        },
        {
          "name": "description",
          "type": "string"
        },
        {
          "name": "price",
          "type": "uint256"
        },
        {
          "name": "inventory",
          "type": "uint256"
        },
        {
          "name": "state",
          "type": "uint8"
        }
      ],
      "payable": false,
      "stateMutability": "view",
      "type": "function",
      "signature": "0xa590fbdb"
    },
    {
      "constant": true,
      "inputs": [
        {
          "name": "",
          "type": "address"
        }
      ],
      "name": "users",
      "outputs": [
        {
          "name": "name",
          "type": "string"
        },
        {
          "name": "userType",
          "type": "uint8"
        }
      ],
      "payable": false,
      "stateMutability": "view",
      "type": "function",
      "signature": "0xa87430ba"
    },
    {
      "constant": true,
      "inputs": [
        {
          "name": "",
          "type": "uint256"
        }
      ],
      "name": "stores",
      "outputs": [
        {
          "name": "ownerAddress",
          "type": "address"
        },
        {
          "name": "storeNumber",
          "type": "uint256"
        },
        {
          "name": "name",
          "type": "string"
        },
        {
          "name": "city",
          "type": "string"
        },
        {
          "name": "earnings",
          "type": "uint256"
        },
        {
          "name": "state",
          "type": "uint8"
        }
      ],
      "payable": false,
      "stateMutability": "view",
      "type": "function",
      "signature": "0xe8a59cd8"
    },
    {
      "inputs": [],
      "payable": false,
      "stateMutability": "nonpayable",
      "type": "constructor",
      "signature": "constructor"
    },
    {
      "constant": false,
      "inputs": [
        {
          "name": "userAddress",
          "type": "address"
        },
        {
          "name": "name",
          "type": "string"
        }
      ],
      "name": "addAdmin",
      "outputs": [],
      "payable": false,
      "stateMutability": "nonpayable",
      "type": "function",
      "signature": "0xd16856ca"
    },
    {
      "constant": false,
      "inputs": [
        {
          "name": "userAddress",
          "type": "address"
        },
        {
          "name": "name",
          "type": "string"
        }
      ],
      "name": "addOwner",
      "outputs": [],
      "payable": false,
      "stateMutability": "nonpayable",
      "type": "function",
      "signature": "0x3542758f"
    },
    {
      "constant": false,
      "inputs": [
        {
          "name": "name",
          "type": "string"
        },
        {
          "name": "city",
          "type": "string"
        }
      ],
      "name": "addStore",
      "outputs": [],
      "payable": false,
      "stateMutability": "nonpayable",
      "type": "function",
      "signature": "0xed48719c"
    },
    {
      "constant": false,
      "inputs": [
        {
          "name": "storeNumberGiven",
          "type": "uint256"
        },
        {
          "name": "name",
          "type": "string"
        },
        {
          "name": "description",
          "type": "string"
        },
        {
          "name": "price",
          "type": "uint256"
        },
        {
          "name": "inventory",
          "type": "uint256"
        }
      ],
      "name": "addProduct",
      "outputs": [],
      "payable": false,
      "stateMutability": "nonpayable",
      "type": "function",
      "signature": "0x01db5b48"
    },
    {
      "constant": false,
      "inputs": [
        {
          "name": "storeNumberGiven",
          "type": "uint256"
        },
        {
          "name": "productNumberGiven",
          "type": "uint256"
        }
      ],
      "name": "deleteProduct",
      "outputs": [],
      "payable": false,
      "stateMutability": "nonpayable",
      "type": "function",
      "signature": "0xa1c48cc4"
    },
    {
      "constant": false,
      "inputs": [
        {
          "name": "storeNumberGiven",
          "type": "uint256"
        },
        {
          "name": "productNumberGiven",
          "type": "uint256"
        }
      ],
      "name": "buyProduct",
      "outputs": [],
      "payable": true,
      "stateMutability": "payable",
      "type": "function",
      "signature": "0x53b62866"
    },
    {
      "constant": false,
      "inputs": [
        {
          "name": "storeNumberGiven",
          "type": "uint256"
        }
      ],
      "name": "withdrawEarnings",
      "outputs": [],
      "payable": false,
      "stateMutability": "nonpayable",
      "type": "function",
      "signature": "0x6e70096e"
    },
    {
      "constant": true,
      "inputs": [],
      "name": "getStoresLength",
      "outputs": [
        {
          "name": "",
          "type": "uint256"
        }
      ],
      "payable": false,
      "stateMutability": "view",
      "type": "function",
      "signature": "0x86a9bd11"
    },
    {
      "constant": true,
      "inputs": [
        {
          "name": "storeNumberGiven",
          "type": "uint256"
        }
      ],
      "name": "getProductsLength",
      "outputs": [
        {
          "name": "",
          "type": "uint256"
        }
      ],
      "payable": false,
      "stateMutability": "view",
      "type": "function",
      "signature": "0x5412fc46"
    }
  ],
  "bytecode": "0x60806040523480156200001157600080fd5b50600080819055506000600281905550600060048190555060408051908101604052806040805190810160405280600b81526020017f53757065722041646d696e0000000000000000000000000000000000000000008152508152602001600160028111156200007d57fe5b815250600160003373ffffffffffffffffffffffffffffffffffffffff1673ffffffffffffffffffffffffffffffffffffffff1681526020019081526020016000206000820151816000019080519060200190620000dd92919062000111565b5060208201518160010160006101000a81548160ff021916908360028111156200010357fe5b0217905550905050620001c0565b828054600181600116156101000203166002900490600052602060002090601f016020900481019282601f106200015457805160ff191683800117855562000185565b8280016001018555821562000185579182015b828111156200018457825182559160200191906001019062000167565b5b50905062000194919062000198565b5090565b620001bd91905b80821115620001b95760008160009055506001016200019f565b5090565b90565b611fba80620001d06000396000f3fe6080604052600436106100d0576000357c0100000000000000000000000000000000000000000000000000000000900463ffffffff16806301db5b48146100d55780631cdb717f146102525780633542758f1461027d5780635034735d1461036557806353b62866146103905780635412fc46146103c85780636e70096e1461041757806386a9bd1114610452578063a1c48cc41461047d578063a590fbdb146104c2578063a87430ba14610616578063d16856ca146106f5578063e8a59cd8146107dd578063ed48719c14610953575b600080fd5b3480156100e157600080fd5b50610250600480360360a08110156100f857600080fd5b81019080803590602001909291908035906020019064010000000081111561011f57600080fd5b82018360208201111561013157600080fd5b8035906020019184600183028401116401000000008311171561015357600080fd5b91908080601f016020809104026020016040519081016040528093929190818152602001838380828437600081840152601f19601f820116905080830192505050505050509192919290803590602001906401000000008111156101b657600080fd5b8201836020820111156101c857600080fd5b803590602001918460018302840111640100000000831117156101ea57600080fd5b91908080601f016020809104026020016040519081016040528093929190818152602001838380828437600081840152601f19601f8201169050808301925050505050505091929192908035906020019092919080359060200190929190505050610ab2565b005b34801561025e57600080fd5b50610267610ca1565b6040518082815260200191505060405180910390f35b34801561028957600080fd5b50610363600480360360408110156102a057600080fd5b81019080803573ffffffffffffffffffffffffffffffffffffffff169060200190929190803590602001906401000000008111156102dd57600080fd5b8201836020820111156102ef57600080fd5b8035906020019184600183028401116401000000008311171561031157600080fd5b91908080601f016020809104026020016040519081016040528093929190818152602001838380828437600081840152601f19601f820116905080830192505050505050509192919290505050610ca7565b005b34801561037157600080fd5b5061037a610e32565b6040518082815260200191505060405180910390f35b6103c6600480360360408110156103a657600080fd5b810190808035906020019092919080359060200190929190505050610e38565b005b3480156103d457600080fd5b50610401600480360360208110156103eb57600080fd5b81019080803590602001909291905050506112b9565b6040518082815260200191505060405180910390f35b34801561042357600080fd5b506104506004803603602081101561043a57600080fd5b81019080803590602001909291905050506112d9565b005b34801561045e57600080fd5b50610467611473565b6040518082815260200191505060405180910390f35b34801561048957600080fd5b506104c0600480360360408110156104a057600080fd5b810190808035906020019092919080359060200190929190505050611480565b005b3480156104ce57600080fd5b50610505600480360360408110156104e557600080fd5b81019080803590602001909291908035906020019092919050505061169e565b60405180878152602001806020018060200186815260200185815260200184600181111561052f57fe5b60ff168152602001838103835288818151815260200191508051906020019080838360005b8381101561056f578082015181840152602081019050610554565b50505050905090810190601f16801561059c5780820380516001836020036101000a031916815260200191505b50838103825287818151815260200191508051906020019080838360005b838110156105d55780820151818401526020810190506105ba565b50505050905090810190601f1680156106025780820380516001836020036101000a031916815260200191505b509850505050505050505060405180910390f35b34801561062257600080fd5b506106656004803603602081101561063957600080fd5b81019080803573ffffffffffffffffffffffffffffffffffffffff169060200190929190505050611833565b604051808060200183600281111561067957fe5b60ff168152602001828103825284818151815260200191508051906020019080838360005b838110156106b957808201518184015260208101905061069e565b50505050905090810190601f1680156106e65780820380516001836020036101000a031916815260200191505b50935050505060405180910390f35b34801561070157600080fd5b506107db6004803603604081101561071857600080fd5b81019080803573ffffffffffffffffffffffffffffffffffffffff1690602001909291908035906020019064010000000081111561075557600080fd5b82018360208201111561076757600080fd5b8035906020019184600183028401116401000000008311171561078957600080fd5b91908080601f016020809104026020016040519081016040528093929190818152602001838380828437600081840152601f19601f8201169050808301925050505050505091929192905050506118fc565b005b3480156107e957600080fd5b506108166004803603602081101561080057600080fd5b8101908080359060200190929190505050611a88565b604051808773ffffffffffffffffffffffffffffffffffffffff1673ffffffffffffffffffffffffffffffffffffffff168152602001868152602001806020018060200185815260200184600181111561086c57fe5b60ff168152602001838103835287818151815260200191508051906020019080838360005b838110156108ac578082015181840152602081019050610891565b50505050905090810190601f1680156108d95780820380516001836020036101000a031916815260200191505b50838103825286818151815260200191508051906020019080838360005b838110156109125780820151818401526020810190506108f7565b50505050905090810190601f16801561093f5780820380516001836020036101000a031916815260200191505b509850505050505050505060405180910390f35b34801561095f57600080fd5b50610ab06004803603604081101561097657600080fd5b810190808035906020019064010000000081111561099357600080fd5b8201836020820111156109a557600080fd5b803590602001918460018302840111640100000000831117156109c757600080fd5b91908080601f016020809104026020016040519081016040528093929190818152602001838380828437600081840152601f19601f82011690508083019250505050505050919291929080359060200190640100000000811115610a2a57600080fd5b820183602082011115610a3c57600080fd5b80359060200191846001830284011164010000000083111715610a5e57600080fd5b91908080601f016020809104026020016040519081016040528093929190818152602001838380828437600081840152601f19601f820116905080830192505050505050509192919290505050611c30565b005b33600280811115610abf57fe5b600160008373ffffffffffffffffffffffffffffffffffffffff1673ffffffffffffffffffffffffffffffffffffffff16815260200190815260200160002060010160009054906101000a900460ff166002811115610b1a57fe5b141515610b8f576040517f08c379a00000000000000000000000000000000000000000000000000000000081526004018080602001828103825260158152602001807f55736572206d75737420626520616e206f776e6572000000000000000000000081525060200191505060405180910390fd5b6001600454016004819055506005600087815260200190815260200160002060c060405190810160405280600454815260200187815260200186815260200185815260200184815260200160006001811115610be757fe5b81525090806001815401808255809150509060018203906000526020600020906006020160009091929091909150600082015181600001556020820151816001019080519060200190610c3b929190611e5f565b506040820151816002019080519060200190610c58929190611e5f565b50606082015181600301556080820151816004015560a08201518160050160006101000a81548160ff02191690836001811115610c9157fe5b0217905550505050505050505050565b60025481565b3360016002811115610cb557fe5b600160008373ffffffffffffffffffffffffffffffffffffffff1673ffffffffffffffffffffffffffffffffffffffff16815260200190815260200160002060010160009054906101000a900460ff166002811115610d1057fe5b141515610d85576040517f08c379a00000000000000000000000000000000000000000000000000000000081526004018080602001828103825260158152602001807f55736572206d75737420626520616e2061646d696e000000000000000000000081525060200191505060405180910390fd5b6040805190810160405280838152602001600280811115610da257fe5b815250600160008573ffffffffffffffffffffffffffffffffffffffff1673ffffffffffffffffffffffffffffffffffffffff1681526020019081526020016000206000820151816000019080519060200190610e00929190611e5f565b5060208201518160010160006101000a81548160ff02191690836002811115610e2557fe5b0217905550905050505050565b60045481565b610e40611edf565b60008090505b600560008581526020019081526020016000208054905081101561118357826005600086815260200190815260200160002082815481101515610e8557fe5b9060005260206000209060060201600001541415611176576005600085815260200190815260200160002081815481101515610ebd57fe5b906000526020600020906006020160c0604051908101604052908160008201548152602001600182018054600181600116156101000203166002900480601f016020809104026020016040519081016040528092919081815260200182805460018160011615610100020316600290048015610f7a5780601f10610f4f57610100808354040283529160200191610f7a565b820191906000526020600020905b815481529060010190602001808311610f5d57829003601f168201915b50505050508152602001600282018054600181600116156101000203166002900480601f01602080910402602001604051908101604052809291908181526020018280546001816001161561010002031660029004801561101c5780601f10610ff15761010080835404028352916020019161101c565b820191906000526020600020905b815481529060010190602001808311610fff57829003601f168201915b5050505050815260200160038201548152602001600482015481526020016005820160009054906101000a900460ff16600181111561105757fe5b600181111561106257fe5b815250509150600182608001511015151561110b576040517f08c379a00000000000000000000000000000000000000000000000000000000081526004018080602001828103825260298152602001807f53746f7265206d757374206861766520696e76656e746f7279206f662074686981526020017f732070726f64756374000000000000000000000000000000000000000000000081525060400191505060405180910390fd5b6001600560008681526020019081526020016000208281548110151561112d57fe5b90600052602060002090600602016004015403600560008681526020019081526020016000208281548110151561116057fe5b9060005260206000209060060201600401819055505b8080600101915050610e46565b50348160600151141515611225576040517f08c379a000000000000000000000000000000000000000000000000000000000815260040180806020018281038252602a8152602001807f50726f6475637420707269636520616e642076616c75652073656e74206d757381526020017f7420626520657175616c0000000000000000000000000000000000000000000081525060400191505060405180910390fd5b8060600151600080828254019250508190555060008090505b6003805490508110156112b3578360038281548110151561125b57fe5b90600052602060002090600602016001015414156112a657816060015160038281548110151561128757fe5b9060005260206000209060060201600401600082825401925050819055505b808060010191505061123e565b50505050565b600060056000838152602001908152602001600020805490509050919050565b60008090505b60038054905081101561146f57816003828154811015156112fc57fe5b90600052602060002090600602016001015414156114625760038181548110151561132357fe5b906000526020600020906006020160040154600054101515156113d4576040517f08c379a000000000000000000000000000000000000000000000000000000000815260040180806020018281038252603c8152602001807f436f6e7472616374206d757374206861766520656e6f7567682062616c616e6381526020017f6520746f2070726f636573732074686973207769746864726177616c0000000081525060400191505060405180910390fd5b3373ffffffffffffffffffffffffffffffffffffffff166108fc6003838154811015156113fd57fe5b9060005260206000209060060201600401549081150290604051600060405180830381858888f1935050505015801561143a573d6000803e3d6000fd5b50600060038281548110151561144c57fe5b9060005260206000209060060201600401819055505b80806001019150506112df565b5050565b6000600380549050905090565b3360028081111561148d57fe5b600160008373ffffffffffffffffffffffffffffffffffffffff1673ffffffffffffffffffffffffffffffffffffffff16815260200190815260200160002060010160009054906101000a900460ff1660028111156114e857fe5b14151561155d576040517f08c379a00000000000000000000000000000000000000000000000000000000081526004018080602001828103825260158152602001807f55736572206d75737420626520616e206f776e6572000000000000000000000081525060200191505060405180910390fd5b60008090505b6005600085815260200190815260200160002080549050811015611698578260056000868152602001908152602001600020828154811015156115a257fe5b906000526020600020906006020160000154141561168b5760056000858152602001908152602001600020818154811015156115da57fe5b90600052602060002090600602016000808201600090556001820160006116019190611f21565b6002820160006116119190611f21565b600382016000905560048201600090556005820160006101000a81549060ff021916905550506001600560008681526020019081526020016000208281548110151561165957fe5b906000526020600020906006020160050160006101000a81548160ff0219169083600181111561168557fe5b02179055505b8080600101915050611563565b50505050565b6005602052816000526040600020818154811015156116b957fe5b906000526020600020906006020160009150915050806000015490806001018054600181600116156101000203166002900480601f01602080910402602001604051908101604052809291908181526020018280546001816001161561010002031660029004801561176c5780601f106117415761010080835404028352916020019161176c565b820191906000526020600020905b81548152906001019060200180831161174f57829003601f168201915b505050505090806002018054600181600116156101000203166002900480601f01602080910402602001604051908101604052809291908181526020018280546001816001161561010002031660029004801561180a5780601f106117df5761010080835404028352916020019161180a565b820191906000526020600020905b8154815290600101906020018083116117ed57829003601f168201915b5050505050908060030154908060040154908060050160009054906101000a900460ff16905086565b6001602052806000526040600020600091509050806000018054600181600116156101000203166002900480601f0160208091040260200160405190810160405280929190818152602001828054600181600116156101000203166002900480156118df5780601f106118b4576101008083540402835291602001916118df565b820191906000526020600020905b8154815290600101906020018083116118c257829003601f168201915b5050505050908060010160009054906101000a900460ff16905082565b336001600281111561190a57fe5b600160008373ffffffffffffffffffffffffffffffffffffffff1673ffffffffffffffffffffffffffffffffffffffff16815260200190815260200160002060010160009054906101000a900460ff16600281111561196557fe5b1415156119da576040517f08c379a00000000000000000000000000000000000000000000000000000000081526004018080602001828103825260158152602001807f55736572206d75737420626520616e2061646d696e000000000000000000000081525060200191505060405180910390fd5b6040805190810160405280838152602001600160028111156119f857fe5b815250600160008573ffffffffffffffffffffffffffffffffffffffff1673ffffffffffffffffffffffffffffffffffffffff1681526020019081526020016000206000820151816000019080519060200190611a56929190611e5f565b5060208201518160010160006101000a81548160ff02191690836002811115611a7b57fe5b0217905550905050505050565b600381815481101515611a9757fe5b90600052602060002090600602016000915090508060000160009054906101000a900473ffffffffffffffffffffffffffffffffffffffff1690806001015490806002018054600181600116156101000203166002900480601f016020809104026020016040519081016040528092919081815260200182805460018160011615610100020316600290048015611b6f5780601f10611b4457610100808354040283529160200191611b6f565b820191906000526020600020905b815481529060010190602001808311611b5257829003601f168201915b505050505090806003018054600181600116156101000203166002900480601f016020809104026020016040519081016040528092919081815260200182805460018160011615610100020316600290048015611c0d5780601f10611be257610100808354040283529160200191611c0d565b820191906000526020600020905b815481529060010190602001808311611bf057829003601f168201915b5050505050908060040154908060050160009054906101000a900460ff16905086565b33600280811115611c3d57fe5b600160008373ffffffffffffffffffffffffffffffffffffffff1673ffffffffffffffffffffffffffffffffffffffff16815260200190815260200160002060010160009054906101000a900460ff166002811115611c9857fe5b141515611d0d576040517f08c379a00000000000000000000000000000000000000000000000000000000081526004018080602001828103825260158152602001807f55736572206d75737420626520616e206f776e6572000000000000000000000081525060200191505060405180910390fd5b600160025401600281905550600360c0604051908101604052803373ffffffffffffffffffffffffffffffffffffffff16815260200160025481526020018581526020018481526020016000815260200160006001811115611d6b57fe5b8152509080600181540180825580915050906001820390600052602060002090600602016000909192909190915060008201518160000160006101000a81548173ffffffffffffffffffffffffffffffffffffffff021916908373ffffffffffffffffffffffffffffffffffffffff160217905550602082015181600101556040820151816002019080519060200190611e06929190611e5f565b506060820151816003019080519060200190611e23929190611e5f565b506080820151816004015560a08201518160050160006101000a81548160ff02191690836001811115611e5257fe5b0217905550505050505050565b828054600181600116156101000203166002900490600052602060002090601f016020900481019282601f10611ea057805160ff1916838001178555611ece565b82800160010185558215611ece579182015b82811115611ecd578251825591602001919060010190611eb2565b5b509050611edb9190611f69565b5090565b60c060405190810160405280600081526020016060815260200160608152602001600081526020016000815260200160006001811115611f1b57fe5b81525090565b50805460018160011615610100020316600290046000825580601f10611f475750611f66565b601f016020900490600052602060002090810190611f659190611f69565b5b50565b611f8b91905b80821115611f87576000816000905550600101611f6f565b5090565b9056fea165627a7a7230582011e6aa9bae98df7b24700c6b00497313637ddedcd740667b76eb6f16bf9fd4520029",
  "source": "pragma solidity ^0.5.0;\n\ncontract Shop {\n  enum UserType { Guest, Admin, Owner }\n  enum State { Active, Deleted }\n\n  struct User {\n    string name;\n    UserType userType;\n  }\n\n  struct Store {\n    address ownerAddress;\n    uint storeNumber;\n    string name;\n    string city;\n    uint earnings;\n    State state;\n  }\n\n  struct Product {\n    uint productNumber;\n    string name;\n    string description;\n    uint price;\n    uint inventory;\n    State state;\n  }\n\n  // Contract owner state\n  uint private contractBalance;\n\n  // User state\n  mapping (address => User) public users;\n\n  // Store state\n  uint public storeNumber;\n  Store[] public stores;\n\n  // Product state\n  uint public productNumber;\n  mapping (uint => Product[]) public products;\n\n  modifier verifyAdmin(address userAddress) {\n    require(users[userAddress].userType == UserType.Admin, \"User must be an admin\");\n    _;\n  }\n\n  modifier verifyOwner(address ownerAddress) {\n    require(users[ownerAddress].userType == UserType.Owner, \"User must be an owner\");\n    _;\n  }\n\n  constructor() public {\n    // Initializing state\n    contractBalance = 0;\n    storeNumber = 0;\n    productNumber = 0;\n\n    // Add contract owner as an admin\n    users[msg.sender] = User({\n      name: \"Super Admin\",\n      userType: UserType.Admin\n    });\n  }\n\n  function addAdmin(address userAddress, string memory name) public\n  verifyAdmin(msg.sender) {\n    users[userAddress] = User({\n      name: name,\n      userType: UserType.Admin\n    });\n  }\n\n  function addOwner(address userAddress, string memory name) public\n  verifyAdmin(msg.sender) {\n    users[userAddress] = User({\n      name: name,\n      userType: UserType.Owner\n    });\n  }\n\n  function addStore(string memory name, string memory city) public\n  verifyOwner(msg.sender) {\n    storeNumber = storeNumber + 1;\n\n    stores.push(Store({\n      ownerAddress: msg.sender,\n      storeNumber: storeNumber,\n      name: name,\n      city: city,\n      earnings: 0,\n      state: State.Active\n    }));\n  }\n\n  function addProduct(uint storeNumberGiven, string memory name, string memory description, uint price, uint inventory) public\n  verifyOwner(msg.sender) {\n    productNumber = productNumber + 1;\n\n    products[storeNumberGiven].push(Product({\n      productNumber: productNumber,\n      name: name,\n      description: description,\n      price: price,\n      inventory: inventory,\n      state: State.Active\n    }));\n  }\n\n  function deleteProduct(uint storeNumberGiven, uint productNumberGiven) public\n  verifyOwner(msg.sender) {\n    for (uint i = 0; i < products[storeNumberGiven].length; i++) {\n      if (products[storeNumberGiven][i].productNumber == productNumberGiven) {\n        delete products[storeNumberGiven][i];\n\n        products[storeNumberGiven][i].state = State.Deleted;\n      }\n    }\n  }\n\n  function buyProduct(uint storeNumberGiven, uint productNumberGiven) public payable {\n    Product memory product;\n\n    for (uint i = 0; i < products[storeNumberGiven].length; i++) {\n      if (products[storeNumberGiven][i].productNumber == productNumberGiven) {\n        product = products[storeNumberGiven][i];\n\n        require(product.inventory >= 1, \"Store must have inventory of this product\");\n\n        products[storeNumberGiven][i].inventory = products[storeNumberGiven][i].inventory - 1;\n      }\n    }\n\n    require(product.price == msg.value, \"Product price and value sent must be equal\");\n\n    contractBalance += product.price;\n\n    for (uint i = 0; i < stores.length; i++) {\n      if (stores[i].storeNumber == storeNumberGiven) {\n        stores[i].earnings += product.price;\n      }\n    }\n  }\n\n  function withdrawEarnings(uint storeNumberGiven) public {\n    for (uint i = 0; i < stores.length; i++) {\n      if (stores[i].storeNumber == storeNumberGiven) {\n        require(contractBalance >= stores[i].earnings, \"Contract must have enough balance to process this withdrawal\");\n\n        msg.sender.transfer(stores[i].earnings);\n        stores[i].earnings = 0;\n      }\n    }\n  }\n\n  function getStoresLength() public view returns(uint) {\n    return stores.length;\n  }\n\n  function getProductsLength(uint storeNumberGiven) public view returns(uint) {\n    return products[storeNumberGiven].length;\n  }\n}\n",
  "sourcePath": "/Users/asood/Desktop/consensys/chain-shop-redux/contracts/Shop.sol",
  "compiler": {
    "name": "solc",
    "version": "0.5.0+commit.1d4f565a.Emscripten.clang"
  },
  "schemaVersion": "3.0.1",
  "updatedAt": "2019-01-15T00:44:14.141Z",
  "devdoc": {
    "methods": {}
  },
  "userdoc": {
    "methods": {}
  }
}