{
  "contractName": "Shop",
  "abi": [
    {
      "constant": true,
      "inputs": [],
      "name": "storeNumber",
      "outputs": [
        {
          "name": "",
          "type": "uint256"
        }
      ],
      "payable": false,
      "stateMutability": "view",
      "type": "function",
      "signature": "0x1cdb717f"
    },
    {
      "constant": true,
      "inputs": [],
      "name": "productNumber",
      "outputs": [
        {
          "name": "",
          "type": "uint256"
        }
      ],
      "payable": false,
      "stateMutability": "view",
      "type": "function",
      "signature": "0x5034735d"
    },
    {
      "constant": true,
      "inputs": [
        {
          "name": "",
          "type": "uint256"
        },
        {
          "name": "",
          "type": "uint256"
        }
      ],
      "name": "products",
      "outputs": [
        {
          "name": "productNumber",
          "type": "uint256"
        },
        {
          "name": "name",
          "type": "string"
        },
        {
          "name": "description",
          "type": "string"
        },
        {
          "name": "price",
          "type": "uint256"
        },
        {
          "name": "inventory",
          "type": "uint256"
        },
        {
          "name": "state",
          "type": "uint8"
        }
      ],
      "payable": false,
      "stateMutability": "view",
      "type": "function",
      "signature": "0xa590fbdb"
    },
    {
      "constant": true,
      "inputs": [
        {
          "name": "",
          "type": "address"
        }
      ],
      "name": "users",
      "outputs": [
        {
          "name": "name",
          "type": "string"
        },
        {
          "name": "userType",
          "type": "uint8"
        }
      ],
      "payable": false,
      "stateMutability": "view",
      "type": "function",
      "signature": "0xa87430ba"
    },
    {
      "constant": true,
      "inputs": [
        {
          "name": "",
          "type": "uint256"
        }
      ],
      "name": "stores",
      "outputs": [
        {
          "name": "ownerAddress",
          "type": "address"
        },
        {
          "name": "storeNumber",
          "type": "uint256"
        },
        {
          "name": "name",
          "type": "string"
        },
        {
          "name": "city",
          "type": "string"
        },
        {
          "name": "earnings",
          "type": "uint256"
        },
        {
          "name": "state",
          "type": "uint8"
        }
      ],
      "payable": false,
      "stateMutability": "view",
      "type": "function",
      "signature": "0xe8a59cd8"
    },
    {
      "inputs": [],
      "payable": false,
      "stateMutability": "nonpayable",
      "type": "constructor",
      "signature": "constructor"
    },
    {
      "constant": false,
      "inputs": [
        {
          "name": "userAddress",
          "type": "address"
        },
        {
          "name": "name",
          "type": "string"
        }
      ],
      "name": "addAdmin",
      "outputs": [],
      "payable": false,
      "stateMutability": "nonpayable",
      "type": "function",
      "signature": "0xd16856ca"
    },
    {
      "constant": false,
      "inputs": [
        {
          "name": "userAddress",
          "type": "address"
        },
        {
          "name": "name",
          "type": "string"
        }
      ],
      "name": "addOwner",
      "outputs": [],
      "payable": false,
      "stateMutability": "nonpayable",
      "type": "function",
      "signature": "0x3542758f"
    },
    {
      "constant": false,
      "inputs": [
        {
          "name": "name",
          "type": "string"
        },
        {
          "name": "city",
          "type": "string"
        }
      ],
      "name": "addStore",
      "outputs": [],
      "payable": false,
      "stateMutability": "nonpayable",
      "type": "function",
      "signature": "0xed48719c"
    },
    {
      "constant": false,
      "inputs": [
        {
          "name": "storeNumberGiven",
          "type": "uint256"
        }
      ],
      "name": "deleteStore",
      "outputs": [],
      "payable": false,
      "stateMutability": "nonpayable",
      "type": "function",
      "signature": "0x7cc69325"
    },
    {
      "constant": false,
      "inputs": [
        {
          "name": "storeNumberGiven",
          "type": "uint256"
        },
        {
          "name": "name",
          "type": "string"
        },
        {
          "name": "city",
          "type": "string"
        }
      ],
      "name": "saveStoreEdits",
      "outputs": [],
      "payable": false,
      "stateMutability": "nonpayable",
      "type": "function",
      "signature": "0xbe1e5980"
    },
    {
      "constant": false,
      "inputs": [
        {
          "name": "storeNumberGiven",
          "type": "uint256"
        },
        {
          "name": "name",
          "type": "string"
        },
        {
          "name": "description",
          "type": "string"
        },
        {
          "name": "price",
          "type": "uint256"
        },
        {
          "name": "inventory",
          "type": "uint256"
        }
      ],
      "name": "addProduct",
      "outputs": [],
      "payable": false,
      "stateMutability": "nonpayable",
      "type": "function",
      "signature": "0x01db5b48"
    },
    {
      "constant": false,
      "inputs": [
        {
          "name": "storeNumberGiven",
          "type": "uint256"
        },
        {
          "name": "productNumberGiven",
          "type": "uint256"
        }
      ],
      "name": "deleteProduct",
      "outputs": [],
      "payable": false,
      "stateMutability": "nonpayable",
      "type": "function",
      "signature": "0xa1c48cc4"
    },
    {
      "constant": false,
      "inputs": [
        {
          "name": "storeNumberGiven",
          "type": "uint256"
        },
        {
          "name": "productNumberGiven",
          "type": "uint256"
        },
        {
          "name": "name",
          "type": "string"
        },
        {
          "name": "description",
          "type": "string"
        },
        {
          "name": "price",
          "type": "uint256"
        },
        {
          "name": "inventory",
          "type": "uint256"
        }
      ],
      "name": "saveProductEdits",
      "outputs": [],
      "payable": false,
      "stateMutability": "nonpayable",
      "type": "function",
      "signature": "0x0b158e8c"
    },
    {
      "constant": false,
      "inputs": [
        {
          "name": "storeNumberGiven",
          "type": "uint256"
        },
        {
          "name": "productNumberGiven",
          "type": "uint256"
        }
      ],
      "name": "buyProduct",
      "outputs": [],
      "payable": true,
      "stateMutability": "payable",
      "type": "function",
      "signature": "0x53b62866"
    },
    {
      "constant": false,
      "inputs": [
        {
          "name": "storeNumberGiven",
          "type": "uint256"
        }
      ],
      "name": "withdrawEarnings",
      "outputs": [],
      "payable": false,
      "stateMutability": "nonpayable",
      "type": "function",
      "signature": "0x6e70096e"
    },
    {
      "constant": true,
      "inputs": [],
      "name": "getStoresLength",
      "outputs": [
        {
          "name": "",
          "type": "uint256"
        }
      ],
      "payable": false,
      "stateMutability": "view",
      "type": "function",
      "signature": "0x86a9bd11"
    },
    {
      "constant": true,
      "inputs": [
        {
          "name": "storeNumberGiven",
          "type": "uint256"
        }
      ],
      "name": "getProductsLength",
      "outputs": [
        {
          "name": "",
          "type": "uint256"
        }
      ],
      "payable": false,
      "stateMutability": "view",
      "type": "function",
      "signature": "0x5412fc46"
    }
  ],
  "bytecode": "0x60806040523480156200001157600080fd5b50600080819055506000600281905550600060048190555060408051908101604052806040805190810160405280600b81526020017f53757065722041646d696e0000000000000000000000000000000000000000008152508152602001600160028111156200007d57fe5b815250600160003373ffffffffffffffffffffffffffffffffffffffff1673ffffffffffffffffffffffffffffffffffffffff1681526020019081526020016000206000820151816000019080519060200190620000dd92919062000111565b5060208201518160010160006101000a81548160ff021916908360028111156200010357fe5b0217905550905050620001c0565b828054600181600116156101000203166002900490600052602060002090601f016020900481019282601f106200015457805160ff191683800117855562000185565b8280016001018555821562000185579182015b828111156200018457825182559160200191906001019062000167565b5b50905062000194919062000198565b5090565b620001bd91905b80821115620001b95760008160009055506001016200019f565b5090565b90565b612a6180620001d06000396000f3fe6080604052600436106100f1576000357c0100000000000000000000000000000000000000000000000000000000900463ffffffff16806301db5b48146100f65780630b158e8c146102735780631cdb717f146103fa5780633542758f146104255780635034735d1461050d57806353b62866146105385780635412fc46146105705780636e70096e146105bf5780637cc69325146105fa57806386a9bd1114610635578063a1c48cc414610660578063a590fbdb146106a5578063a87430ba146107f9578063be1e5980146108d8578063d16856ca14610a41578063e8a59cd814610b29578063ed48719c14610c9f575b600080fd5b34801561010257600080fd5b50610271600480360360a081101561011957600080fd5b81019080803590602001909291908035906020019064010000000081111561014057600080fd5b82018360208201111561015257600080fd5b8035906020019184600183028401116401000000008311171561017457600080fd5b91908080601f016020809104026020016040519081016040528093929190818152602001838380828437600081840152601f19601f820116905080830192505050505050509192919290803590602001906401000000008111156101d757600080fd5b8201836020820111156101e957600080fd5b8035906020019184600183028401116401000000008311171561020b57600080fd5b91908080601f016020809104026020016040519081016040528093929190818152602001838380828437600081840152601f19601f8201169050808301925050505050505091929192908035906020019092919080359060200190929190505050610dfe565b005b34801561027f57600080fd5b506103f8600480360360c081101561029657600080fd5b810190808035906020019092919080359060200190929190803590602001906401000000008111156102c757600080fd5b8201836020820111156102d957600080fd5b803590602001918460018302840111640100000000831117156102fb57600080fd5b91908080601f016020809104026020016040519081016040528093929190818152602001838380828437600081840152601f19601f8201169050808301925050505050505091929192908035906020019064010000000081111561035e57600080fd5b82018360208201111561037057600080fd5b8035906020019184600183028401116401000000008311171561039257600080fd5b91908080601f016020809104026020016040519081016040528093929190818152602001838380828437600081840152601f19601f8201169050808301925050505050505091929192908035906020019092919080359060200190929190505050610fed565b005b34801561040657600080fd5b5061040f611237565b6040518082815260200191505060405180910390f35b34801561043157600080fd5b5061050b6004803603604081101561044857600080fd5b81019080803573ffffffffffffffffffffffffffffffffffffffff1690602001909291908035906020019064010000000081111561048557600080fd5b82018360208201111561049757600080fd5b803590602001918460018302840111640100000000831117156104b957600080fd5b91908080601f016020809104026020016040519081016040528093929190818152602001838380828437600081840152601f19601f82011690508083019250505050505050919291929050505061123d565b005b34801561051957600080fd5b506105226113c8565b6040518082815260200191505060405180910390f35b61056e6004803603604081101561054e57600080fd5b8101908080359060200190929190803590602001909291905050506113ce565b005b34801561057c57600080fd5b506105a96004803603602081101561059357600080fd5b810190808035906020019092919050505061184f565b6040518082815260200191505060405180910390f35b3480156105cb57600080fd5b506105f8600480360360208110156105e257600080fd5b810190808035906020019092919050505061186f565b005b34801561060657600080fd5b506106336004803603602081101561061d57600080fd5b8101908080359060200190929190505050611a09565b005b34801561064157600080fd5b5061064a611d03565b6040518082815260200191505060405180910390f35b34801561066c57600080fd5b506106a36004803603604081101561068357600080fd5b810190808035906020019092919080359060200190929190505050611d10565b005b3480156106b157600080fd5b506106e8600480360360408110156106c857600080fd5b810190808035906020019092919080359060200190929190505050611f2e565b60405180878152602001806020018060200186815260200185815260200184600181111561071257fe5b60ff168152602001838103835288818151815260200191508051906020019080838360005b83811015610752578082015181840152602081019050610737565b50505050905090810190601f16801561077f5780820380516001836020036101000a031916815260200191505b50838103825287818151815260200191508051906020019080838360005b838110156107b857808201518184015260208101905061079d565b50505050905090810190601f1680156107e55780820380516001836020036101000a031916815260200191505b509850505050505050505060405180910390f35b34801561080557600080fd5b506108486004803603602081101561081c57600080fd5b81019080803573ffffffffffffffffffffffffffffffffffffffff1690602001909291905050506120c3565b604051808060200183600281111561085c57fe5b60ff168152602001828103825284818151815260200191508051906020019080838360005b8381101561089c578082015181840152602081019050610881565b50505050905090810190601f1680156108c95780820380516001836020036101000a031916815260200191505b50935050505060405180910390f35b3480156108e457600080fd5b50610a3f600480360360608110156108fb57600080fd5b81019080803590602001909291908035906020019064010000000081111561092257600080fd5b82018360208201111561093457600080fd5b8035906020019184600183028401116401000000008311171561095657600080fd5b91908080601f016020809104026020016040519081016040528093929190818152602001838380828437600081840152601f19601f820116905080830192505050505050509192919290803590602001906401000000008111156109b957600080fd5b8201836020820111156109cb57600080fd5b803590602001918460018302840111640100000000831117156109ed57600080fd5b91908080601f016020809104026020016040519081016040528093929190818152602001838380828437600081840152601f19601f82011690508083019250505050505050919291929050505061218c565b005b348015610a4d57600080fd5b50610b2760048036036040811015610a6457600080fd5b81019080803573ffffffffffffffffffffffffffffffffffffffff16906020019092919080359060200190640100000000811115610aa157600080fd5b820183602082011115610ab357600080fd5b80359060200191846001830284011164010000000083111715610ad557600080fd5b91908080601f016020809104026020016040519081016040528093929190818152602001838380828437600081840152601f19601f820116905080830192505050505050509192919290505050612323565b005b348015610b3557600080fd5b50610b6260048036036020811015610b4c57600080fd5b81019080803590602001909291905050506124af565b604051808773ffffffffffffffffffffffffffffffffffffffff1673ffffffffffffffffffffffffffffffffffffffff1681526020018681526020018060200180602001858152602001846001811115610bb857fe5b60ff168152602001838103835287818151815260200191508051906020019080838360005b83811015610bf8578082015181840152602081019050610bdd565b50505050905090810190601f168015610c255780820380516001836020036101000a031916815260200191505b50838103825286818151815260200191508051906020019080838360005b83811015610c5e578082015181840152602081019050610c43565b50505050905090810190601f168015610c8b5780820380516001836020036101000a031916815260200191505b509850505050505050505060405180910390f35b348015610cab57600080fd5b50610dfc60048036036040811015610cc257600080fd5b8101908080359060200190640100000000811115610cdf57600080fd5b820183602082011115610cf157600080fd5b80359060200191846001830284011164010000000083111715610d1357600080fd5b91908080601f016020809104026020016040519081016040528093929190818152602001838380828437600081840152601f19601f82011690508083019250505050505050919291929080359060200190640100000000811115610d7657600080fd5b820183602082011115610d8857600080fd5b80359060200191846001830284011164010000000083111715610daa57600080fd5b91908080601f016020809104026020016040519081016040528093929190818152602001838380828437600081840152601f19601f820116905080830192505050505050509192919290505050612657565b005b33600280811115610e0b57fe5b600160008373ffffffffffffffffffffffffffffffffffffffff1673ffffffffffffffffffffffffffffffffffffffff16815260200190815260200160002060010160009054906101000a900460ff166002811115610e6657fe5b141515610edb576040517f08c379a00000000000000000000000000000000000000000000000000000000081526004018080602001828103825260158152602001807f55736572206d75737420626520616e206f776e6572000000000000000000000081525060200191505060405180910390fd5b6001600454016004819055506005600087815260200190815260200160002060c060405190810160405280600454815260200187815260200186815260200185815260200184815260200160006001811115610f3357fe5b81525090806001815401808255809150509060018203906000526020600020906006020160009091929091909150600082015181600001556020820151816001019080519060200190610f87929190612886565b506040820151816002019080519060200190610fa4929190612886565b50606082015181600301556080820151816004015560a08201518160050160006101000a81548160ff02191690836001811115610fdd57fe5b0217905550505050505050505050565b33600280811115610ffa57fe5b600160008373ffffffffffffffffffffffffffffffffffffffff1673ffffffffffffffffffffffffffffffffffffffff16815260200190815260200160002060010160009054906101000a900460ff16600281111561105557fe5b1415156110ca576040517f08c379a00000000000000000000000000000000000000000000000000000000081526004018080602001828103825260158152602001807f55736572206d75737420626520616e206f776e6572000000000000000000000081525060200191505060405180910390fd5b60008090505b600560008981526020019081526020016000208054905081101561122d5786600560008a81526020019081526020016000208281548110151561110f57fe5b90600052602060002090600602016000015414156112205785600560008a81526020019081526020016000208281548110151561114857fe5b9060005260206000209060060201600101908051906020019061116c929190612906565b5084600560008a81526020019081526020016000208281548110151561118e57fe5b906000526020600020906006020160020190805190602001906111b2929190612906565b5083600560008a8152602001908152602001600020828154811015156111d457fe5b90600052602060002090600602016003018190555082600560008a81526020019081526020016000208281548110151561120a57fe5b9060005260206000209060060201600401819055505b80806001019150506110d0565b5050505050505050565b60025481565b336001600281111561124b57fe5b600160008373ffffffffffffffffffffffffffffffffffffffff1673ffffffffffffffffffffffffffffffffffffffff16815260200190815260200160002060010160009054906101000a900460ff1660028111156112a657fe5b14151561131b576040517f08c379a00000000000000000000000000000000000000000000000000000000081526004018080602001828103825260158152602001807f55736572206d75737420626520616e2061646d696e000000000000000000000081525060200191505060405180910390fd5b604080519081016040528083815260200160028081111561133857fe5b815250600160008573ffffffffffffffffffffffffffffffffffffffff1673ffffffffffffffffffffffffffffffffffffffff1681526020019081526020016000206000820151816000019080519060200190611396929190612886565b5060208201518160010160006101000a81548160ff021916908360028111156113bb57fe5b0217905550905050505050565b60045481565b6113d6612986565b60008090505b60056000858152602001908152602001600020805490508110156117195782600560008681526020019081526020016000208281548110151561141b57fe5b906000526020600020906006020160000154141561170c57600560008581526020019081526020016000208181548110151561145357fe5b906000526020600020906006020160c0604051908101604052908160008201548152602001600182018054600181600116156101000203166002900480601f0160208091040260200160405190810160405280929190818152602001828054600181600116156101000203166002900480156115105780601f106114e557610100808354040283529160200191611510565b820191906000526020600020905b8154815290600101906020018083116114f357829003601f168201915b50505050508152602001600282018054600181600116156101000203166002900480601f0160208091040260200160405190810160405280929190818152602001828054600181600116156101000203166002900480156115b25780601f10611587576101008083540402835291602001916115b2565b820191906000526020600020905b81548152906001019060200180831161159557829003601f168201915b5050505050815260200160038201548152602001600482015481526020016005820160009054906101000a900460ff1660018111156115ed57fe5b60018111156115f857fe5b81525050915060018260800151101515156116a1576040517f08c379a00000000000000000000000000000000000000000000000000000000081526004018080602001828103825260298152602001807f53746f7265206d757374206861766520696e76656e746f7279206f662074686981526020017f732070726f64756374000000000000000000000000000000000000000000000081525060400191505060405180910390fd5b600160056000868152602001908152602001600020828154811015156116c357fe5b9060005260206000209060060201600401540360056000868152602001908152602001600020828154811015156116f657fe5b9060005260206000209060060201600401819055505b80806001019150506113dc565b503481606001511415156117bb576040517f08c379a000000000000000000000000000000000000000000000000000000000815260040180806020018281038252602a8152602001807f50726f6475637420707269636520616e642076616c75652073656e74206d757381526020017f7420626520657175616c0000000000000000000000000000000000000000000081525060400191505060405180910390fd5b8060600151600080828254019250508190555060008090505b60038054905081101561184957836003828154811015156117f157fe5b906000526020600020906006020160010154141561183c57816060015160038281548110151561181d57fe5b9060005260206000209060060201600401600082825401925050819055505b80806001019150506117d4565b50505050565b600060056000838152602001908152602001600020805490509050919050565b60008090505b600380549050811015611a05578160038281548110151561189257fe5b90600052602060002090600602016001015414156119f8576003818154811015156118b957fe5b9060005260206000209060060201600401546000541015151561196a576040517f08c379a000000000000000000000000000000000000000000000000000000000815260040180806020018281038252603c8152602001807f436f6e7472616374206d757374206861766520656e6f7567682062616c616e6381526020017f6520746f2070726f636573732074686973207769746864726177616c0000000081525060400191505060405180910390fd5b3373ffffffffffffffffffffffffffffffffffffffff166108fc60038381548110151561199357fe5b9060005260206000209060060201600401549081150290604051600060405180830381858888f193505050501580156119d0573d6000803e3d6000fd5b5060006003828154811015156119e257fe5b9060005260206000209060060201600401819055505b8080600101915050611875565b5050565b33600280811115611a1657fe5b600160008373ffffffffffffffffffffffffffffffffffffffff1673ffffffffffffffffffffffffffffffffffffffff16815260200190815260200160002060010160009054906101000a900460ff166002811115611a7157fe5b141515611ae6576040517f08c379a00000000000000000000000000000000000000000000000000000000081526004018080602001828103825260158152602001807f55736572206d75737420626520616e206f776e6572000000000000000000000081525060200191505060405180910390fd5b60008090505b600380549050811015611bfc5782600382815481101515611b0957fe5b9060005260206000209060060201600101541415611bef57600381815481101515611b3057fe5b9060005260206000209060060201600080820160006101000a81549073ffffffffffffffffffffffffffffffffffffffff02191690556001820160009055600282016000611b7e91906129c8565b600382016000611b8e91906129c8565b60048201600090556005820160006101000a81549060ff021916905550506001600382815481101515611bbd57fe5b906000526020600020906006020160050160006101000a81548160ff02191690836001811115611be957fe5b02179055505b8080600101915050611aec565b5060008090505b6005600084815260200190815260200160002080549050811015611cfe576005600084815260200190815260200160002081815481101515611c4157fe5b9060005260206000209060060201600080820160009055600182016000611c6891906129c8565b600282016000611c7891906129c8565b600382016000905560048201600090556005820160006101000a81549060ff0219169055505060016005600085815260200190815260200160002082815481101515611cc057fe5b906000526020600020906006020160050160006101000a81548160ff02191690836001811115611cec57fe5b02179055508080600101915050611c03565b505050565b6000600380549050905090565b33600280811115611d1d57fe5b600160008373ffffffffffffffffffffffffffffffffffffffff1673ffffffffffffffffffffffffffffffffffffffff16815260200190815260200160002060010160009054906101000a900460ff166002811115611d7857fe5b141515611ded576040517f08c379a00000000000000000000000000000000000000000000000000000000081526004018080602001828103825260158152602001807f55736572206d75737420626520616e206f776e6572000000000000000000000081525060200191505060405180910390fd5b60008090505b6005600085815260200190815260200160002080549050811015611f2857826005600086815260200190815260200160002082815481101515611e3257fe5b9060005260206000209060060201600001541415611f1b576005600085815260200190815260200160002081815481101515611e6a57fe5b9060005260206000209060060201600080820160009055600182016000611e9191906129c8565b600282016000611ea191906129c8565b600382016000905560048201600090556005820160006101000a81549060ff0219169055505060016005600086815260200190815260200160002082815481101515611ee957fe5b906000526020600020906006020160050160006101000a81548160ff02191690836001811115611f1557fe5b02179055505b8080600101915050611df3565b50505050565b600560205281600052604060002081815481101515611f4957fe5b906000526020600020906006020160009150915050806000015490806001018054600181600116156101000203166002900480601f016020809104026020016040519081016040528092919081815260200182805460018160011615610100020316600290048015611ffc5780601f10611fd157610100808354040283529160200191611ffc565b820191906000526020600020905b815481529060010190602001808311611fdf57829003601f168201915b505050505090806002018054600181600116156101000203166002900480601f01602080910402602001604051908101604052809291908181526020018280546001816001161561010002031660029004801561209a5780601f1061206f5761010080835404028352916020019161209a565b820191906000526020600020905b81548152906001019060200180831161207d57829003601f168201915b5050505050908060030154908060040154908060050160009054906101000a900460ff16905086565b6001602052806000526040600020600091509050806000018054600181600116156101000203166002900480601f01602080910402602001604051908101604052809291908181526020018280546001816001161561010002031660029004801561216f5780601f106121445761010080835404028352916020019161216f565b820191906000526020600020905b81548152906001019060200180831161215257829003601f168201915b5050505050908060010160009054906101000a900460ff16905082565b3360028081111561219957fe5b600160008373ffffffffffffffffffffffffffffffffffffffff1673ffffffffffffffffffffffffffffffffffffffff16815260200190815260200160002060010160009054906101000a900460ff1660028111156121f457fe5b141515612269576040517f08c379a00000000000000000000000000000000000000000000000000000000081526004018080602001828103825260158152602001807f55736572206d75737420626520616e206f776e6572000000000000000000000081525060200191505060405180910390fd5b60008090505b60038054905081101561231c578460038281548110151561228c57fe5b906000526020600020906006020160010154141561230f57836003828154811015156122b457fe5b906000526020600020906006020160020190805190602001906122d8929190612906565b50826003828154811015156122e957fe5b9060005260206000209060060201600301908051906020019061230d929190612906565b505b808060010191505061226f565b5050505050565b336001600281111561233157fe5b600160008373ffffffffffffffffffffffffffffffffffffffff1673ffffffffffffffffffffffffffffffffffffffff16815260200190815260200160002060010160009054906101000a900460ff16600281111561238c57fe5b141515612401576040517f08c379a00000000000000000000000000000000000000000000000000000000081526004018080602001828103825260158152602001807f55736572206d75737420626520616e2061646d696e000000000000000000000081525060200191505060405180910390fd5b60408051908101604052808381526020016001600281111561241f57fe5b815250600160008573ffffffffffffffffffffffffffffffffffffffff1673ffffffffffffffffffffffffffffffffffffffff168152602001908152602001600020600082015181600001908051906020019061247d929190612886565b5060208201518160010160006101000a81548160ff021916908360028111156124a257fe5b0217905550905050505050565b6003818154811015156124be57fe5b90600052602060002090600602016000915090508060000160009054906101000a900473ffffffffffffffffffffffffffffffffffffffff1690806001015490806002018054600181600116156101000203166002900480601f0160208091040260200160405190810160405280929190818152602001828054600181600116156101000203166002900480156125965780601f1061256b57610100808354040283529160200191612596565b820191906000526020600020905b81548152906001019060200180831161257957829003601f168201915b505050505090806003018054600181600116156101000203166002900480601f0160208091040260200160405190810160405280929190818152602001828054600181600116156101000203166002900480156126345780601f1061260957610100808354040283529160200191612634565b820191906000526020600020905b81548152906001019060200180831161261757829003601f168201915b5050505050908060040154908060050160009054906101000a900460ff16905086565b3360028081111561266457fe5b600160008373ffffffffffffffffffffffffffffffffffffffff1673ffffffffffffffffffffffffffffffffffffffff16815260200190815260200160002060010160009054906101000a900460ff1660028111156126bf57fe5b141515612734576040517f08c379a00000000000000000000000000000000000000000000000000000000081526004018080602001828103825260158152602001807f55736572206d75737420626520616e206f776e6572000000000000000000000081525060200191505060405180910390fd5b600160025401600281905550600360c0604051908101604052803373ffffffffffffffffffffffffffffffffffffffff1681526020016002548152602001858152602001848152602001600081526020016000600181111561279257fe5b8152509080600181540180825580915050906001820390600052602060002090600602016000909192909190915060008201518160000160006101000a81548173ffffffffffffffffffffffffffffffffffffffff021916908373ffffffffffffffffffffffffffffffffffffffff16021790555060208201518160010155604082015181600201908051906020019061282d929190612886565b50606082015181600301908051906020019061284a929190612886565b506080820151816004015560a08201518160050160006101000a81548160ff0219169083600181111561287957fe5b0217905550505050505050565b828054600181600116156101000203166002900490600052602060002090601f016020900481019282601f106128c757805160ff19168380011785556128f5565b828001600101855582156128f5579182015b828111156128f45782518255916020019190600101906128d9565b5b5090506129029190612a10565b5090565b828054600181600116156101000203166002900490600052602060002090601f016020900481019282601f1061294757805160ff1916838001178555612975565b82800160010185558215612975579182015b82811115612974578251825591602001919060010190612959565b5b5090506129829190612a10565b5090565b60c0604051908101604052806000815260200160608152602001606081526020016000815260200160008152602001600060018111156129c257fe5b81525090565b50805460018160011615610100020316600290046000825580601f106129ee5750612a0d565b601f016020900490600052602060002090810190612a0c9190612a10565b5b50565b612a3291905b80821115612a2e576000816000905550600101612a16565b5090565b9056fea165627a7a7230582093eb89502b9cd1100e13b72b1fd8b0c0b9d1896dc1e95f9daf788da3d211aa770029",
  "source": "pragma solidity ^0.5.0;\n\ncontract Shop {\n  enum UserType { Guest, Admin, Owner }\n  enum State { Active, Deleted }\n\n  struct User {\n    string name;\n    UserType userType;\n  }\n\n  struct Store {\n    address ownerAddress;\n    uint storeNumber;\n    string name;\n    string city;\n    uint earnings;\n    State state;\n  }\n\n  struct Product {\n    uint productNumber;\n    string name;\n    string description;\n    uint price;\n    uint inventory;\n    State state;\n  }\n\n  // Contract owner state\n  uint private contractBalance;\n\n  // User state\n  mapping (address => User) public users;\n\n  // Store state\n  uint public storeNumber;\n  Store[] public stores;\n\n  // Product state\n  uint public productNumber;\n  mapping (uint => Product[]) public products;\n\n  modifier verifyAdmin(address userAddress) {\n    require(users[userAddress].userType == UserType.Admin, \"User must be an admin\");\n    _;\n  }\n\n  modifier verifyOwner(address ownerAddress) {\n    require(users[ownerAddress].userType == UserType.Owner, \"User must be an owner\");\n    _;\n  }\n\n  constructor() public {\n    // Initializing state\n    contractBalance = 0;\n    storeNumber = 0;\n    productNumber = 0;\n\n    // Add contract owner as an admin\n    users[msg.sender] = User({\n      name: \"Super Admin\",\n      userType: UserType.Admin\n    });\n  }\n\n  function addAdmin(address userAddress, string memory name) public\n  verifyAdmin(msg.sender) {\n    users[userAddress] = User({\n      name: name,\n      userType: UserType.Admin\n    });\n  }\n\n  function addOwner(address userAddress, string memory name) public\n  verifyAdmin(msg.sender) {\n    users[userAddress] = User({\n      name: name,\n      userType: UserType.Owner\n    });\n  }\n\n  function addStore(string memory name, string memory city) public\n  verifyOwner(msg.sender) {\n    storeNumber = storeNumber + 1;\n\n    stores.push(Store({\n      ownerAddress: msg.sender,\n      storeNumber: storeNumber,\n      name: name,\n      city: city,\n      earnings: 0,\n      state: State.Active\n    }));\n  }\n\n  function deleteStore(uint storeNumberGiven) public\n  verifyOwner(msg.sender) {\n    for (uint i = 0; i < stores.length; i++) {\n      if (stores[i].storeNumber == storeNumberGiven) {\n        delete stores[i];\n\n        stores[i].state = State.Deleted;\n      }\n    }\n\n    for (uint i = 0; i < products[storeNumberGiven].length; i++) {\n      delete products[storeNumberGiven][i];\n\n      products[storeNumberGiven][i].state = State.Deleted;\n    }\n  }\n\n  function saveStoreEdits(uint storeNumberGiven, string memory name, string memory city) public\n  verifyOwner(msg.sender) {\n    for (uint i = 0; i < stores.length; i++) {\n      if (stores[i].storeNumber == storeNumberGiven) {\n        stores[i].name = name;\n        stores[i].city = city;\n      }\n    }\n  }\n\n  function addProduct(uint storeNumberGiven, string memory name, string memory description, uint price, uint inventory) public\n  verifyOwner(msg.sender) {\n    productNumber = productNumber + 1;\n\n    products[storeNumberGiven].push(Product({\n      productNumber: productNumber,\n      name: name,\n      description: description,\n      price: price,\n      inventory: inventory,\n      state: State.Active\n    }));\n  }\n\n  function deleteProduct(uint storeNumberGiven, uint productNumberGiven) public\n  verifyOwner(msg.sender) {\n    for (uint i = 0; i < products[storeNumberGiven].length; i++) {\n      if (products[storeNumberGiven][i].productNumber == productNumberGiven) {\n        delete products[storeNumberGiven][i];\n\n        products[storeNumberGiven][i].state = State.Deleted;\n      }\n    }\n  }\n\n  function saveProductEdits(uint storeNumberGiven, uint productNumberGiven, string memory name, string memory description, uint price, uint inventory) public\n  verifyOwner(msg.sender) {\n    for (uint i = 0; i < products[storeNumberGiven].length; i++) {\n      if (products[storeNumberGiven][i].productNumber == productNumberGiven) {\n        products[storeNumberGiven][i].name = name;\n        products[storeNumberGiven][i].description = description;\n        products[storeNumberGiven][i].price = price;\n        products[storeNumberGiven][i].inventory = inventory;\n      }\n    }\n  }\n\n  function buyProduct(uint storeNumberGiven, uint productNumberGiven) public payable {\n    Product memory product;\n\n    for (uint i = 0; i < products[storeNumberGiven].length; i++) {\n      if (products[storeNumberGiven][i].productNumber == productNumberGiven) {\n        product = products[storeNumberGiven][i];\n\n        require(product.inventory >= 1, \"Store must have inventory of this product\");\n\n        products[storeNumberGiven][i].inventory = products[storeNumberGiven][i].inventory - 1;\n      }\n    }\n\n    require(product.price == msg.value, \"Product price and value sent must be equal\");\n\n    contractBalance += product.price;\n\n    for (uint i = 0; i < stores.length; i++) {\n      if (stores[i].storeNumber == storeNumberGiven) {\n        stores[i].earnings += product.price;\n      }\n    }\n  }\n\n  function withdrawEarnings(uint storeNumberGiven) public {\n    for (uint i = 0; i < stores.length; i++) {\n      if (stores[i].storeNumber == storeNumberGiven) {\n        require(contractBalance >= stores[i].earnings, \"Contract must have enough balance to process this withdrawal\");\n\n        msg.sender.transfer(stores[i].earnings);\n        stores[i].earnings = 0;\n      }\n    }\n  }\n\n  function getStoresLength() public view returns(uint) {\n    return stores.length;\n  }\n\n  function getProductsLength(uint storeNumberGiven) public view returns(uint) {\n    return products[storeNumberGiven].length;\n  }\n}\n",
  "sourcePath": "/Users/asood/Desktop/consensys/chain-shop-redux/contracts/Shop.sol",
  "compiler": {
    "name": "solc",
    "version": "0.5.0+commit.1d4f565a.Emscripten.clang"
  },
  "schemaVersion": "3.0.1",
  "updatedAt": "2019-01-15T18:30:06.814Z",
  "devdoc": {
    "methods": {}
  },
  "userdoc": {
    "methods": {}
  }
}