{
  "contractName": "Shop",
  "abi": [
    {
      "constant": true,
      "inputs": [],
      "name": "storeNumber",
      "outputs": [
        {
          "name": "",
          "type": "uint256"
        }
      ],
      "payable": false,
      "stateMutability": "view",
      "type": "function",
      "signature": "0x1cdb717f"
    },
    {
      "constant": true,
      "inputs": [],
      "name": "productNumber",
      "outputs": [
        {
          "name": "",
          "type": "uint256"
        }
      ],
      "payable": false,
      "stateMutability": "view",
      "type": "function",
      "signature": "0x5034735d"
    },
    {
      "constant": true,
      "inputs": [],
      "name": "emergencyStop",
      "outputs": [
        {
          "name": "",
          "type": "bool"
        }
      ],
      "payable": false,
      "stateMutability": "view",
      "type": "function",
      "signature": "0x63a599a4"
    },
    {
      "constant": true,
      "inputs": [
        {
          "name": "",
          "type": "uint256"
        },
        {
          "name": "",
          "type": "uint256"
        }
      ],
      "name": "products",
      "outputs": [
        {
          "name": "productNumber",
          "type": "uint256"
        },
        {
          "name": "name",
          "type": "string"
        },
        {
          "name": "description",
          "type": "string"
        },
        {
          "name": "price",
          "type": "uint256"
        },
        {
          "name": "inventory",
          "type": "uint256"
        },
        {
          "name": "state",
          "type": "uint8"
        }
      ],
      "payable": false,
      "stateMutability": "view",
      "type": "function",
      "signature": "0xa590fbdb"
    },
    {
      "constant": true,
      "inputs": [
        {
          "name": "",
          "type": "address"
        }
      ],
      "name": "users",
      "outputs": [
        {
          "name": "name",
          "type": "string"
        },
        {
          "name": "userType",
          "type": "uint8"
        }
      ],
      "payable": false,
      "stateMutability": "view",
      "type": "function",
      "signature": "0xa87430ba"
    },
    {
      "constant": true,
      "inputs": [],
      "name": "contractOwner",
      "outputs": [
        {
          "name": "",
          "type": "address"
        }
      ],
      "payable": false,
      "stateMutability": "view",
      "type": "function",
      "signature": "0xce606ee0"
    },
    {
      "constant": true,
      "inputs": [
        {
          "name": "",
          "type": "uint256"
        }
      ],
      "name": "stores",
      "outputs": [
        {
          "name": "ownerAddress",
          "type": "address"
        },
        {
          "name": "storeNumber",
          "type": "uint256"
        },
        {
          "name": "name",
          "type": "string"
        },
        {
          "name": "city",
          "type": "string"
        },
        {
          "name": "earnings",
          "type": "uint256"
        },
        {
          "name": "state",
          "type": "uint8"
        }
      ],
      "payable": false,
      "stateMutability": "view",
      "type": "function",
      "signature": "0xe8a59cd8"
    },
    {
      "inputs": [],
      "payable": false,
      "stateMutability": "nonpayable",
      "type": "constructor",
      "signature": "constructor"
    },
    {
      "constant": false,
      "inputs": [],
      "name": "toggleEmergencyStop",
      "outputs": [],
      "payable": false,
      "stateMutability": "nonpayable",
      "type": "function",
      "signature": "0x4b7aac94"
    },
    {
      "constant": false,
      "inputs": [
        {
          "name": "userAddress",
          "type": "address"
        },
        {
          "name": "name",
          "type": "string"
        }
      ],
      "name": "addAdmin",
      "outputs": [],
      "payable": false,
      "stateMutability": "nonpayable",
      "type": "function",
      "signature": "0xd16856ca"
    },
    {
      "constant": false,
      "inputs": [
        {
          "name": "userAddress",
          "type": "address"
        },
        {
          "name": "name",
          "type": "string"
        }
      ],
      "name": "addOwner",
      "outputs": [],
      "payable": false,
      "stateMutability": "nonpayable",
      "type": "function",
      "signature": "0x3542758f"
    },
    {
      "constant": false,
      "inputs": [
        {
          "name": "name",
          "type": "string"
        },
        {
          "name": "city",
          "type": "string"
        }
      ],
      "name": "addStore",
      "outputs": [],
      "payable": false,
      "stateMutability": "nonpayable",
      "type": "function",
      "signature": "0xed48719c"
    },
    {
      "constant": false,
      "inputs": [
        {
          "name": "storeNumberGiven",
          "type": "uint256"
        }
      ],
      "name": "deleteStore",
      "outputs": [],
      "payable": false,
      "stateMutability": "nonpayable",
      "type": "function",
      "signature": "0x7cc69325"
    },
    {
      "constant": false,
      "inputs": [
        {
          "name": "storeNumberGiven",
          "type": "uint256"
        },
        {
          "name": "name",
          "type": "string"
        },
        {
          "name": "city",
          "type": "string"
        }
      ],
      "name": "saveStoreEdits",
      "outputs": [],
      "payable": false,
      "stateMutability": "nonpayable",
      "type": "function",
      "signature": "0xbe1e5980"
    },
    {
      "constant": false,
      "inputs": [
        {
          "name": "storeNumberGiven",
          "type": "uint256"
        },
        {
          "name": "name",
          "type": "string"
        },
        {
          "name": "description",
          "type": "string"
        },
        {
          "name": "price",
          "type": "uint256"
        },
        {
          "name": "inventory",
          "type": "uint256"
        }
      ],
      "name": "addProduct",
      "outputs": [],
      "payable": false,
      "stateMutability": "nonpayable",
      "type": "function",
      "signature": "0x01db5b48"
    },
    {
      "constant": false,
      "inputs": [
        {
          "name": "storeNumberGiven",
          "type": "uint256"
        },
        {
          "name": "productNumberGiven",
          "type": "uint256"
        }
      ],
      "name": "deleteProduct",
      "outputs": [],
      "payable": false,
      "stateMutability": "nonpayable",
      "type": "function",
      "signature": "0xa1c48cc4"
    },
    {
      "constant": false,
      "inputs": [
        {
          "name": "storeNumberGiven",
          "type": "uint256"
        },
        {
          "name": "productNumberGiven",
          "type": "uint256"
        },
        {
          "name": "name",
          "type": "string"
        },
        {
          "name": "description",
          "type": "string"
        },
        {
          "name": "price",
          "type": "uint256"
        },
        {
          "name": "inventory",
          "type": "uint256"
        }
      ],
      "name": "saveProductEdits",
      "outputs": [],
      "payable": false,
      "stateMutability": "nonpayable",
      "type": "function",
      "signature": "0x0b158e8c"
    },
    {
      "constant": false,
      "inputs": [
        {
          "name": "storeNumberGiven",
          "type": "uint256"
        },
        {
          "name": "productNumberGiven",
          "type": "uint256"
        }
      ],
      "name": "buyProduct",
      "outputs": [],
      "payable": true,
      "stateMutability": "payable",
      "type": "function",
      "signature": "0x53b62866"
    },
    {
      "constant": false,
      "inputs": [
        {
          "name": "storeNumberGiven",
          "type": "uint256"
        }
      ],
      "name": "withdrawEarnings",
      "outputs": [],
      "payable": false,
      "stateMutability": "nonpayable",
      "type": "function",
      "signature": "0x6e70096e"
    },
    {
      "constant": true,
      "inputs": [],
      "name": "getStoresLength",
      "outputs": [
        {
          "name": "",
          "type": "uint256"
        }
      ],
      "payable": false,
      "stateMutability": "view",
      "type": "function",
      "signature": "0x86a9bd11"
    },
    {
      "constant": true,
      "inputs": [
        {
          "name": "storeNumberGiven",
          "type": "uint256"
        }
      ],
      "name": "getProductsLength",
      "outputs": [
        {
          "name": "",
          "type": "uint256"
        }
      ],
      "payable": false,
      "stateMutability": "view",
      "type": "function",
      "signature": "0x5412fc46"
    }
  ],
  "bytecode": "0x60806040523480156200001157600080fd5b50336000806101000a81548173ffffffffffffffffffffffffffffffffffffffff021916908373ffffffffffffffffffffffffffffffffffffffff16021790555060006001819055506000600260006101000a81548160ff0219169083151502179055506000600481905550600060068190555060408051908101604052806040805190810160405280600b81526020017f53757065722041646d696e000000000000000000000000000000000000000000815250815260200160016002811115620000d957fe5b815250600360003373ffffffffffffffffffffffffffffffffffffffff1673ffffffffffffffffffffffffffffffffffffffff1681526020019081526020016000206000820151816000019080519060200190620001399291906200016d565b5060208201518160010160006101000a81548160ff021916908360028111156200015f57fe5b02179055509050506200021c565b828054600181600116156101000203166002900490600052602060002090601f016020900481019282601f10620001b057805160ff1916838001178555620001e1565b82800160010185558215620001e1579182015b82811115620001e0578251825591602001919060010190620001c3565b5b509050620001f09190620001f4565b5090565b6200021991905b8082111562000215576000816000905550600101620001fb565b5090565b90565b61349d806200022c6000396000f3fe608060405260043610610112576000357c0100000000000000000000000000000000000000000000000000000000900463ffffffff16806301db5b48146101175780630b158e8c146102945780631cdb717f1461041b5780633542758f146104465780634b7aac941461052e5780635034735d1461054557806353b62866146105705780635412fc46146105a857806363a599a4146105f75780636e70096e146106265780637cc693251461066157806386a9bd111461069c578063a1c48cc4146106c7578063a590fbdb1461070c578063a87430ba14610860578063be1e59801461093f578063ce606ee014610aa8578063d16856ca14610aff578063e8a59cd814610be7578063ed48719c14610d5d575b600080fd5b34801561012357600080fd5b50610292600480360360a081101561013a57600080fd5b81019080803590602001909291908035906020019064010000000081111561016157600080fd5b82018360208201111561017357600080fd5b8035906020019184600183028401116401000000008311171561019557600080fd5b91908080601f016020809104026020016040519081016040528093929190818152602001838380828437600081840152601f19601f820116905080830192505050505050509192919290803590602001906401000000008111156101f857600080fd5b82018360208201111561020a57600080fd5b8035906020019184600183028401116401000000008311171561022c57600080fd5b91908080601f016020809104026020016040519081016040528093929190818152602001838380828437600081840152601f19601f8201169050808301925050505050505091929192908035906020019092919080359060200190929190505050610ebc565b005b3480156102a057600080fd5b50610419600480360360c08110156102b757600080fd5b810190808035906020019092919080359060200190929190803590602001906401000000008111156102e857600080fd5b8201836020820111156102fa57600080fd5b8035906020019184600183028401116401000000008311171561031c57600080fd5b91908080601f016020809104026020016040519081016040528093929190818152602001838380828437600081840152601f19601f8201169050808301925050505050505091929192908035906020019064010000000081111561037f57600080fd5b82018360208201111561039157600080fd5b803590602001918460018302840111640100000000831117156103b357600080fd5b91908080601f016020809104026020016040519081016040528093929190818152602001838380828437600081840152601f19601f8201169050808301925050505050505091929192908035906020019092919080359060200190929190505050611136565b005b34801561042757600080fd5b5061043061140b565b6040518082815260200191505060405180910390f35b34801561045257600080fd5b5061052c6004803603604081101561046957600080fd5b81019080803573ffffffffffffffffffffffffffffffffffffffff169060200190929190803590602001906401000000008111156104a657600080fd5b8201836020820111156104b857600080fd5b803590602001918460018302840111640100000000831117156104da57600080fd5b91908080601f016020809104026020016040519081016040528093929190818152602001838380828437600081840152601f19601f820116905080830192505050505050509192919290505050611411565b005b34801561053a57600080fd5b50610543611627565b005b34801561055157600080fd5b5061055a6116dc565b6040518082815260200191505060405180910390f35b6105a66004803603604081101561058657600080fd5b8101908080359060200190929190803590602001909291905050506116e2565b005b3480156105b457600080fd5b506105e1600480360360208110156105cb57600080fd5b8101908080359060200190929190505050611c18565b6040518082815260200191505060405180910390f35b34801561060357600080fd5b5061060c611cc2565b604051808215151515815260200191505060405180910390f35b34801561063257600080fd5b5061065f6004803603602081101561064957600080fd5b8101908080359060200190929190505050611cd5565b005b34801561066d57600080fd5b5061069a6004803603602081101561068457600080fd5b810190808035906020019092919050505061209c565b005b3480156106a857600080fd5b506106b1612421565b6040518082815260200191505060405180910390f35b3480156106d357600080fd5b5061070a600480360360408110156106ea57600080fd5b8101908080359060200190929190803590602001909291905050506124b8565b005b34801561071857600080fd5b5061074f6004803603604081101561072f57600080fd5b810190808035906020019092919080359060200190929190505050612761565b60405180878152602001806020018060200186815260200185815260200184600181111561077957fe5b60ff168152602001838103835288818151815260200191508051906020019080838360005b838110156107b957808201518184015260208101905061079e565b50505050905090810190601f1680156107e65780820380516001836020036101000a031916815260200191505b50838103825287818151815260200191508051906020019080838360005b8381101561081f578082015181840152602081019050610804565b50505050905090810190601f16801561084c5780820380516001836020036101000a031916815260200191505b509850505050505050505060405180910390f35b34801561086c57600080fd5b506108af6004803603602081101561088357600080fd5b81019080803573ffffffffffffffffffffffffffffffffffffffff1690602001909291905050506128f6565b60405180806020018360028111156108c357fe5b60ff168152602001828103825284818151815260200191508051906020019080838360005b838110156109035780820151818401526020810190506108e8565b50505050905090810190601f1680156109305780820380516001836020036101000a031916815260200191505b50935050505060405180910390f35b34801561094b57600080fd5b50610aa66004803603606081101561096257600080fd5b81019080803590602001909291908035906020019064010000000081111561098957600080fd5b82018360208201111561099b57600080fd5b803590602001918460018302840111640100000000831117156109bd57600080fd5b91908080601f016020809104026020016040519081016040528093929190818152602001838380828437600081840152601f19601f82011690508083019250505050505050919291929080359060200190640100000000811115610a2057600080fd5b820183602082011115610a3257600080fd5b80359060200191846001830284011164010000000083111715610a5457600080fd5b91908080601f016020809104026020016040519081016040528093929190818152602001838380828437600081840152601f19601f8201169050808301925050505050505091929192905050506129bf565b005b348015610ab457600080fd5b50610abd612be1565b604051808273ffffffffffffffffffffffffffffffffffffffff1673ffffffffffffffffffffffffffffffffffffffff16815260200191505060405180910390f35b348015610b0b57600080fd5b50610be560048036036040811015610b2257600080fd5b81019080803573ffffffffffffffffffffffffffffffffffffffff16906020019092919080359060200190640100000000811115610b5f57600080fd5b820183602082011115610b7157600080fd5b80359060200191846001830284011164010000000083111715610b9357600080fd5b91908080601f016020809104026020016040519081016040528093929190818152602001838380828437600081840152601f19601f820116905080830192505050505050509192919290505050612c06565b005b348015610bf357600080fd5b50610c2060048036036020811015610c0a57600080fd5b8101908080359060200190929190505050612e1d565b604051808773ffffffffffffffffffffffffffffffffffffffff1673ffffffffffffffffffffffffffffffffffffffff1681526020018681526020018060200180602001858152602001846001811115610c7657fe5b60ff168152602001838103835287818151815260200191508051906020019080838360005b83811015610cb6578082015181840152602081019050610c9b565b50505050905090810190601f168015610ce35780820380516001836020036101000a031916815260200191505b50838103825286818151815260200191508051906020019080838360005b83811015610d1c578082015181840152602081019050610d01565b50505050905090810190601f168015610d495780820380516001836020036101000a031916815260200191505b509850505050505050505060405180910390f35b348015610d6957600080fd5b50610eba60048036036040811015610d8057600080fd5b8101908080359060200190640100000000811115610d9d57600080fd5b820183602082011115610daf57600080fd5b80359060200191846001830284011164010000000083111715610dd157600080fd5b91908080601f016020809104026020016040519081016040528093929190818152602001838380828437600081840152601f19601f82011690508083019250505050505050919291929080359060200190640100000000811115610e3457600080fd5b820183602082011115610e4657600080fd5b80359060200191846001830284011164010000000083111715610e6857600080fd5b91908080601f016020809104026020016040519081016040528093929190818152602001838380828437600081840152601f19601f820116905080830192505050505050509192919290505050612fc5565b005b60001515600260009054906101000a900460ff161515141515610f47576040517f08c379a000000000000000000000000000000000000000000000000000000000815260040180806020018281038252601d8152602001807f436f6e747261637420697320696e20656d657267656e6379206d6f646500000081525060200191505060405180910390fd5b33600280811115610f5457fe5b600360008373ffffffffffffffffffffffffffffffffffffffff1673ffffffffffffffffffffffffffffffffffffffff16815260200190815260200160002060010160009054906101000a900460ff166002811115610faf57fe5b141515611024576040517f08c379a00000000000000000000000000000000000000000000000000000000081526004018080602001828103825260158152602001807f55736572206d75737420626520616e206f776e6572000000000000000000000081525060200191505060405180910390fd5b6001600654016006819055506007600087815260200190815260200160002060c06040519081016040528060065481526020018781526020018681526020018581526020018481526020016000600181111561107c57fe5b815250908060018154018082558091505090600182039060005260206000209060060201600090919290919091506000820151816000015560208201518160010190805190602001906110d09291906132c2565b5060408201518160020190805190602001906110ed9291906132c2565b50606082015181600301556080820151816004015560a08201518160050160006101000a81548160ff0219169083600181111561112657fe5b0217905550505050505050505050565b60001515600260009054906101000a900460ff1615151415156111c1576040517f08c379a000000000000000000000000000000000000000000000000000000000815260040180806020018281038252601d8152602001807f436f6e747261637420697320696e20656d657267656e6379206d6f646500000081525060200191505060405180910390fd5b336002808111156111ce57fe5b600360008373ffffffffffffffffffffffffffffffffffffffff1673ffffffffffffffffffffffffffffffffffffffff16815260200190815260200160002060010160009054906101000a900460ff16600281111561122957fe5b14151561129e576040517f08c379a00000000000000000000000000000000000000000000000000000000081526004018080602001828103825260158152602001807f55736572206d75737420626520616e206f776e6572000000000000000000000081525060200191505060405180910390fd5b60008090505b60076000898152602001908152602001600020805490508110156114015786600760008a8152602001908152602001600020828154811015156112e357fe5b90600052602060002090600602016000015414156113f45785600760008a81526020019081526020016000208281548110151561131c57fe5b90600052602060002090600602016001019080519060200190611340929190613342565b5084600760008a81526020019081526020016000208281548110151561136257fe5b90600052602060002090600602016002019080519060200190611386929190613342565b5083600760008a8152602001908152602001600020828154811015156113a857fe5b90600052602060002090600602016003018190555082600760008a8152602001908152602001600020828154811015156113de57fe5b9060005260206000209060060201600401819055505b80806001019150506112a4565b5050505050505050565b60045481565b60001515600260009054906101000a900460ff16151514151561149c576040517f08c379a000000000000000000000000000000000000000000000000000000000815260040180806020018281038252601d8152602001807f436f6e747261637420697320696e20656d657267656e6379206d6f646500000081525060200191505060405180910390fd5b33600160028111156114aa57fe5b600360008373ffffffffffffffffffffffffffffffffffffffff1673ffffffffffffffffffffffffffffffffffffffff16815260200190815260200160002060010160009054906101000a900460ff16600281111561150557fe5b14151561157a576040517f08c379a00000000000000000000000000000000000000000000000000000000081526004018080602001828103825260158152602001807f55736572206d75737420626520616e2061646d696e000000000000000000000081525060200191505060405180910390fd5b604080519081016040528083815260200160028081111561159757fe5b815250600360008573ffffffffffffffffffffffffffffffffffffffff1673ffffffffffffffffffffffffffffffffffffffff16815260200190815260200160002060008201518160000190805190602001906115f59291906132c2565b5060208201518160010160006101000a81548160ff0219169083600281111561161a57fe5b0217905550905050505050565b6000809054906101000a900473ffffffffffffffffffffffffffffffffffffffff1673ffffffffffffffffffffffffffffffffffffffff163373ffffffffffffffffffffffffffffffffffffffff1614151561168257600080fd5b60001515600260009054906101000a900460ff16151514156116be576001600260006101000a81548160ff0219169083151502179055506116da565b6000600260006101000a81548160ff0219169083151502179055505b565b60065481565b60001515600260009054906101000a900460ff16151514151561176d576040517f08c379a000000000000000000000000000000000000000000000000000000000815260040180806020018281038252601d8152602001807f436f6e747261637420697320696e20656d657267656e6379206d6f646500000081525060200191505060405180910390fd5b6117756133c2565b60008090505b6007600085815260200190815260200160002080549050811015611abf578260076000868152602001908152602001600020828154811015156117ba57fe5b9060005260206000209060060201600001541415611ab25760076000858152602001908152602001600020818154811015156117f257fe5b906000526020600020906006020160c0604051908101604052908160008201548152602001600182018054600181600116156101000203166002900480601f0160208091040260200160405190810160405280929190818152602001828054600181600116156101000203166002900480156118af5780601f10611884576101008083540402835291602001916118af565b820191906000526020600020905b81548152906001019060200180831161189257829003601f168201915b50505050508152602001600282018054600181600116156101000203166002900480601f0160208091040260200160405190810160405280929190818152602001828054600181600116156101000203166002900480156119515780601f1061192657610100808354040283529160200191611951565b820191906000526020600020905b81548152906001019060200180831161193457829003601f168201915b5050505050815260200160038201548152602001600482015481526020016005820160009054906101000a900460ff16600181111561198c57fe5b600181111561199757fe5b8152505091506001826080015110151515611a40576040517f08c379a00000000000000000000000000000000000000000000000000000000081526004018080602001828103825260298152602001807f53746f7265206d757374206861766520696e76656e746f7279206f662074686981526020017f732070726f64756374000000000000000000000000000000000000000000000081525060400191505060405180910390fd5b611a7c6007600086815260200190815260200160002082815481101515611a6357fe5b906000526020600020906006020160040154600161327f565b6007600086815260200190815260200160002082815481101515611a9c57fe5b9060005260206000209060060201600401819055505b808060010191505061177b565b50348160600151141515611b61576040517f08c379a000000000000000000000000000000000000000000000000000000000815260040180806020018281038252602a8152602001807f50726f6475637420707269636520616e642076616c75652073656e74206d757381526020017f7420626520657175616c0000000000000000000000000000000000000000000081525060400191505060405180910390fd5b611b7160015482606001516132a1565b60018190555060008090505b600580549050811015611c125783600582815481101515611b9a57fe5b9060005260206000209060060201600101541415611c0557611be0600582815481101515611bc457fe5b90600052602060002090600602016004015483606001516132a1565b600582815481101515611bef57fe5b9060005260206000209060060201600401819055505b8080600101915050611b7d565b50505050565b6000801515600260009054906101000a900460ff161515141515611ca4576040517f08c379a000000000000000000000000000000000000000000000000000000000815260040180806020018281038252601d8152602001807f436f6e747261637420697320696e20656d657267656e6379206d6f646500000081525060200191505060405180910390fd5b60076000838152602001908152602001600020805490509050919050565b600260009054906101000a900460ff1681565b60001515600260009054906101000a900460ff161515141515611d60576040517f08c379a000000000000000000000000000000000000000000000000000000000815260040180806020018281038252601d8152602001807f436f6e747261637420697320696e20656d657267656e6379206d6f646500000081525060200191505060405180910390fd5b33600280811115611d6d57fe5b600360008373ffffffffffffffffffffffffffffffffffffffff1673ffffffffffffffffffffffffffffffffffffffff16815260200190815260200160002060010160009054906101000a900460ff166002811115611dc857fe5b141515611e3d576040517f08c379a00000000000000000000000000000000000000000000000000000000081526004018080602001828103825260158152602001807f55736572206d75737420626520616e206f776e6572000000000000000000000081525060200191505060405180910390fd5b60008090505b6005805490508110156120975782600582815481101515611e6057fe5b906000526020600020906006020160010154141561208a57600581815481101515611e8757fe5b90600052602060002090600602016004015460015410151515611f38576040517f08c379a000000000000000000000000000000000000000000000000000000000815260040180806020018281038252603c8152602001807f436f6e7472616374206d757374206861766520656e6f7567682062616c616e6381526020017f6520746f2070726f636573732074686973207769746864726177616c0000000081525060400191505060405180910390fd5b6000600582815481101515611f4957fe5b906000526020600020906006020160040154111515611ff6576040517f08c379a00000000000000000000000000000000000000000000000000000000081526004018080602001828103825260218152602001807f53746f7265206d757374206861766520706f736974697665206561726e696e6781526020017f730000000000000000000000000000000000000000000000000000000000000081525060400191505060405180910390fd5b600060058281548110151561200757fe5b9060005260206000209060060201600401549050600060058381548110151561202c57fe5b9060005260206000209060060201600401819055503373ffffffffffffffffffffffffffffffffffffffff166108fc829081150290604051600060405180830381858888f19350505050158015612087573d6000803e3d6000fd5b50505b8080600101915050611e43565b505050565b60001515600260009054906101000a900460ff161515141515612127576040517f08c379a000000000000000000000000000000000000000000000000000000000815260040180806020018281038252601d8152602001807f436f6e747261637420697320696e20656d657267656e6379206d6f646500000081525060200191505060405180910390fd5b3360028081111561213457fe5b600360008373ffffffffffffffffffffffffffffffffffffffff1673ffffffffffffffffffffffffffffffffffffffff16815260200190815260200160002060010160009054906101000a900460ff16600281111561218f57fe5b141515612204576040517f08c379a00000000000000000000000000000000000000000000000000000000081526004018080602001828103825260158152602001807f55736572206d75737420626520616e206f776e6572000000000000000000000081525060200191505060405180910390fd5b60008090505b60058054905081101561231a578260058281548110151561222757fe5b906000526020600020906006020160010154141561230d5760058181548110151561224e57fe5b9060005260206000209060060201600080820160006101000a81549073ffffffffffffffffffffffffffffffffffffffff0219169055600182016000905560028201600061229c9190613404565b6003820160006122ac9190613404565b60048201600090556005820160006101000a81549060ff0219169055505060016005828154811015156122db57fe5b906000526020600020906006020160050160006101000a81548160ff0219169083600181111561230757fe5b02179055505b808060010191505061220a565b5060008090505b600760008481526020019081526020016000208054905081101561241c57600760008481526020019081526020016000208181548110151561235f57fe5b90600052602060002090600602016000808201600090556001820160006123869190613404565b6002820160006123969190613404565b600382016000905560048201600090556005820160006101000a81549060ff02191690555050600160076000858152602001908152602001600020828154811015156123de57fe5b906000526020600020906006020160050160006101000a81548160ff0219169083600181111561240a57fe5b02179055508080600101915050612321565b505050565b6000801515600260009054906101000a900460ff1615151415156124ad576040517f08c379a000000000000000000000000000000000000000000000000000000000815260040180806020018281038252601d8152602001807f436f6e747261637420697320696e20656d657267656e6379206d6f646500000081525060200191505060405180910390fd5b600580549050905090565b60001515600260009054906101000a900460ff161515141515612543576040517f08c379a000000000000000000000000000000000000000000000000000000000815260040180806020018281038252601d8152602001807f436f6e747261637420697320696e20656d657267656e6379206d6f646500000081525060200191505060405180910390fd5b3360028081111561255057fe5b600360008373ffffffffffffffffffffffffffffffffffffffff1673ffffffffffffffffffffffffffffffffffffffff16815260200190815260200160002060010160009054906101000a900460ff1660028111156125ab57fe5b141515612620576040517f08c379a00000000000000000000000000000000000000000000000000000000081526004018080602001828103825260158152602001807f55736572206d75737420626520616e206f776e6572000000000000000000000081525060200191505060405180910390fd5b60008090505b600760008581526020019081526020016000208054905081101561275b5782600760008681526020019081526020016000208281548110151561266557fe5b906000526020600020906006020160000154141561274e57600760008581526020019081526020016000208181548110151561269d57fe5b90600052602060002090600602016000808201600090556001820160006126c49190613404565b6002820160006126d49190613404565b600382016000905560048201600090556005820160006101000a81549060ff021916905550506001600760008681526020019081526020016000208281548110151561271c57fe5b906000526020600020906006020160050160006101000a81548160ff0219169083600181111561274857fe5b02179055505b8080600101915050612626565b50505050565b60076020528160005260406000208181548110151561277c57fe5b906000526020600020906006020160009150915050806000015490806001018054600181600116156101000203166002900480601f01602080910402602001604051908101604052809291908181526020018280546001816001161561010002031660029004801561282f5780601f106128045761010080835404028352916020019161282f565b820191906000526020600020905b81548152906001019060200180831161281257829003601f168201915b505050505090806002018054600181600116156101000203166002900480601f0160208091040260200160405190810160405280929190818152602001828054600181600116156101000203166002900480156128cd5780601f106128a2576101008083540402835291602001916128cd565b820191906000526020600020905b8154815290600101906020018083116128b057829003601f168201915b5050505050908060030154908060040154908060050160009054906101000a900460ff16905086565b6003602052806000526040600020600091509050806000018054600181600116156101000203166002900480601f0160208091040260200160405190810160405280929190818152602001828054600181600116156101000203166002900480156129a25780601f10612977576101008083540402835291602001916129a2565b820191906000526020600020905b81548152906001019060200180831161298557829003601f168201915b5050505050908060010160009054906101000a900460ff16905082565b60001515600260009054906101000a900460ff161515141515612a4a576040517f08c379a000000000000000000000000000000000000000000000000000000000815260040180806020018281038252601d8152602001807f436f6e747261637420697320696e20656d657267656e6379206d6f646500000081525060200191505060405180910390fd5b33600280811115612a5757fe5b600360008373ffffffffffffffffffffffffffffffffffffffff1673ffffffffffffffffffffffffffffffffffffffff16815260200190815260200160002060010160009054906101000a900460ff166002811115612ab257fe5b141515612b27576040517f08c379a00000000000000000000000000000000000000000000000000000000081526004018080602001828103825260158152602001807f55736572206d75737420626520616e206f776e6572000000000000000000000081525060200191505060405180910390fd5b60008090505b600580549050811015612bda5784600582815481101515612b4a57fe5b9060005260206000209060060201600101541415612bcd5783600582815481101515612b7257fe5b90600052602060002090600602016002019080519060200190612b96929190613342565b5082600582815481101515612ba757fe5b90600052602060002090600602016003019080519060200190612bcb929190613342565b505b8080600101915050612b2d565b5050505050565b6000809054906101000a900473ffffffffffffffffffffffffffffffffffffffff1681565b60001515600260009054906101000a900460ff161515141515612c91576040517f08c379a000000000000000000000000000000000000000000000000000000000815260040180806020018281038252601d8152602001807f436f6e747261637420697320696e20656d657267656e6379206d6f646500000081525060200191505060405180910390fd5b3360016002811115612c9f57fe5b600360008373ffffffffffffffffffffffffffffffffffffffff1673ffffffffffffffffffffffffffffffffffffffff16815260200190815260200160002060010160009054906101000a900460ff166002811115612cfa57fe5b141515612d6f576040517f08c379a00000000000000000000000000000000000000000000000000000000081526004018080602001828103825260158152602001807f55736572206d75737420626520616e2061646d696e000000000000000000000081525060200191505060405180910390fd5b604080519081016040528083815260200160016002811115612d8d57fe5b815250600360008573ffffffffffffffffffffffffffffffffffffffff1673ffffffffffffffffffffffffffffffffffffffff1681526020019081526020016000206000820151816000019080519060200190612deb9291906132c2565b5060208201518160010160006101000a81548160ff02191690836002811115612e1057fe5b0217905550905050505050565b600581815481101515612e2c57fe5b90600052602060002090600602016000915090508060000160009054906101000a900473ffffffffffffffffffffffffffffffffffffffff1690806001015490806002018054600181600116156101000203166002900480601f016020809104026020016040519081016040528092919081815260200182805460018160011615610100020316600290048015612f045780601f10612ed957610100808354040283529160200191612f04565b820191906000526020600020905b815481529060010190602001808311612ee757829003601f168201915b505050505090806003018054600181600116156101000203166002900480601f016020809104026020016040519081016040528092919081815260200182805460018160011615610100020316600290048015612fa25780601f10612f7757610100808354040283529160200191612fa2565b820191906000526020600020905b815481529060010190602001808311612f8557829003601f168201915b5050505050908060040154908060050160009054906101000a900460ff16905086565b60001515600260009054906101000a900460ff161515141515613050576040517f08c379a000000000000000000000000000000000000000000000000000000000815260040180806020018281038252601d8152602001807f436f6e747261637420697320696e20656d657267656e6379206d6f646500000081525060200191505060405180910390fd5b3360028081111561305d57fe5b600360008373ffffffffffffffffffffffffffffffffffffffff1673ffffffffffffffffffffffffffffffffffffffff16815260200190815260200160002060010160009054906101000a900460ff1660028111156130b857fe5b14151561312d576040517f08c379a00000000000000000000000000000000000000000000000000000000081526004018080602001828103825260158152602001807f55736572206d75737420626520616e206f776e6572000000000000000000000081525060200191505060405180910390fd5b600160045401600481905550600560c0604051908101604052803373ffffffffffffffffffffffffffffffffffffffff1681526020016004548152602001858152602001848152602001600081526020016000600181111561318b57fe5b8152509080600181540180825580915050906001820390600052602060002090600602016000909192909190915060008201518160000160006101000a81548173ffffffffffffffffffffffffffffffffffffffff021916908373ffffffffffffffffffffffffffffffffffffffff1602179055506020820151816001015560408201518160020190805190602001906132269291906132c2565b5060608201518160030190805190602001906132439291906132c2565b506080820151816004015560a08201518160050160006101000a81548160ff0219169083600181111561327257fe5b0217905550505050505050565b600082821115151561329057600080fd5b600082840390508091505092915050565b60008082840190508381101515156132b857600080fd5b8091505092915050565b828054600181600116156101000203166002900490600052602060002090601f016020900481019282601f1061330357805160ff1916838001178555613331565b82800160010185558215613331579182015b82811115613330578251825591602001919060010190613315565b5b50905061333e919061344c565b5090565b828054600181600116156101000203166002900490600052602060002090601f016020900481019282601f1061338357805160ff19168380011785556133b1565b828001600101855582156133b1579182015b828111156133b0578251825591602001919060010190613395565b5b5090506133be919061344c565b5090565b60c0604051908101604052806000815260200160608152602001606081526020016000815260200160008152602001600060018111156133fe57fe5b81525090565b50805460018160011615610100020316600290046000825580601f1061342a5750613449565b601f016020900490600052602060002090810190613448919061344c565b5b50565b61346e91905b8082111561346a576000816000905550600101613452565b5090565b9056fea165627a7a723058201084bf8fb64d3d6b62e70ca6a475b44aa6a866dcc50e5f6959e2e7e46cb496790029",
  "source": "pragma solidity ^0.5.0;\n\nimport \"../libraries/SafeMath.sol\";\n\ncontract Shop {\n  using SafeMath for uint256;\n\n  enum UserType { Guest, Admin, Owner }\n  enum State { Active, Deleted }\n\n  struct User {\n    string name;\n    UserType userType;\n  }\n\n  struct Store {\n    address ownerAddress;\n    uint256 storeNumber;\n    string name;\n    string city;\n    uint256 earnings;\n    State state;\n  }\n\n  struct Product {\n    uint256 productNumber;\n    string name;\n    string description;\n    uint256 price;\n    uint256 inventory;\n    State state;\n  }\n\n  // Contract owner state\n  address public contractOwner;\n  uint256 private contractBalance;\n  bool public emergencyStop;\n\n  // User state\n  mapping (address => User) public users;\n\n  // Store state\n  uint256 public storeNumber;\n  Store[] public stores;\n\n  // Product state\n  uint256 public productNumber;\n  mapping (uint256 => Product[]) public products;\n\n  modifier verifyAdmin(address userAddress) {\n    require(users[userAddress].userType == UserType.Admin, \"User must be an admin\");\n    _;\n  }\n\n  modifier verifyOwner(address ownerAddress) {\n    require(users[ownerAddress].userType == UserType.Owner, \"User must be an owner\");\n    _;\n  }\n\n  modifier ensureNoEmergency() {\n    require(emergencyStop == false, \"Contract is in emergency mode\");\n    _;\n  }\n\n  constructor() public {\n    // Initializing state\n    contractOwner = msg.sender;\n    contractBalance = 0;\n    emergencyStop = false;\n    storeNumber = 0;\n    productNumber = 0;\n\n    // Add contract owner as an admin\n    users[msg.sender] = User({\n      name: \"Super Admin\",\n      userType: UserType.Admin\n    });\n  }\n\n  /*\n  @dev Toggles the emergency stop boolean\n  */\n  function toggleEmergencyStop() public {\n    require(msg.sender == contractOwner);\n\n    if (emergencyStop == false) {\n      emergencyStop = true;\n    } else {\n      emergencyStop = false;\n    }\n  }\n\n  /*\n  @dev Adds an admin tied to a user's address\n  @param userAddress Address of user to add as admin\n  @param name Name of admin user\n  */\n  function addAdmin(address userAddress, string memory name) public\n  ensureNoEmergency()\n  verifyAdmin(msg.sender) {\n    users[userAddress] = User({\n      name: name,\n      userType: UserType.Admin\n    });\n  }\n\n  /*\n  @dev Adds an owner tied to a user's address\n  @param userAddress Address of user to add as owner\n  @param name Name of owner user\n  */\n  function addOwner(address userAddress, string memory name) public\n  ensureNoEmergency()\n  verifyAdmin(msg.sender) {\n    users[userAddress] = User({\n      name: name,\n      userType: UserType.Owner\n    });\n  }\n\n  /*\n  @dev Adds a store tied to a specific owner\n  @param name Name of the store\n  @param city City of the store\n  */\n  function addStore(string memory name, string memory city) public\n  ensureNoEmergency()\n  verifyOwner(msg.sender) {\n    storeNumber = storeNumber + 1;\n\n    stores.push(Store({\n      ownerAddress: msg.sender,\n      storeNumber: storeNumber,\n      name: name,\n      city: city,\n      earnings: 0,\n      state: State.Active\n    }));\n  }\n\n  /*\n  @dev Deletes a store by its number assigned upon creation\n  @param storeNumberGiven Store number provided\n  */\n  function deleteStore(uint256 storeNumberGiven) public\n  ensureNoEmergency()\n  verifyOwner(msg.sender) {\n    for (uint256 i = 0; i < stores.length; i++) {\n      if (stores[i].storeNumber == storeNumberGiven) {\n        delete stores[i];\n\n        stores[i].state = State.Deleted;\n      }\n    }\n\n    for (uint256 i = 0; i < products[storeNumberGiven].length; i++) {\n      delete products[storeNumberGiven][i];\n\n      products[storeNumberGiven][i].state = State.Deleted;\n    }\n  }\n\n  /*\n  @dev Saves the edits to a specific store using its store number\n  @param storeNumberGiven Number of the store that was assigned on creation\n  @param name Name of the store to edit\n  @param city City of the store to edit\n  */\n  function saveStoreEdits(uint256 storeNumberGiven, string memory name, string memory city) public\n  ensureNoEmergency()\n  verifyOwner(msg.sender) {\n    for (uint256 i = 0; i < stores.length; i++) {\n      if (stores[i].storeNumber == storeNumberGiven) {\n        stores[i].name = name;\n        stores[i].city = city;\n      }\n    }\n  }\n\n  /*\n  @dev Adds a product to an existing store\n  @param storeNumberGiven Number of store to add a product to\n  @param name Name of the new product\n  @param description Description of the new product\n  @param price Price of the new product in Wei\n  @param inventory Inventory number of the product\n  */\n  function addProduct(uint256 storeNumberGiven, string memory name, string memory description, uint256 price, uint256 inventory) public\n  ensureNoEmergency()\n  verifyOwner(msg.sender) {\n    productNumber = productNumber + 1;\n\n    products[storeNumberGiven].push(Product({\n      productNumber: productNumber,\n      name: name,\n      description: description,\n      price: price,\n      inventory: inventory,\n      state: State.Active\n    }));\n  }\n\n  /*\n  @dev Deletes a specific product via its associated store number and product number assined\n  @param storeNumberGiven Number of store that the product is tied to\n  @param productNumberGiven Product number assigned during creation\n  */\n  function deleteProduct(uint256 storeNumberGiven, uint256 productNumberGiven) public\n  ensureNoEmergency()\n  verifyOwner(msg.sender) {\n    for (uint256 i = 0; i < products[storeNumberGiven].length; i++) {\n      if (products[storeNumberGiven][i].productNumber == productNumberGiven) {\n        delete products[storeNumberGiven][i];\n\n        products[storeNumberGiven][i].state = State.Deleted;\n      }\n    }\n  }\n\n  /*\n  @dev Saves edits to a specific product\n  @param storeNumberGiven Store number that the product is tied to\n  @param productNumberGiven Product number assigned to specific product\n  @param name Edited name of product\n  @param description Edited description of product\n  @param price Edited price of the product\n  @param inventory Edited inventory of product\n  */\n  function saveProductEdits(uint256 storeNumberGiven, uint256 productNumberGiven, string memory name, string memory description, uint256 price, uint256 inventory) public\n  ensureNoEmergency()\n  verifyOwner(msg.sender) {\n    for (uint256 i = 0; i < products[storeNumberGiven].length; i++) {\n      if (products[storeNumberGiven][i].productNumber == productNumberGiven) {\n        products[storeNumberGiven][i].name = name;\n        products[storeNumberGiven][i].description = description;\n        products[storeNumberGiven][i].price = price;\n        products[storeNumberGiven][i].inventory = inventory;\n      }\n    }\n  }\n\n  /*\n  @dev Allows a guest user to buy a specific product with Ether\n  @param storeNumberGiven Store number that product is associated with\n  @param productNumberGiven Specific number of product to be purchased\n  */\n  function buyProduct(uint256 storeNumberGiven, uint256 productNumberGiven) public payable\n  ensureNoEmergency() {\n    Product memory product;\n\n    for (uint256 i = 0; i < products[storeNumberGiven].length; i++) {\n      if (products[storeNumberGiven][i].productNumber == productNumberGiven) {\n        product = products[storeNumberGiven][i];\n\n        require(product.inventory >= 1, \"Store must have inventory of this product\");\n\n        products[storeNumberGiven][i].inventory = SafeMath.sub(products[storeNumberGiven][i].inventory, 1);\n      }\n    }\n\n    require(product.price == msg.value, \"Product price and value sent must be equal\");\n\n    contractBalance = SafeMath.add(contractBalance, product.price);\n\n    for (uint256 i = 0; i < stores.length; i++) {\n      if (stores[i].storeNumber == storeNumberGiven) {\n        stores[i].earnings = SafeMath.add(stores[i].earnings, product.price);\n      }\n    }\n  }\n\n  /*\n  @dev Allows owner user to withdraw earnings for a specific store\n  @param storeNumberGiven Store number for store to withdraw funds from\n  */\n  function withdrawEarnings(uint256 storeNumberGiven) public\n  ensureNoEmergency()\n  verifyOwner(msg.sender) {\n    for (uint256 i = 0; i < stores.length; i++) {\n      if (stores[i].storeNumber == storeNumberGiven) {\n        require(contractBalance >= stores[i].earnings, \"Contract must have enough balance to process this withdrawal\");\n        require(stores[i].earnings > 0, \"Store must have positive earnings\");\n\n        uint256 amountToWithdraw = stores[i].earnings;\n\n        stores[i].earnings = 0;\n\n        msg.sender.transfer(amountToWithdraw);\n      }\n    }\n  }\n\n  /*\n  @dev Returns the length of stores array\n  @return The length of the stores array\n  */\n  function getStoresLength() public view\n  ensureNoEmergency()\n  returns(uint256) {\n    return stores.length;\n  }\n\n  /*\n  @dev Returns the length of the products array for a specific store\n  @param storeNumberGiven Specific store number\n  @return Length of products array associated with specific store\n  */\n  function getProductsLength(uint256 storeNumberGiven) public view\n  ensureNoEmergency()\n  returns(uint256) {\n    return products[storeNumberGiven].length;\n  }\n}\n",
  "sourcePath": "/Users/asood/Desktop/consensys/chain-shop-redux/contracts/Shop.sol",
  "compiler": {
    "name": "solc",
    "version": "0.5.0+commit.1d4f565a.Emscripten.clang"
  },
  "schemaVersion": "3.0.1",
  "updatedAt": "2019-01-15T23:10:19.986Z",
  "devdoc": {
    "methods": {}
  },
  "userdoc": {
    "methods": {}
  }
}