{
  "contractName": "Shop",
  "abi": [
    {
      "constant": true,
      "inputs": [],
      "name": "storeNumber",
      "outputs": [
        {
          "name": "",
          "type": "uint256"
        }
      ],
      "payable": false,
      "stateMutability": "view",
      "type": "function",
      "signature": "0x1cdb717f"
    },
    {
      "constant": true,
      "inputs": [
        {
          "name": "",
          "type": "uint256"
        },
        {
          "name": "",
          "type": "uint256"
        }
      ],
      "name": "products",
      "outputs": [
        {
          "name": "name",
          "type": "string"
        },
        {
          "name": "description",
          "type": "string"
        },
        {
          "name": "price",
          "type": "uint256"
        },
        {
          "name": "inventory",
          "type": "uint256"
        }
      ],
      "payable": false,
      "stateMutability": "view",
      "type": "function",
      "signature": "0xa590fbdb"
    },
    {
      "constant": true,
      "inputs": [
        {
          "name": "",
          "type": "address"
        }
      ],
      "name": "users",
      "outputs": [
        {
          "name": "name",
          "type": "string"
        },
        {
          "name": "userType",
          "type": "uint8"
        }
      ],
      "payable": false,
      "stateMutability": "view",
      "type": "function",
      "signature": "0xa87430ba"
    },
    {
      "constant": true,
      "inputs": [],
      "name": "contractOwner",
      "outputs": [
        {
          "name": "",
          "type": "address"
        }
      ],
      "payable": false,
      "stateMutability": "view",
      "type": "function",
      "signature": "0xce606ee0"
    },
    {
      "constant": true,
      "inputs": [],
      "name": "contractOwnerBalance",
      "outputs": [
        {
          "name": "",
          "type": "uint256"
        }
      ],
      "payable": false,
      "stateMutability": "view",
      "type": "function",
      "signature": "0xdd81d403"
    },
    {
      "constant": true,
      "inputs": [
        {
          "name": "",
          "type": "uint256"
        }
      ],
      "name": "stores",
      "outputs": [
        {
          "name": "ownerAddress",
          "type": "address"
        },
        {
          "name": "storeNumber",
          "type": "uint256"
        },
        {
          "name": "name",
          "type": "string"
        },
        {
          "name": "city",
          "type": "string"
        }
      ],
      "payable": false,
      "stateMutability": "view",
      "type": "function",
      "signature": "0xe8a59cd8"
    },
    {
      "inputs": [],
      "payable": true,
      "stateMutability": "payable",
      "type": "constructor",
      "signature": "constructor"
    },
    {
      "constant": false,
      "inputs": [
        {
          "name": "userAddress",
          "type": "address"
        },
        {
          "name": "name",
          "type": "string"
        }
      ],
      "name": "addAdmin",
      "outputs": [],
      "payable": false,
      "stateMutability": "nonpayable",
      "type": "function",
      "signature": "0xd16856ca"
    },
    {
      "constant": false,
      "inputs": [
        {
          "name": "userAddress",
          "type": "address"
        },
        {
          "name": "name",
          "type": "string"
        }
      ],
      "name": "addOwner",
      "outputs": [],
      "payable": false,
      "stateMutability": "nonpayable",
      "type": "function",
      "signature": "0x3542758f"
    },
    {
      "constant": false,
      "inputs": [
        {
          "name": "name",
          "type": "string"
        },
        {
          "name": "city",
          "type": "string"
        }
      ],
      "name": "addStore",
      "outputs": [],
      "payable": false,
      "stateMutability": "nonpayable",
      "type": "function",
      "signature": "0xed48719c"
    },
    {
      "constant": false,
      "inputs": [
        {
          "name": "storeNumberGiven",
          "type": "uint256"
        },
        {
          "name": "name",
          "type": "string"
        },
        {
          "name": "description",
          "type": "string"
        },
        {
          "name": "price",
          "type": "uint256"
        },
        {
          "name": "inventory",
          "type": "uint256"
        }
      ],
      "name": "addProduct",
      "outputs": [],
      "payable": false,
      "stateMutability": "nonpayable",
      "type": "function",
      "signature": "0x01db5b48"
    },
    {
      "constant": false,
      "inputs": [
        {
          "name": "storeNumberGiven",
          "type": "uint256"
        },
        {
          "name": "productIndex",
          "type": "uint256"
        }
      ],
      "name": "buyProduct",
      "outputs": [],
      "payable": true,
      "stateMutability": "payable",
      "type": "function",
      "signature": "0x53b62866"
    },
    {
      "constant": true,
      "inputs": [],
      "name": "getStoresLength",
      "outputs": [
        {
          "name": "",
          "type": "uint256"
        }
      ],
      "payable": false,
      "stateMutability": "view",
      "type": "function",
      "signature": "0x86a9bd11"
    },
    {
      "constant": true,
      "inputs": [
        {
          "name": "storeNumberGiven",
          "type": "uint256"
        }
      ],
      "name": "getProductsLength",
      "outputs": [
        {
          "name": "",
          "type": "uint256"
        }
      ],
      "payable": false,
      "stateMutability": "view",
      "type": "function",
      "signature": "0x5412fc46"
    }
  ],
  "bytecode": "0x6080604052336000806101000a81548173ffffffffffffffffffffffffffffffffffffffff021916908373ffffffffffffffffffffffffffffffffffffffff160217905550600060018190555060408051908101604052806040805190810160405280600b81526020017f53757065722041646d696e000000000000000000000000000000000000000000815250815260200160016002811115620000a057fe5b815250600260003373ffffffffffffffffffffffffffffffffffffffff1673ffffffffffffffffffffffffffffffffffffffff1681526020019081526020016000206000820151816000019080519060200190620001009291906200013c565b5060208201518160010160006101000a81548160ff021916908360028111156200012657fe5b02179055509050506000600381905550620001eb565b828054600181600116156101000203166002900490600052602060002090601f016020900481019282601f106200017f57805160ff1916838001178555620001b0565b82800160010185558215620001b0579182015b82811115620001af57825182559160200191906001019062000192565b5b509050620001bf9190620001c3565b5090565b620001e891905b80821115620001e4576000816000905550600101620001ca565b5090565b90565b61183480620001fb6000396000f3fe6080604052600436106100c5576000357c0100000000000000000000000000000000000000000000000000000000900463ffffffff16806301db5b48146100ca5780631cdb717f146102475780633542758f1461027257806353b628661461035a5780635412fc461461039257806386a9bd11146103e1578063a590fbdb1461040c578063a87430ba14610544578063ce606ee014610623578063d16856ca1461067a578063dd81d40314610762578063e8a59cd81461078d578063ed48719c146108e7575b600080fd5b3480156100d657600080fd5b50610245600480360360a08110156100ed57600080fd5b81019080803590602001909291908035906020019064010000000081111561011457600080fd5b82018360208201111561012657600080fd5b8035906020019184600183028401116401000000008311171561014857600080fd5b91908080601f016020809104026020016040519081016040528093929190818152602001838380828437600081840152601f19601f820116905080830192505050505050509192919290803590602001906401000000008111156101ab57600080fd5b8201836020820111156101bd57600080fd5b803590602001918460018302840111640100000000831117156101df57600080fd5b91908080601f016020809104026020016040519081016040528093929190818152602001838380828437600081840152601f19601f8201169050808301925050505050505091929192908035906020019092919080359060200190929190505050610a46565b005b34801561025357600080fd5b5061025c610bdc565b6040518082815260200191505060405180910390f35b34801561027e57600080fd5b506103586004803603604081101561029557600080fd5b81019080803573ffffffffffffffffffffffffffffffffffffffff169060200190929190803590602001906401000000008111156102d257600080fd5b8201836020820111156102e457600080fd5b8035906020019184600183028401116401000000008311171561030657600080fd5b91908080601f016020809104026020016040519081016040528093929190818152602001838380828437600081840152601f19601f820116905080830192505050505050509192919290505050610be2565b005b6103906004803603604081101561037057600080fd5b810190808035906020019092919080359060200190929190505050610d6d565b005b34801561039e57600080fd5b506103cb600480360360208110156103b557600080fd5b8101908080359060200190929190505050610f9f565b6040518082815260200191505060405180910390f35b3480156103ed57600080fd5b506103f6610fbf565b6040518082815260200191505060405180910390f35b34801561041857600080fd5b5061044f6004803603604081101561042f57600080fd5b810190808035906020019092919080359060200190929190505050610fcc565b604051808060200180602001858152602001848152602001838103835287818151815260200191508051906020019080838360005b8381101561049f578082015181840152602081019050610484565b50505050905090810190601f1680156104cc5780820380516001836020036101000a031916815260200191505b50838103825286818151815260200191508051906020019080838360005b838110156105055780820151818401526020810190506104ea565b50505050905090810190601f1680156105325780820380516001836020036101000a031916815260200191505b50965050505050505060405180910390f35b34801561055057600080fd5b506105936004803603602081101561056757600080fd5b81019080803573ffffffffffffffffffffffffffffffffffffffff169060200190929190505050611148565b60405180806020018360028111156105a757fe5b60ff168152602001828103825284818151815260200191508051906020019080838360005b838110156105e75780820151818401526020810190506105cc565b50505050905090810190601f1680156106145780820380516001836020036101000a031916815260200191505b50935050505060405180910390f35b34801561062f57600080fd5b50610638611211565b604051808273ffffffffffffffffffffffffffffffffffffffff1673ffffffffffffffffffffffffffffffffffffffff16815260200191505060405180910390f35b34801561068657600080fd5b506107606004803603604081101561069d57600080fd5b81019080803573ffffffffffffffffffffffffffffffffffffffff169060200190929190803590602001906401000000008111156106da57600080fd5b8201836020820111156106ec57600080fd5b8035906020019184600183028401116401000000008311171561070e57600080fd5b91908080601f016020809104026020016040519081016040528093929190818152602001838380828437600081840152601f19601f820116905080830192505050505050509192919290505050611236565b005b34801561076e57600080fd5b506107776113c2565b6040518082815260200191505060405180910390f35b34801561079957600080fd5b506107c6600480360360208110156107b057600080fd5b81019080803590602001909291905050506113c8565b604051808573ffffffffffffffffffffffffffffffffffffffff1673ffffffffffffffffffffffffffffffffffffffff1681526020018481526020018060200180602001838103835285818151815260200191508051906020019080838360005b83811015610842578082015181840152602081019050610827565b50505050905090810190601f16801561086f5780820380516001836020036101000a031916815260200191505b50838103825284818151815260200191508051906020019080838360005b838110156108a857808201518184015260208101905061088d565b50505050905090810190601f1680156108d55780820380516001836020036101000a031916815260200191505b50965050505050505060405180910390f35b3480156108f357600080fd5b50610a446004803603604081101561090a57600080fd5b810190808035906020019064010000000081111561092757600080fd5b82018360208201111561093957600080fd5b8035906020019184600183028401116401000000008311171561095b57600080fd5b91908080601f016020809104026020016040519081016040528093929190818152602001838380828437600081840152601f19601f820116905080830192505050505050509192919290803590602001906401000000008111156109be57600080fd5b8201836020820111156109d057600080fd5b803590602001918460018302840111640100000000831117156109f257600080fd5b91908080601f016020809104026020016040519081016040528093929190818152602001838380828437600081840152601f19601f820116905080830192505050505050509192919290505050611557565b005b33600280811115610a5357fe5b600260008373ffffffffffffffffffffffffffffffffffffffff1673ffffffffffffffffffffffffffffffffffffffff16815260200190815260200160002060010160009054906101000a900460ff166002811115610aae57fe5b141515610b23576040517f08c379a00000000000000000000000000000000000000000000000000000000081526004018080602001828103825260158152602001807f55736572206d75737420626520616e206f776e6572000000000000000000000081525060200191505060405180910390fd5b6005600087815260200190815260200160002060806040519081016040528087815260200186815260200185815260200184815250908060018154018082558091505090600182039060005260206000209060040201600090919290919091506000820151816000019080519060200190610b9f92919061173a565b506020820151816001019080519060200190610bbc92919061173a565b506040820151816002015560608201518160030155505050505050505050565b60035481565b3360016002811115610bf057fe5b600260008373ffffffffffffffffffffffffffffffffffffffff1673ffffffffffffffffffffffffffffffffffffffff16815260200190815260200160002060010160009054906101000a900460ff166002811115610c4b57fe5b141515610cc0576040517f08c379a00000000000000000000000000000000000000000000000000000000081526004018080602001828103825260158152602001807f55736572206d75737420626520616e2061646d696e000000000000000000000081525060200191505060405180910390fd5b6040805190810160405280838152602001600280811115610cdd57fe5b815250600260008573ffffffffffffffffffffffffffffffffffffffff1673ffffffffffffffffffffffffffffffffffffffff1681526020019081526020016000206000820151816000019080519060200190610d3b92919061173a565b5060208201518160010160006101000a81548160ff02191690836002811115610d6057fe5b0217905550905050505050565b610d756117ba565b6005600084815260200190815260200160002082815481101515610d9557fe5b906000526020600020906004020160806040519081016040529081600082018054600181600116156101000203166002900480601f016020809104026020016040519081016040528092919081815260200182805460018160011615610100020316600290048015610e485780601f10610e1d57610100808354040283529160200191610e48565b820191906000526020600020905b815481529060010190602001808311610e2b57829003601f168201915b50505050508152602001600182018054600181600116156101000203166002900480601f016020809104026020016040519081016040528092919081815260200182805460018160011615610100020316600290048015610eea5780601f10610ebf57610100808354040283529160200191610eea565b820191906000526020600020905b815481529060010190602001808311610ecd57829003601f168201915b505050505081526020016002820154815260200160038201548152505090506000809054906101000a900473ffffffffffffffffffffffffffffffffffffffff1673ffffffffffffffffffffffffffffffffffffffff166108fc82604001519081150290604051600060405180830381858888f19350505050158015610f74573d6000803e3d6000fd5b5080604001516001600082825401925050819055506001816060015103816060018181525050505050565b600060056000838152602001908152602001600020805490509050919050565b6000600480549050905090565b600560205281600052604060002081815481101515610fe757fe5b906000526020600020906004020160009150915050806000018054600181600116156101000203166002900480601f0160208091040260200160405190810160405280929190818152602001828054600181600116156101000203166002900480156110945780601f1061106957610100808354040283529160200191611094565b820191906000526020600020905b81548152906001019060200180831161107757829003601f168201915b505050505090806001018054600181600116156101000203166002900480601f0160208091040260200160405190810160405280929190818152602001828054600181600116156101000203166002900480156111325780601f1061110757610100808354040283529160200191611132565b820191906000526020600020905b81548152906001019060200180831161111557829003601f168201915b5050505050908060020154908060030154905084565b6002602052806000526040600020600091509050806000018054600181600116156101000203166002900480601f0160208091040260200160405190810160405280929190818152602001828054600181600116156101000203166002900480156111f45780601f106111c9576101008083540402835291602001916111f4565b820191906000526020600020905b8154815290600101906020018083116111d757829003601f168201915b5050505050908060010160009054906101000a900460ff16905082565b6000809054906101000a900473ffffffffffffffffffffffffffffffffffffffff1681565b336001600281111561124457fe5b600260008373ffffffffffffffffffffffffffffffffffffffff1673ffffffffffffffffffffffffffffffffffffffff16815260200190815260200160002060010160009054906101000a900460ff16600281111561129f57fe5b141515611314576040517f08c379a00000000000000000000000000000000000000000000000000000000081526004018080602001828103825260158152602001807f55736572206d75737420626520616e2061646d696e000000000000000000000081525060200191505060405180910390fd5b60408051908101604052808381526020016001600281111561133257fe5b815250600260008573ffffffffffffffffffffffffffffffffffffffff1673ffffffffffffffffffffffffffffffffffffffff168152602001908152602001600020600082015181600001908051906020019061139092919061173a565b5060208201518160010160006101000a81548160ff021916908360028111156113b557fe5b0217905550905050505050565b60015481565b6004818154811015156113d757fe5b90600052602060002090600402016000915090508060000160009054906101000a900473ffffffffffffffffffffffffffffffffffffffff1690806001015490806002018054600181600116156101000203166002900480601f0160208091040260200160405190810160405280929190818152602001828054600181600116156101000203166002900480156114af5780601f10611484576101008083540402835291602001916114af565b820191906000526020600020905b81548152906001019060200180831161149257829003601f168201915b505050505090806003018054600181600116156101000203166002900480601f01602080910402602001604051908101604052809291908181526020018280546001816001161561010002031660029004801561154d5780601f106115225761010080835404028352916020019161154d565b820191906000526020600020905b81548152906001019060200180831161153057829003601f168201915b5050505050905084565b3360028081111561156457fe5b600260008373ffffffffffffffffffffffffffffffffffffffff1673ffffffffffffffffffffffffffffffffffffffff16815260200190815260200160002060010160009054906101000a900460ff1660028111156115bf57fe5b141515611634576040517f08c379a00000000000000000000000000000000000000000000000000000000081526004018080602001828103825260158152602001807f55736572206d75737420626520616e206f776e6572000000000000000000000081525060200191505060405180910390fd5b60016003540160038190555060046080604051908101604052803373ffffffffffffffffffffffffffffffffffffffff1681526020016003548152602001858152602001848152509080600181540180825580915050906001820390600052602060002090600402016000909192909190915060008201518160000160006101000a81548173ffffffffffffffffffffffffffffffffffffffff021916908373ffffffffffffffffffffffffffffffffffffffff16021790555060208201518160010155604082015181600201908051906020019061171492919061173a565b50606082015181600301908051906020019061173192919061173a565b50505050505050565b828054600181600116156101000203166002900490600052602060002090601f016020900481019282601f1061177b57805160ff19168380011785556117a9565b828001600101855582156117a9579182015b828111156117a857825182559160200191906001019061178d565b5b5090506117b691906117e3565b5090565b608060405190810160405280606081526020016060815260200160008152602001600081525090565b61180591905b808211156118015760008160009055506001016117e9565b5090565b9056fea165627a7a72305820380af1e77bb1cb3891d3d3c675f79873b606123f2155ba16bb648b1fc30b867f0029",
  "source": "pragma solidity ^0.5.0;\n\ncontract Shop {\n  enum UserType { Guest, Admin, Owner }\n\n  struct User {\n    string name;\n    UserType userType;\n  }\n\n  struct Store {\n    address ownerAddress;\n    uint storeNumber;\n    string name;\n    string city;\n  }\n\n  struct Product {\n    string name;\n    string description;\n    uint price;\n    uint inventory;\n  }\n\n  // Contract owner state\n  address payable public contractOwner;\n  uint public contractOwnerBalance;\n\n  // User state\n  mapping (address => User) public users;\n\n  // Store state\n  uint public storeNumber;\n  Store[] public stores;\n\n  // Product state\n  mapping (uint => Product[]) public products;\n\n  modifier verifyAdmin(address userAddress) {\n    require(users[userAddress].userType == UserType.Admin, \"User must be an admin\");\n    _;\n  }\n\n  modifier verifyOwner(address ownerAddress) {\n    require(users[ownerAddress].userType == UserType.Owner, \"User must be an owner\");\n    _;\n  }\n\n  constructor() public payable {\n    contractOwner = msg.sender;\n    contractOwnerBalance = 0;\n\n    // Add contract owner as an admin\n    users[msg.sender] = User({\n      name: \"Super Admin\",\n      userType: UserType.Admin\n    });\n\n    // Initializing state\n    storeNumber = 0;\n  }\n\n  function addAdmin(address userAddress, string memory name) public\n  verifyAdmin(msg.sender) {\n    users[userAddress] = User({\n      name: name,\n      userType: UserType.Admin\n    });\n  }\n\n  function addOwner(address userAddress, string memory name) public\n  verifyAdmin(msg.sender) {\n    users[userAddress] = User({\n      name: name,\n      userType: UserType.Owner\n    });\n  }\n\n  function addStore(string memory name, string memory city) public\n  verifyOwner(msg.sender) {\n    storeNumber = storeNumber + 1;\n\n    stores.push(Store({\n      ownerAddress: msg.sender,\n      storeNumber: storeNumber,\n      name: name,\n      city: city\n    }));\n  }\n\n  function addProduct(uint storeNumberGiven, string memory name, string memory description, uint price, uint inventory) public\n  verifyOwner(msg.sender) {\n    products[storeNumberGiven].push(Product({\n      name: name,\n      description: description,\n      price: price,\n      inventory: inventory\n    }));\n  }\n\n  function buyProduct(uint storeNumberGiven, uint productIndex) public payable {\n    Product memory product = products[storeNumberGiven][productIndex];\n\n    contractOwner.transfer(product.price);\n    contractOwnerBalance += product.price;\n    product.inventory = product.inventory - 1;\n  }\n\n  function getStoresLength() public view returns(uint) {\n    return stores.length;\n  }\n\n  function getProductsLength(uint storeNumberGiven) public view returns(uint) {\n    return products[storeNumberGiven].length;\n  }\n}\n",
  "sourcePath": "/Users/arsood/Desktop/chain-shop-redux/contracts/Shop.sol",
  "compiler": {
    "name": "solc",
    "version": "0.5.0+commit.1d4f565a.Emscripten.clang"
  },
  "schemaVersion": "3.0.1",
  "updatedAt": "2019-01-11T22:38:31.970Z",
  "devdoc": {
    "methods": {}
  },
  "userdoc": {
    "methods": {}
  }
}