{
  "contractName": "Shop",
  "abi": [
    {
      "constant": true,
      "inputs": [],
      "name": "storeNumber",
      "outputs": [
        {
          "name": "",
          "type": "uint256"
        }
      ],
      "payable": false,
      "stateMutability": "view",
      "type": "function",
      "signature": "0x1cdb717f"
    },
    {
      "constant": true,
      "inputs": [],
      "name": "productNumber",
      "outputs": [
        {
          "name": "",
          "type": "uint256"
        }
      ],
      "payable": false,
      "stateMutability": "view",
      "type": "function",
      "signature": "0x5034735d"
    },
    {
      "constant": true,
      "inputs": [
        {
          "name": "",
          "type": "uint256"
        }
      ],
      "name": "products",
      "outputs": [
        {
          "name": "ownerAddress",
          "type": "address"
        },
        {
          "name": "productNumber",
          "type": "uint256"
        },
        {
          "name": "storeNumber",
          "type": "uint256"
        },
        {
          "name": "name",
          "type": "string"
        },
        {
          "name": "description",
          "type": "string"
        },
        {
          "name": "price",
          "type": "uint256"
        },
        {
          "name": "inventory",
          "type": "uint256"
        }
      ],
      "payable": false,
      "stateMutability": "view",
      "type": "function",
      "signature": "0x7acc0b20"
    },
    {
      "constant": true,
      "inputs": [
        {
          "name": "",
          "type": "address"
        }
      ],
      "name": "users",
      "outputs": [
        {
          "name": "name",
          "type": "string"
        },
        {
          "name": "userType",
          "type": "uint8"
        }
      ],
      "payable": false,
      "stateMutability": "view",
      "type": "function",
      "signature": "0xa87430ba"
    },
    {
      "constant": true,
      "inputs": [
        {
          "name": "",
          "type": "uint256"
        }
      ],
      "name": "stores",
      "outputs": [
        {
          "name": "ownerAddress",
          "type": "address"
        },
        {
          "name": "storeNumber",
          "type": "uint256"
        },
        {
          "name": "name",
          "type": "string"
        },
        {
          "name": "city",
          "type": "string"
        }
      ],
      "payable": false,
      "stateMutability": "view",
      "type": "function",
      "signature": "0xe8a59cd8"
    },
    {
      "inputs": [],
      "payable": false,
      "stateMutability": "nonpayable",
      "type": "constructor",
      "signature": "constructor"
    },
    {
      "constant": false,
      "inputs": [
        {
          "name": "userAddress",
          "type": "address"
        },
        {
          "name": "name",
          "type": "string"
        }
      ],
      "name": "addAdmin",
      "outputs": [],
      "payable": false,
      "stateMutability": "nonpayable",
      "type": "function",
      "signature": "0xd16856ca"
    },
    {
      "constant": false,
      "inputs": [
        {
          "name": "userAddress",
          "type": "address"
        },
        {
          "name": "name",
          "type": "string"
        }
      ],
      "name": "addOwner",
      "outputs": [],
      "payable": false,
      "stateMutability": "nonpayable",
      "type": "function",
      "signature": "0x3542758f"
    },
    {
      "constant": false,
      "inputs": [
        {
          "name": "name",
          "type": "string"
        },
        {
          "name": "city",
          "type": "string"
        }
      ],
      "name": "addStore",
      "outputs": [],
      "payable": false,
      "stateMutability": "nonpayable",
      "type": "function",
      "signature": "0xed48719c"
    },
    {
      "constant": false,
      "inputs": [
        {
          "name": "storeNumberGiven",
          "type": "uint256"
        },
        {
          "name": "name",
          "type": "string"
        },
        {
          "name": "description",
          "type": "string"
        },
        {
          "name": "price",
          "type": "uint256"
        },
        {
          "name": "inventory",
          "type": "uint256"
        }
      ],
      "name": "addProduct",
      "outputs": [],
      "payable": false,
      "stateMutability": "nonpayable",
      "type": "function",
      "signature": "0x01db5b48"
    },
    {
      "constant": false,
      "inputs": [
        {
          "name": "productNumberSelected",
          "type": "uint256"
        }
      ],
      "name": "buyProduct",
      "outputs": [],
      "payable": true,
      "stateMutability": "payable",
      "type": "function",
      "signature": "0x8642269e"
    },
    {
      "constant": true,
      "inputs": [],
      "name": "getStoresLength",
      "outputs": [
        {
          "name": "",
          "type": "uint256"
        }
      ],
      "payable": false,
      "stateMutability": "view",
      "type": "function",
      "signature": "0x86a9bd11"
    },
    {
      "constant": true,
      "inputs": [],
      "name": "getProductsLength",
      "outputs": [
        {
          "name": "",
          "type": "uint256"
        }
      ],
      "payable": false,
      "stateMutability": "view",
      "type": "function",
      "signature": "0x1155dfe5"
    }
  ],
  "bytecode": "0x60806040523480156200001157600080fd5b5060408051908101604052806040805190810160405280600b81526020017f53757065722041646d696e0000000000000000000000000000000000000000008152508152602001600160028111156200006657fe5b8152506000803373ffffffffffffffffffffffffffffffffffffffff1673ffffffffffffffffffffffffffffffffffffffff1681526020019081526020016000206000820151816000019080519060200190620000c592919062000109565b5060208201518160010160006101000a81548160ff02191690836002811115620000eb57fe5b021790555090505060006001819055506000600381905550620001b8565b828054600181600116156101000203166002900490600052602060002090601f016020900481019282601f106200014c57805160ff19168380011785556200017d565b828001600101855582156200017d579182015b828111156200017c5782518255916020019190600101906200015f565b5b5090506200018c919062000190565b5090565b620001b591905b80821115620001b157600081600090555060010162000197565b5090565b90565b6118dd80620001c86000396000f3fe6080604052600436106100ba576000357c0100000000000000000000000000000000000000000000000000000000900463ffffffff16806301db5b48146100bf5780631155dfe51461023c5780631cdb717f146102675780633542758f146102925780635034735d1461037a5780637acc0b20146103a55780638642269e1461051457806386a9bd1114610542578063a87430ba1461056d578063d16856ca1461064c578063e8a59cd814610734578063ed48719c1461088e575b600080fd5b3480156100cb57600080fd5b5061023a600480360360a08110156100e257600080fd5b81019080803590602001909291908035906020019064010000000081111561010957600080fd5b82018360208201111561011b57600080fd5b8035906020019184600183028401116401000000008311171561013d57600080fd5b91908080601f016020809104026020016040519081016040528093929190818152602001838380828437600081840152601f19601f820116905080830192505050505050509192919290803590602001906401000000008111156101a057600080fd5b8201836020820111156101b257600080fd5b803590602001918460018302840111640100000000831117156101d457600080fd5b91908080601f016020809104026020016040519081016040528093929190818152602001838380828437600081840152601f19601f82011690508083019250505050505050919291929080359060200190929190803590602001909291905050506109ed565b005b34801561024857600080fd5b50610251610c02565b6040518082815260200191505060405180910390f35b34801561027357600080fd5b5061027c610c0f565b6040518082815260200191505060405180910390f35b34801561029e57600080fd5b50610378600480360360408110156102b557600080fd5b81019080803573ffffffffffffffffffffffffffffffffffffffff169060200190929190803590602001906401000000008111156102f257600080fd5b82018360208201111561030457600080fd5b8035906020019184600183028401116401000000008311171561032657600080fd5b91908080601f016020809104026020016040519081016040528093929190818152602001838380828437600081840152601f19601f820116905080830192505050505050509192919290505050610c15565b005b34801561038657600080fd5b5061038f610d9e565b6040518082815260200191505060405180910390f35b3480156103b157600080fd5b506103de600480360360208110156103c857600080fd5b8101908080359060200190929190505050610da4565b604051808873ffffffffffffffffffffffffffffffffffffffff1673ffffffffffffffffffffffffffffffffffffffff1681526020018781526020018681526020018060200180602001858152602001848152602001838103835287818151815260200191508051906020019080838360005b8381101561046c578082015181840152602081019050610451565b50505050905090810190601f1680156104995780820380516001836020036101000a031916815260200191505b50838103825286818151815260200191508051906020019080838360005b838110156104d25780820151818401526020810190506104b7565b50505050905090810190601f1680156104ff5780820380516001836020036101000a031916815260200191505b50995050505050505050505060405180910390f35b6105406004803603602081101561052a57600080fd5b8101908080359060200190929190505050610f45565b005b34801561054e57600080fd5b506105576111e8565b6040518082815260200191505060405180910390f35b34801561057957600080fd5b506105bc6004803603602081101561059057600080fd5b81019080803573ffffffffffffffffffffffffffffffffffffffff1690602001909291905050506111f5565b60405180806020018360028111156105d057fe5b60ff168152602001828103825284818151815260200191508051906020019080838360005b838110156106105780820151818401526020810190506105f5565b50505050905090810190601f16801561063d5780820380516001836020036101000a031916815260200191505b50935050505060405180910390f35b34801561065857600080fd5b506107326004803603604081101561066f57600080fd5b81019080803573ffffffffffffffffffffffffffffffffffffffff169060200190929190803590602001906401000000008111156106ac57600080fd5b8201836020820111156106be57600080fd5b803590602001918460018302840111640100000000831117156106e057600080fd5b91908080601f016020809104026020016040519081016040528093929190818152602001838380828437600081840152601f19601f8201169050808301925050505050505091929192905050506112be565b005b34801561074057600080fd5b5061076d6004803603602081101561075757600080fd5b8101908080359060200190929190505050611448565b604051808573ffffffffffffffffffffffffffffffffffffffff1673ffffffffffffffffffffffffffffffffffffffff1681526020018481526020018060200180602001838103835285818151815260200191508051906020019080838360005b838110156107e95780820151818401526020810190506107ce565b50505050905090810190601f1680156108165780820380516001836020036101000a031916815260200191505b50838103825284818151815260200191508051906020019080838360005b8381101561084f578082015181840152602081019050610834565b50505050905090810190601f16801561087c5780820380516001836020036101000a031916815260200191505b50965050505050505060405180910390f35b34801561089a57600080fd5b506109eb600480360360408110156108b157600080fd5b81019080803590602001906401000000008111156108ce57600080fd5b8201836020820111156108e057600080fd5b8035906020019184600183028401116401000000008311171561090257600080fd5b91908080601f016020809104026020016040519081016040528093929190818152602001838380828437600081840152601f19601f8201169050808301925050505050505091929192908035906020019064010000000081111561096557600080fd5b82018360208201111561097757600080fd5b8035906020019184600183028401116401000000008311171561099957600080fd5b91908080601f016020809104026020016040519081016040528093929190818152602001838380828437600081840152601f19601f8201169050808301925050505050505091929192905050506115d7565b005b336002808111156109fa57fe5b6000808373ffffffffffffffffffffffffffffffffffffffff1673ffffffffffffffffffffffffffffffffffffffff16815260200190815260200160002060010160009054906101000a900460ff166002811115610a5457fe5b141515610ac9576040517f08c379a00000000000000000000000000000000000000000000000000000000081526004018080602001828103825260158152602001807f55736572206d75737420626520616e206f776e6572000000000000000000000081525060200191505060405180910390fd5b600160035401600381905550600460e0604051908101604052803373ffffffffffffffffffffffffffffffffffffffff1681526020016003548152602001888152602001878152602001868152602001858152602001848152509080600181540180825580915050906001820390600052602060002090600702016000909192909190915060008201518160000160006101000a81548173ffffffffffffffffffffffffffffffffffffffff021916908373ffffffffffffffffffffffffffffffffffffffff16021790555060208201518160010155604082015181600201556060820151816003019080519060200190610bc59291906117b8565b506080820151816004019080519060200190610be29291906117b8565b5060a0820151816005015560c08201518160060155505050505050505050565b6000600480549050905090565b60015481565b3360016002811115610c2357fe5b6000808373ffffffffffffffffffffffffffffffffffffffff1673ffffffffffffffffffffffffffffffffffffffff16815260200190815260200160002060010160009054906101000a900460ff166002811115610c7d57fe5b141515610cf2576040517f08c379a00000000000000000000000000000000000000000000000000000000081526004018080602001828103825260158152602001807f55736572206d75737420626520616e2061646d696e000000000000000000000081525060200191505060405180910390fd5b6040805190810160405280838152602001600280811115610d0f57fe5b8152506000808573ffffffffffffffffffffffffffffffffffffffff1673ffffffffffffffffffffffffffffffffffffffff1681526020019081526020016000206000820151816000019080519060200190610d6c9291906117b8565b5060208201518160010160006101000a81548160ff02191690836002811115610d9157fe5b0217905550905050505050565b60035481565b600481815481101515610db357fe5b90600052602060002090600702016000915090508060000160009054906101000a900473ffffffffffffffffffffffffffffffffffffffff1690806001015490806002015490806003018054600181600116156101000203166002900480601f016020809104026020016040519081016040528092919081815260200182805460018160011615610100020316600290048015610e915780601f10610e6657610100808354040283529160200191610e91565b820191906000526020600020905b815481529060010190602001808311610e7457829003601f168201915b505050505090806004018054600181600116156101000203166002900480601f016020809104026020016040519081016040528092919081815260200182805460018160011615610100020316600290048015610f2f5780601f10610f0457610100808354040283529160200191610f2f565b820191906000526020600020905b815481529060010190602001808311610f1257829003601f168201915b5050505050908060050154908060060154905087565b610f4d611838565b60008090505b6004805490508110156111835782600482815481101515610f7057fe5b906000526020600020906007020160010154141561117657600481815481101515610f9757fe5b906000526020600020906007020160e060405190810160405290816000820160009054906101000a900473ffffffffffffffffffffffffffffffffffffffff1673ffffffffffffffffffffffffffffffffffffffff1673ffffffffffffffffffffffffffffffffffffffff1681526020016001820154815260200160028201548152602001600382018054600181600116156101000203166002900480601f0160208091040260200160405190810160405280929190818152602001828054600181600116156101000203166002900480156110b45780601f10611089576101008083540402835291602001916110b4565b820191906000526020600020905b81548152906001019060200180831161109757829003601f168201915b50505050508152602001600482018054600181600116156101000203166002900480601f0160208091040260200160405190810160405280929190818152602001828054600181600116156101000203166002900480156111565780601f1061112b57610100808354040283529160200191611156565b820191906000526020600020905b81548152906001019060200180831161113957829003601f168201915b505050505081526020016005820154815260200160068201548152505091505b8080600101915050610f53565b50806000015173ffffffffffffffffffffffffffffffffffffffff166108fc8260a001519081150290604051600060405180830381858888f193505050501580156111d2573d6000803e3d6000fd5b5060018160c00151038160c00181815250505050565b6000600280549050905090565b6000602052806000526040600020600091509050806000018054600181600116156101000203166002900480601f0160208091040260200160405190810160405280929190818152602001828054600181600116156101000203166002900480156112a15780601f10611276576101008083540402835291602001916112a1565b820191906000526020600020905b81548152906001019060200180831161128457829003601f168201915b5050505050908060010160009054906101000a900460ff16905082565b33600160028111156112cc57fe5b6000808373ffffffffffffffffffffffffffffffffffffffff1673ffffffffffffffffffffffffffffffffffffffff16815260200190815260200160002060010160009054906101000a900460ff16600281111561132657fe5b14151561139b576040517f08c379a00000000000000000000000000000000000000000000000000000000081526004018080602001828103825260158152602001807f55736572206d75737420626520616e2061646d696e000000000000000000000081525060200191505060405180910390fd5b6040805190810160405280838152602001600160028111156113b957fe5b8152506000808573ffffffffffffffffffffffffffffffffffffffff1673ffffffffffffffffffffffffffffffffffffffff16815260200190815260200160002060008201518160000190805190602001906114169291906117b8565b5060208201518160010160006101000a81548160ff0219169083600281111561143b57fe5b0217905550905050505050565b60028181548110151561145757fe5b90600052602060002090600402016000915090508060000160009054906101000a900473ffffffffffffffffffffffffffffffffffffffff1690806001015490806002018054600181600116156101000203166002900480601f01602080910402602001604051908101604052809291908181526020018280546001816001161561010002031660029004801561152f5780601f106115045761010080835404028352916020019161152f565b820191906000526020600020905b81548152906001019060200180831161151257829003601f168201915b505050505090806003018054600181600116156101000203166002900480601f0160208091040260200160405190810160405280929190818152602001828054600181600116156101000203166002900480156115cd5780601f106115a2576101008083540402835291602001916115cd565b820191906000526020600020905b8154815290600101906020018083116115b057829003601f168201915b5050505050905084565b336002808111156115e457fe5b6000808373ffffffffffffffffffffffffffffffffffffffff1673ffffffffffffffffffffffffffffffffffffffff16815260200190815260200160002060010160009054906101000a900460ff16600281111561163e57fe5b1415156116b3576040517f08c379a00000000000000000000000000000000000000000000000000000000081526004018080602001828103825260158152602001807f55736572206d75737420626520616e206f776e6572000000000000000000000081525060200191505060405180910390fd5b600180540160018190555060026080604051908101604052803373ffffffffffffffffffffffffffffffffffffffff1681526020016001548152602001858152602001848152509080600181540180825580915050906001820390600052602060002090600402016000909192909190915060008201518160000160006101000a81548173ffffffffffffffffffffffffffffffffffffffff021916908373ffffffffffffffffffffffffffffffffffffffff1602179055506020820151816001015560408201518160020190805190602001906117929291906117b8565b5060608201518160030190805190602001906117af9291906117b8565b50505050505050565b828054600181600116156101000203166002900490600052602060002090601f016020900481019282601f106117f957805160ff1916838001178555611827565b82800160010185558215611827579182015b8281111561182657825182559160200191906001019061180b565b5b509050611834919061188c565b5090565b60e060405190810160405280600073ffffffffffffffffffffffffffffffffffffffff1681526020016000815260200160008152602001606081526020016060815260200160008152602001600081525090565b6118ae91905b808211156118aa576000816000905550600101611892565b5090565b9056fea165627a7a72305820756259bb3399836bd8a9c0a04630788160cc970ca0885398e5ed2c31e8803b710029",
  "source": "pragma solidity ^0.5.0;\n\ncontract Shop {\n  enum UserType { Guest, Admin, Owner }\n\n  struct User {\n    string name;\n    UserType userType;\n  }\n\n  struct Store {\n    address ownerAddress;\n    uint storeNumber;\n    string name;\n    string city;\n  }\n\n  struct Product {\n    address payable ownerAddress;\n    uint productNumber;\n    uint storeNumber;\n    string name;\n    string description;\n    uint price;\n    uint inventory;\n  }\n\n  // User state\n  mapping (address => User) public users;\n\n  // Store state\n  uint public storeNumber;\n  Store[] public stores;\n\n  // Product state\n  uint public productNumber;\n  Product[] public products;\n\n  modifier verifyAdmin(address userAddress) {\n    require(users[userAddress].userType == UserType.Admin, \"User must be an admin\");\n    _;\n  }\n\n  modifier verifyOwner(address ownerAddress) {\n    require(users[ownerAddress].userType == UserType.Owner, \"User must be an owner\");\n    _;\n  }\n\n  constructor() public {\n    // Add contract owner as an admin\n    users[msg.sender] = User({\n      name: \"Super Admin\",\n      userType: UserType.Admin\n    });\n\n    // Initializing state\n    storeNumber = 0;\n    productNumber = 0;\n  }\n\n  function addAdmin(address userAddress, string memory name) public\n  verifyAdmin(msg.sender) {\n    users[userAddress] = User({\n      name: name,\n      userType: UserType.Admin\n    });\n  }\n\n  function addOwner(address userAddress, string memory name) public\n  verifyAdmin(msg.sender) {\n    users[userAddress] = User({\n      name: name,\n      userType: UserType.Owner\n    });\n  }\n\n  function addStore(string memory name, string memory city) public\n  verifyOwner(msg.sender) {\n    storeNumber = storeNumber + 1;\n\n    stores.push(Store({\n      ownerAddress: msg.sender,\n      storeNumber: storeNumber,\n      name: name,\n      city: city\n    }));\n  }\n\n  function addProduct(uint storeNumberGiven, string memory name, string memory description, uint price, uint inventory) public\n  verifyOwner(msg.sender) {\n    productNumber = productNumber + 1;\n\n    products.push(Product({\n      ownerAddress: msg.sender,\n      productNumber: productNumber,\n      storeNumber: storeNumberGiven,\n      name: name,\n      description: description,\n      price: price,\n      inventory: inventory\n    }));\n  }\n\n  function buyProduct(uint productNumberSelected) public payable {\n    Product memory product;\n\n    for (uint i = 0; i < products.length; i++) {\n      if (products[i].productNumber == productNumberSelected) {\n        product = products[i];\n      }\n    }\n\n    product.ownerAddress.transfer(product.price);\n    product.inventory = product.inventory - 1;\n  }\n\n  function getStoresLength() public view returns(uint) {\n    return stores.length;\n  }\n\n  function getProductsLength() public view returns(uint) {\n    return products.length;\n  }\n}\n",
  "sourcePath": "/Users/arsood/Desktop/chain-shop-redux/contracts/Shop.sol",
  "compiler": {
    "name": "solc",
    "version": "0.5.0+commit.1d4f565a.Emscripten.clang"
  },
  "schemaVersion": "3.0.1",
  "updatedAt": "2019-01-11T18:56:28.386Z",
  "devdoc": {
    "methods": {}
  },
  "userdoc": {
    "methods": {}
  }
}