{
  "contractName": "Shop",
  "abi": [
    {
      "constant": true,
      "inputs": [],
      "name": "storeNumber",
      "outputs": [
        {
          "name": "",
          "type": "uint256"
        }
      ],
      "payable": false,
      "stateMutability": "view",
      "type": "function",
      "signature": "0x1cdb717f"
    },
    {
      "constant": true,
      "inputs": [],
      "name": "productNumber",
      "outputs": [
        {
          "name": "",
          "type": "uint256"
        }
      ],
      "payable": false,
      "stateMutability": "view",
      "type": "function",
      "signature": "0x5034735d"
    },
    {
      "constant": true,
      "inputs": [],
      "name": "emergencyStop",
      "outputs": [
        {
          "name": "",
          "type": "bool"
        }
      ],
      "payable": false,
      "stateMutability": "view",
      "type": "function",
      "signature": "0x63a599a4"
    },
    {
      "constant": true,
      "inputs": [
        {
          "name": "",
          "type": "uint256"
        },
        {
          "name": "",
          "type": "uint256"
        }
      ],
      "name": "products",
      "outputs": [
        {
          "name": "productNumber",
          "type": "uint256"
        },
        {
          "name": "name",
          "type": "string"
        },
        {
          "name": "description",
          "type": "string"
        },
        {
          "name": "price",
          "type": "uint256"
        },
        {
          "name": "inventory",
          "type": "uint256"
        },
        {
          "name": "state",
          "type": "uint8"
        }
      ],
      "payable": false,
      "stateMutability": "view",
      "type": "function",
      "signature": "0xa590fbdb"
    },
    {
      "constant": true,
      "inputs": [
        {
          "name": "",
          "type": "address"
        }
      ],
      "name": "users",
      "outputs": [
        {
          "name": "name",
          "type": "string"
        },
        {
          "name": "userType",
          "type": "uint8"
        }
      ],
      "payable": false,
      "stateMutability": "view",
      "type": "function",
      "signature": "0xa87430ba"
    },
    {
      "constant": true,
      "inputs": [],
      "name": "contractOwner",
      "outputs": [
        {
          "name": "",
          "type": "address"
        }
      ],
      "payable": false,
      "stateMutability": "view",
      "type": "function",
      "signature": "0xce606ee0"
    },
    {
      "constant": true,
      "inputs": [
        {
          "name": "",
          "type": "uint256"
        }
      ],
      "name": "stores",
      "outputs": [
        {
          "name": "ownerAddress",
          "type": "address"
        },
        {
          "name": "storeNumber",
          "type": "uint256"
        },
        {
          "name": "name",
          "type": "string"
        },
        {
          "name": "city",
          "type": "string"
        },
        {
          "name": "earnings",
          "type": "uint256"
        },
        {
          "name": "state",
          "type": "uint8"
        }
      ],
      "payable": false,
      "stateMutability": "view",
      "type": "function",
      "signature": "0xe8a59cd8"
    },
    {
      "inputs": [],
      "payable": false,
      "stateMutability": "nonpayable",
      "type": "constructor",
      "signature": "constructor"
    },
    {
      "constant": false,
      "inputs": [],
      "name": "toggleEmergencyStop",
      "outputs": [],
      "payable": false,
      "stateMutability": "nonpayable",
      "type": "function",
      "signature": "0x4b7aac94"
    },
    {
      "constant": false,
      "inputs": [
        {
          "name": "userAddress",
          "type": "address"
        },
        {
          "name": "name",
          "type": "string"
        }
      ],
      "name": "addAdmin",
      "outputs": [],
      "payable": false,
      "stateMutability": "nonpayable",
      "type": "function",
      "signature": "0xd16856ca"
    },
    {
      "constant": false,
      "inputs": [
        {
          "name": "userAddress",
          "type": "address"
        },
        {
          "name": "name",
          "type": "string"
        }
      ],
      "name": "addOwner",
      "outputs": [],
      "payable": false,
      "stateMutability": "nonpayable",
      "type": "function",
      "signature": "0x3542758f"
    },
    {
      "constant": false,
      "inputs": [
        {
          "name": "name",
          "type": "string"
        },
        {
          "name": "city",
          "type": "string"
        }
      ],
      "name": "addStore",
      "outputs": [],
      "payable": false,
      "stateMutability": "nonpayable",
      "type": "function",
      "signature": "0xed48719c"
    },
    {
      "constant": false,
      "inputs": [
        {
          "name": "storeNumberGiven",
          "type": "uint256"
        }
      ],
      "name": "deleteStore",
      "outputs": [],
      "payable": false,
      "stateMutability": "nonpayable",
      "type": "function",
      "signature": "0x7cc69325"
    },
    {
      "constant": false,
      "inputs": [
        {
          "name": "storeNumberGiven",
          "type": "uint256"
        },
        {
          "name": "name",
          "type": "string"
        },
        {
          "name": "city",
          "type": "string"
        }
      ],
      "name": "saveStoreEdits",
      "outputs": [],
      "payable": false,
      "stateMutability": "nonpayable",
      "type": "function",
      "signature": "0xbe1e5980"
    },
    {
      "constant": false,
      "inputs": [
        {
          "name": "storeNumberGiven",
          "type": "uint256"
        },
        {
          "name": "name",
          "type": "string"
        },
        {
          "name": "description",
          "type": "string"
        },
        {
          "name": "price",
          "type": "uint256"
        },
        {
          "name": "inventory",
          "type": "uint256"
        }
      ],
      "name": "addProduct",
      "outputs": [],
      "payable": false,
      "stateMutability": "nonpayable",
      "type": "function",
      "signature": "0x01db5b48"
    },
    {
      "constant": false,
      "inputs": [
        {
          "name": "storeNumberGiven",
          "type": "uint256"
        },
        {
          "name": "productNumberGiven",
          "type": "uint256"
        }
      ],
      "name": "deleteProduct",
      "outputs": [],
      "payable": false,
      "stateMutability": "nonpayable",
      "type": "function",
      "signature": "0xa1c48cc4"
    },
    {
      "constant": false,
      "inputs": [
        {
          "name": "storeNumberGiven",
          "type": "uint256"
        },
        {
          "name": "productNumberGiven",
          "type": "uint256"
        },
        {
          "name": "name",
          "type": "string"
        },
        {
          "name": "description",
          "type": "string"
        },
        {
          "name": "price",
          "type": "uint256"
        },
        {
          "name": "inventory",
          "type": "uint256"
        }
      ],
      "name": "saveProductEdits",
      "outputs": [],
      "payable": false,
      "stateMutability": "nonpayable",
      "type": "function",
      "signature": "0x0b158e8c"
    },
    {
      "constant": false,
      "inputs": [
        {
          "name": "storeNumberGiven",
          "type": "uint256"
        },
        {
          "name": "productNumberGiven",
          "type": "uint256"
        }
      ],
      "name": "buyProduct",
      "outputs": [],
      "payable": true,
      "stateMutability": "payable",
      "type": "function",
      "signature": "0x53b62866"
    },
    {
      "constant": false,
      "inputs": [
        {
          "name": "storeNumberGiven",
          "type": "uint256"
        }
      ],
      "name": "withdrawEarnings",
      "outputs": [],
      "payable": false,
      "stateMutability": "nonpayable",
      "type": "function",
      "signature": "0x6e70096e"
    },
    {
      "constant": true,
      "inputs": [
        {
          "name": "storeNumberGiven",
          "type": "uint256"
        }
      ],
      "name": "getProductsLength",
      "outputs": [
        {
          "name": "",
          "type": "uint256"
        }
      ],
      "payable": false,
      "stateMutability": "view",
      "type": "function",
      "signature": "0x5412fc46"
    }
  ],
  "bytecode": "0x60806040523480156200001157600080fd5b50336000806101000a81548173ffffffffffffffffffffffffffffffffffffffff021916908373ffffffffffffffffffffffffffffffffffffffff16021790555060006001819055506000600260006101000a81548160ff0219169083151502179055506000600481905550600060068190555060408051908101604052806040805190810160405280600b81526020017f53757065722041646d696e000000000000000000000000000000000000000000815250815260200160016002811115620000d957fe5b815250600360003373ffffffffffffffffffffffffffffffffffffffff1673ffffffffffffffffffffffffffffffffffffffff1681526020019081526020016000206000820151816000019080519060200190620001399291906200016d565b5060208201518160010160006101000a81548160ff021916908360028111156200015f57fe5b02179055509050506200021c565b828054600181600116156101000203166002900490600052602060002090601f016020900481019282601f10620001b057805160ff1916838001178555620001e1565b82800160010185558215620001e1579182015b82811115620001e0578251825591602001919060010190620001c3565b5b509050620001f09190620001f4565b5090565b6200021991905b8082111562000215576000816000905550600101620001fb565b5090565b90565b61321d806200022c6000396000f3fe608060405260043610610107576000357c0100000000000000000000000000000000000000000000000000000000900463ffffffff16806301db5b481461010c5780630b158e8c146102895780631cdb717f146104105780633542758f1461043b5780634b7aac94146105235780635034735d1461053a57806353b62866146105655780635412fc461461059d57806363a599a4146105ec5780636e70096e1461061b5780637cc6932514610656578063a1c48cc414610691578063a590fbdb146106d6578063a87430ba1461082a578063be1e598014610909578063ce606ee014610a72578063d16856ca14610ac9578063e8a59cd814610bb1578063ed48719c14610d27575b600080fd5b34801561011857600080fd5b50610287600480360360a081101561012f57600080fd5b81019080803590602001909291908035906020019064010000000081111561015657600080fd5b82018360208201111561016857600080fd5b8035906020019184600183028401116401000000008311171561018a57600080fd5b91908080601f016020809104026020016040519081016040528093929190818152602001838380828437600081840152601f19601f820116905080830192505050505050509192919290803590602001906401000000008111156101ed57600080fd5b8201836020820111156101ff57600080fd5b8035906020019184600183028401116401000000008311171561022157600080fd5b91908080601f016020809104026020016040519081016040528093929190818152602001838380828437600081840152601f19601f8201169050808301925050505050505091929192908035906020019092919080359060200190929190505050610e86565b005b34801561029557600080fd5b5061040e600480360360c08110156102ac57600080fd5b810190808035906020019092919080359060200190929190803590602001906401000000008111156102dd57600080fd5b8201836020820111156102ef57600080fd5b8035906020019184600183028401116401000000008311171561031157600080fd5b91908080601f016020809104026020016040519081016040528093929190818152602001838380828437600081840152601f19601f8201169050808301925050505050505091929192908035906020019064010000000081111561037457600080fd5b82018360208201111561038657600080fd5b803590602001918460018302840111640100000000831117156103a857600080fd5b91908080601f016020809104026020016040519081016040528093929190818152602001838380828437600081840152601f19601f8201169050808301925050505050505091929192908035906020019092919080359060200190929190505050611100565b005b34801561041c57600080fd5b506104256113d5565b6040518082815260200191505060405180910390f35b34801561044757600080fd5b506105216004803603604081101561045e57600080fd5b81019080803573ffffffffffffffffffffffffffffffffffffffff1690602001909291908035906020019064010000000081111561049b57600080fd5b8201836020820111156104ad57600080fd5b803590602001918460018302840111640100000000831117156104cf57600080fd5b91908080601f016020809104026020016040519081016040528093929190818152602001838380828437600081840152601f19601f8201169050808301925050505050505091929192905050506113db565b005b34801561052f57600080fd5b506105386115f1565b005b34801561054657600080fd5b5061054f6116a6565b6040518082815260200191505060405180910390f35b61059b6004803603604081101561057b57600080fd5b8101908080359060200190929190803590602001909291905050506116ac565b005b3480156105a957600080fd5b506105d6600480360360208110156105c057600080fd5b8101908080359060200190929190505050611b84565b6040518082815260200191505060405180910390f35b3480156105f857600080fd5b50610601611c2e565b604051808215151515815260200191505060405180910390f35b34801561062757600080fd5b506106546004803603602081101561063e57600080fd5b8101908080359060200190929190505050611c41565b005b34801561066257600080fd5b5061068f6004803603602081101561067957600080fd5b8101908080359060200190929190505050611f96565b005b34801561069d57600080fd5b506106d4600480360360408110156106b457600080fd5b8101908080359060200190929190803590602001909291905050506122bd565b005b3480156106e257600080fd5b50610719600480360360408110156106f957600080fd5b810190808035906020019092919080359060200190929190505050612566565b60405180878152602001806020018060200186815260200185815260200184600181111561074357fe5b60ff168152602001838103835288818151815260200191508051906020019080838360005b83811015610783578082015181840152602081019050610768565b50505050905090810190601f1680156107b05780820380516001836020036101000a031916815260200191505b50838103825287818151815260200191508051906020019080838360005b838110156107e95780820151818401526020810190506107ce565b50505050905090810190601f1680156108165780820380516001836020036101000a031916815260200191505b509850505050505050505060405180910390f35b34801561083657600080fd5b506108796004803603602081101561084d57600080fd5b81019080803573ffffffffffffffffffffffffffffffffffffffff1690602001909291905050506126fb565b604051808060200183600281111561088d57fe5b60ff168152602001828103825284818151815260200191508051906020019080838360005b838110156108cd5780820151818401526020810190506108b2565b50505050905090810190601f1680156108fa5780820380516001836020036101000a031916815260200191505b50935050505060405180910390f35b34801561091557600080fd5b50610a706004803603606081101561092c57600080fd5b81019080803590602001909291908035906020019064010000000081111561095357600080fd5b82018360208201111561096557600080fd5b8035906020019184600183028401116401000000008311171561098757600080fd5b91908080601f016020809104026020016040519081016040528093929190818152602001838380828437600081840152601f19601f820116905080830192505050505050509192919290803590602001906401000000008111156109ea57600080fd5b8201836020820111156109fc57600080fd5b80359060200191846001830284011164010000000083111715610a1e57600080fd5b91908080601f016020809104026020016040519081016040528093929190818152602001838380828437600081840152601f19601f8201169050808301925050505050505091929192905050506127c4565b005b348015610a7e57600080fd5b50610a87612988565b604051808273ffffffffffffffffffffffffffffffffffffffff1673ffffffffffffffffffffffffffffffffffffffff16815260200191505060405180910390f35b348015610ad557600080fd5b50610baf60048036036040811015610aec57600080fd5b81019080803573ffffffffffffffffffffffffffffffffffffffff16906020019092919080359060200190640100000000811115610b2957600080fd5b820183602082011115610b3b57600080fd5b80359060200191846001830284011164010000000083111715610b5d57600080fd5b91908080601f016020809104026020016040519081016040528093929190818152602001838380828437600081840152601f19601f8201169050808301925050505050505091929192905050506129ad565b005b348015610bbd57600080fd5b50610bea60048036036020811015610bd457600080fd5b8101908080359060200190929190505050612bc4565b604051808773ffffffffffffffffffffffffffffffffffffffff1673ffffffffffffffffffffffffffffffffffffffff1681526020018681526020018060200180602001858152602001846001811115610c4057fe5b60ff168152602001838103835287818151815260200191508051906020019080838360005b83811015610c80578082015181840152602081019050610c65565b50505050905090810190601f168015610cad5780820380516001836020036101000a031916815260200191505b50838103825286818151815260200191508051906020019080838360005b83811015610ce6578082015181840152602081019050610ccb565b50505050905090810190601f168015610d135780820380516001836020036101000a031916815260200191505b509850505050505050505060405180910390f35b348015610d3357600080fd5b50610e8460048036036040811015610d4a57600080fd5b8101908080359060200190640100000000811115610d6757600080fd5b820183602082011115610d7957600080fd5b80359060200191846001830284011164010000000083111715610d9b57600080fd5b91908080601f016020809104026020016040519081016040528093929190818152602001838380828437600081840152601f19601f82011690508083019250505050505050919291929080359060200190640100000000811115610dfe57600080fd5b820183602082011115610e1057600080fd5b80359060200191846001830284011164010000000083111715610e3257600080fd5b91908080601f016020809104026020016040519081016040528093929190818152602001838380828437600081840152601f19601f820116905080830192505050505050509192919290505050612d5d565b005b60001515600260009054906101000a900460ff161515141515610f11576040517f08c379a000000000000000000000000000000000000000000000000000000000815260040180806020018281038252601d8152602001807f436f6e747261637420697320696e20656d657267656e6379206d6f646500000081525060200191505060405180910390fd5b33600280811115610f1e57fe5b600360008373ffffffffffffffffffffffffffffffffffffffff1673ffffffffffffffffffffffffffffffffffffffff16815260200190815260200160002060010160009054906101000a900460ff166002811115610f7957fe5b141515610fee576040517f08c379a00000000000000000000000000000000000000000000000000000000081526004018080602001828103825260158152602001807f55736572206d75737420626520616e206f776e6572000000000000000000000081525060200191505060405180910390fd5b6001600654016006819055506007600087815260200190815260200160002060c06040519081016040528060065481526020018781526020018681526020018581526020018481526020016000600181111561104657fe5b8152509080600181540180825580915050906001820390600052602060002090600602016000909192909190915060008201518160000155602082015181600101908051906020019061109a929190613042565b5060408201518160020190805190602001906110b7929190613042565b50606082015181600301556080820151816004015560a08201518160050160006101000a81548160ff021916908360018111156110f057fe5b0217905550505050505050505050565b60001515600260009054906101000a900460ff16151514151561118b576040517f08c379a000000000000000000000000000000000000000000000000000000000815260040180806020018281038252601d8152602001807f436f6e747261637420697320696e20656d657267656e6379206d6f646500000081525060200191505060405180910390fd5b3360028081111561119857fe5b600360008373ffffffffffffffffffffffffffffffffffffffff1673ffffffffffffffffffffffffffffffffffffffff16815260200190815260200160002060010160009054906101000a900460ff1660028111156111f357fe5b141515611268576040517f08c379a00000000000000000000000000000000000000000000000000000000081526004018080602001828103825260158152602001807f55736572206d75737420626520616e206f776e6572000000000000000000000081525060200191505060405180910390fd5b60008090505b60076000898152602001908152602001600020805490508110156113cb5786600760008a8152602001908152602001600020828154811015156112ad57fe5b90600052602060002090600602016000015414156113be5785600760008a8152602001908152602001600020828154811015156112e657fe5b9060005260206000209060060201600101908051906020019061130a9291906130c2565b5084600760008a81526020019081526020016000208281548110151561132c57fe5b906000526020600020906006020160020190805190602001906113509291906130c2565b5083600760008a81526020019081526020016000208281548110151561137257fe5b90600052602060002090600602016003018190555082600760008a8152602001908152602001600020828154811015156113a857fe5b9060005260206000209060060201600401819055505b808060010191505061126e565b5050505050505050565b60045481565b60001515600260009054906101000a900460ff161515141515611466576040517f08c379a000000000000000000000000000000000000000000000000000000000815260040180806020018281038252601d8152602001807f436f6e747261637420697320696e20656d657267656e6379206d6f646500000081525060200191505060405180910390fd5b336001600281111561147457fe5b600360008373ffffffffffffffffffffffffffffffffffffffff1673ffffffffffffffffffffffffffffffffffffffff16815260200190815260200160002060010160009054906101000a900460ff1660028111156114cf57fe5b141515611544576040517f08c379a00000000000000000000000000000000000000000000000000000000081526004018080602001828103825260158152602001807f55736572206d75737420626520616e2061646d696e000000000000000000000081525060200191505060405180910390fd5b604080519081016040528083815260200160028081111561156157fe5b815250600360008573ffffffffffffffffffffffffffffffffffffffff1673ffffffffffffffffffffffffffffffffffffffff16815260200190815260200160002060008201518160000190805190602001906115bf929190613042565b5060208201518160010160006101000a81548160ff021916908360028111156115e457fe5b0217905550905050505050565b6000809054906101000a900473ffffffffffffffffffffffffffffffffffffffff1673ffffffffffffffffffffffffffffffffffffffff163373ffffffffffffffffffffffffffffffffffffffff1614151561164c57600080fd5b60001515600260009054906101000a900460ff1615151415611688576001600260006101000a81548160ff0219169083151502179055506116a4565b6000600260006101000a81548160ff0219169083151502179055505b565b60065481565b60001515600260009054906101000a900460ff161515141515611737576040517f08c379a000000000000000000000000000000000000000000000000000000000815260040180806020018281038252601d8152602001807f436f6e747261637420697320696e20656d657267656e6379206d6f646500000081525060200191505060405180910390fd5b61173f613142565b60008090505b6007600085815260200190815260200160002080549050811015611a895782600760008681526020019081526020016000208281548110151561178457fe5b9060005260206000209060060201600001541415611a7c5760076000858152602001908152602001600020818154811015156117bc57fe5b906000526020600020906006020160c0604051908101604052908160008201548152602001600182018054600181600116156101000203166002900480601f0160208091040260200160405190810160405280929190818152602001828054600181600116156101000203166002900480156118795780601f1061184e57610100808354040283529160200191611879565b820191906000526020600020905b81548152906001019060200180831161185c57829003601f168201915b50505050508152602001600282018054600181600116156101000203166002900480601f01602080910402602001604051908101604052809291908181526020018280546001816001161561010002031660029004801561191b5780601f106118f05761010080835404028352916020019161191b565b820191906000526020600020905b8154815290600101906020018083116118fe57829003601f168201915b5050505050815260200160038201548152602001600482015481526020016005820160009054906101000a900460ff16600181111561195657fe5b600181111561196157fe5b8152505091506001826080015110151515611a0a576040517f08c379a00000000000000000000000000000000000000000000000000000000081526004018080602001828103825260298152602001807f53746f7265206d757374206861766520696e76656e746f7279206f662074686981526020017f732070726f64756374000000000000000000000000000000000000000000000081525060400191505060405180910390fd5b611a466007600086815260200190815260200160002082815481101515611a2d57fe5b9060005260206000209060060201600401546001612fff565b6007600086815260200190815260200160002082815481101515611a6657fe5b9060005260206000209060060201600401819055505b8080600101915050611745565b50348160600151141515611b2b576040517f08c379a000000000000000000000000000000000000000000000000000000000815260040180806020018281038252602a8152602001807f50726f6475637420707269636520616e642076616c75652073656e74206d757381526020017f7420626520657175616c0000000000000000000000000000000000000000000081525060400191505060405180910390fd5b611b3b6001548260600151613021565b600181905550611b6560056000858152602001908152602001600020600401548260600151613021565b6005600085815260200190815260200160002060040181905550505050565b6000801515600260009054906101000a900460ff161515141515611c10576040517f08c379a000000000000000000000000000000000000000000000000000000000815260040180806020018281038252601d8152602001807f436f6e747261637420697320696e20656d657267656e6379206d6f646500000081525060200191505060405180910390fd5b60076000838152602001908152602001600020805490509050919050565b600260009054906101000a900460ff1681565b60001515600260009054906101000a900460ff161515141515611ccc576040517f08c379a000000000000000000000000000000000000000000000000000000000815260040180806020018281038252601d8152602001807f436f6e747261637420697320696e20656d657267656e6379206d6f646500000081525060200191505060405180910390fd5b33600280811115611cd957fe5b600360008373ffffffffffffffffffffffffffffffffffffffff1673ffffffffffffffffffffffffffffffffffffffff16815260200190815260200160002060010160009054906101000a900460ff166002811115611d3457fe5b141515611da9576040517f08c379a00000000000000000000000000000000000000000000000000000000081526004018080602001828103825260158152602001807f55736572206d75737420626520616e206f776e6572000000000000000000000081525060200191505060405180910390fd5b600560008381526020019081526020016000206004015460015410151515611e5f576040517f08c379a000000000000000000000000000000000000000000000000000000000815260040180806020018281038252603c8152602001807f436f6e7472616374206d757374206861766520656e6f7567682062616c616e6381526020017f6520746f2070726f636573732074686973207769746864726177616c0000000081525060400191505060405180910390fd5b60006005600084815260200190815260200160002060040154111515611f13576040517f08c379a00000000000000000000000000000000000000000000000000000000081526004018080602001828103825260218152602001807f53746f7265206d757374206861766520706f736974697665206561726e696e6781526020017f730000000000000000000000000000000000000000000000000000000000000081525060400191505060405180910390fd5b600060056000848152602001908152602001600020600401549050600060056000858152602001908152602001600020600401819055503373ffffffffffffffffffffffffffffffffffffffff166108fc829081150290604051600060405180830381858888f19350505050158015611f90573d6000803e3d6000fd5b50505050565b60001515600260009054906101000a900460ff161515141515612021576040517f08c379a000000000000000000000000000000000000000000000000000000000815260040180806020018281038252601d8152602001807f436f6e747261637420697320696e20656d657267656e6379206d6f646500000081525060200191505060405180910390fd5b3360028081111561202e57fe5b600360008373ffffffffffffffffffffffffffffffffffffffff1673ffffffffffffffffffffffffffffffffffffffff16815260200190815260200160002060010160009054906101000a900460ff16600281111561208957fe5b1415156120fe576040517f08c379a00000000000000000000000000000000000000000000000000000000081526004018080602001828103825260158152602001807f55736572206d75737420626520616e206f776e6572000000000000000000000081525060200191505060405180910390fd5b60056000838152602001908152602001600020600080820160006101000a81549073ffffffffffffffffffffffffffffffffffffffff021916905560018201600090556002820160006121519190613184565b6003820160006121619190613184565b60048201600090556005820160006101000a81549060ff0219169055505060016005600084815260200190815260200160002060050160006101000a81548160ff021916908360018111156121b257fe5b021790555060008090505b60076000848152602001908152602001600020805490508110156122b85760076000848152602001908152602001600020818154811015156121fb57fe5b90600052602060002090600602016000808201600090556001820160006122229190613184565b6002820160006122329190613184565b600382016000905560048201600090556005820160006101000a81549060ff021916905550506001600760008581526020019081526020016000208281548110151561227a57fe5b906000526020600020906006020160050160006101000a81548160ff021916908360018111156122a657fe5b021790555080806001019150506121bd565b505050565b60001515600260009054906101000a900460ff161515141515612348576040517f08c379a000000000000000000000000000000000000000000000000000000000815260040180806020018281038252601d8152602001807f436f6e747261637420697320696e20656d657267656e6379206d6f646500000081525060200191505060405180910390fd5b3360028081111561235557fe5b600360008373ffffffffffffffffffffffffffffffffffffffff1673ffffffffffffffffffffffffffffffffffffffff16815260200190815260200160002060010160009054906101000a900460ff1660028111156123b057fe5b141515612425576040517f08c379a00000000000000000000000000000000000000000000000000000000081526004018080602001828103825260158152602001807f55736572206d75737420626520616e206f776e6572000000000000000000000081525060200191505060405180910390fd5b60008090505b60076000858152602001908152602001600020805490508110156125605782600760008681526020019081526020016000208281548110151561246a57fe5b90600052602060002090600602016000015414156125535760076000858152602001908152602001600020818154811015156124a257fe5b90600052602060002090600602016000808201600090556001820160006124c99190613184565b6002820160006124d99190613184565b600382016000905560048201600090556005820160006101000a81549060ff021916905550506001600760008681526020019081526020016000208281548110151561252157fe5b906000526020600020906006020160050160006101000a81548160ff0219169083600181111561254d57fe5b02179055505b808060010191505061242b565b50505050565b60076020528160005260406000208181548110151561258157fe5b906000526020600020906006020160009150915050806000015490806001018054600181600116156101000203166002900480601f0160208091040260200160405190810160405280929190818152602001828054600181600116156101000203166002900480156126345780601f1061260957610100808354040283529160200191612634565b820191906000526020600020905b81548152906001019060200180831161261757829003601f168201915b505050505090806002018054600181600116156101000203166002900480601f0160208091040260200160405190810160405280929190818152602001828054600181600116156101000203166002900480156126d25780601f106126a7576101008083540402835291602001916126d2565b820191906000526020600020905b8154815290600101906020018083116126b557829003601f168201915b5050505050908060030154908060040154908060050160009054906101000a900460ff16905086565b6003602052806000526040600020600091509050806000018054600181600116156101000203166002900480601f0160208091040260200160405190810160405280929190818152602001828054600181600116156101000203166002900480156127a75780601f1061277c576101008083540402835291602001916127a7565b820191906000526020600020905b81548152906001019060200180831161278a57829003601f168201915b5050505050908060010160009054906101000a900460ff16905082565b60001515600260009054906101000a900460ff16151514151561284f576040517f08c379a000000000000000000000000000000000000000000000000000000000815260040180806020018281038252601d8152602001807f436f6e747261637420697320696e20656d657267656e6379206d6f646500000081525060200191505060405180910390fd5b3360028081111561285c57fe5b600360008373ffffffffffffffffffffffffffffffffffffffff1673ffffffffffffffffffffffffffffffffffffffff16815260200190815260200160002060010160009054906101000a900460ff1660028111156128b757fe5b14151561292c576040517f08c379a00000000000000000000000000000000000000000000000000000000081526004018080602001828103825260158152602001807f55736572206d75737420626520616e206f776e6572000000000000000000000081525060200191505060405180910390fd5b826005600086815260200190815260200160002060020190805190602001906129569291906130c2565b50816005600086815260200190815260200160002060030190805190602001906129819291906130c2565b5050505050565b6000809054906101000a900473ffffffffffffffffffffffffffffffffffffffff1681565b60001515600260009054906101000a900460ff161515141515612a38576040517f08c379a000000000000000000000000000000000000000000000000000000000815260040180806020018281038252601d8152602001807f436f6e747261637420697320696e20656d657267656e6379206d6f646500000081525060200191505060405180910390fd5b3360016002811115612a4657fe5b600360008373ffffffffffffffffffffffffffffffffffffffff1673ffffffffffffffffffffffffffffffffffffffff16815260200190815260200160002060010160009054906101000a900460ff166002811115612aa157fe5b141515612b16576040517f08c379a00000000000000000000000000000000000000000000000000000000081526004018080602001828103825260158152602001807f55736572206d75737420626520616e2061646d696e000000000000000000000081525060200191505060405180910390fd5b604080519081016040528083815260200160016002811115612b3457fe5b815250600360008573ffffffffffffffffffffffffffffffffffffffff1673ffffffffffffffffffffffffffffffffffffffff1681526020019081526020016000206000820151816000019080519060200190612b92929190613042565b5060208201518160010160006101000a81548160ff02191690836002811115612bb757fe5b0217905550905050505050565b60056020528060005260406000206000915090508060000160009054906101000a900473ffffffffffffffffffffffffffffffffffffffff1690806001015490806002018054600181600116156101000203166002900480601f016020809104026020016040519081016040528092919081815260200182805460018160011615610100020316600290048015612c9c5780601f10612c7157610100808354040283529160200191612c9c565b820191906000526020600020905b815481529060010190602001808311612c7f57829003601f168201915b505050505090806003018054600181600116156101000203166002900480601f016020809104026020016040519081016040528092919081815260200182805460018160011615610100020316600290048015612d3a5780601f10612d0f57610100808354040283529160200191612d3a565b820191906000526020600020905b815481529060010190602001808311612d1d57829003601f168201915b5050505050908060040154908060050160009054906101000a900460ff16905086565b60001515600260009054906101000a900460ff161515141515612de8576040517f08c379a000000000000000000000000000000000000000000000000000000000815260040180806020018281038252601d8152602001807f436f6e747261637420697320696e20656d657267656e6379206d6f646500000081525060200191505060405180910390fd5b33600280811115612df557fe5b600360008373ffffffffffffffffffffffffffffffffffffffff1673ffffffffffffffffffffffffffffffffffffffff16815260200190815260200160002060010160009054906101000a900460ff166002811115612e5057fe5b141515612ec5576040517f08c379a00000000000000000000000000000000000000000000000000000000081526004018080602001828103825260158152602001807f55736572206d75737420626520616e206f776e6572000000000000000000000081525060200191505060405180910390fd5b60016004540160048190555060c0604051908101604052803373ffffffffffffffffffffffffffffffffffffffff16815260200160045481526020018481526020018381526020016000815260200160006001811115612f2157fe5b81525060056000600454815260200190815260200160002060008201518160000160006101000a81548173ffffffffffffffffffffffffffffffffffffffff021916908373ffffffffffffffffffffffffffffffffffffffff160217905550602082015181600101556040820151816002019080519060200190612fa6929190613042565b506060820151816003019080519060200190612fc3929190613042565b506080820151816004015560a08201518160050160006101000a81548160ff02191690836001811115612ff257fe5b0217905550905050505050565b600082821115151561301057600080fd5b600082840390508091505092915050565b600080828401905083811015151561303857600080fd5b8091505092915050565b828054600181600116156101000203166002900490600052602060002090601f016020900481019282601f1061308357805160ff19168380011785556130b1565b828001600101855582156130b1579182015b828111156130b0578251825591602001919060010190613095565b5b5090506130be91906131cc565b5090565b828054600181600116156101000203166002900490600052602060002090601f016020900481019282601f1061310357805160ff1916838001178555613131565b82800160010185558215613131579182015b82811115613130578251825591602001919060010190613115565b5b50905061313e91906131cc565b5090565b60c06040519081016040528060008152602001606081526020016060815260200160008152602001600081526020016000600181111561317e57fe5b81525090565b50805460018160011615610100020316600290046000825580601f106131aa57506131c9565b601f0160209004906000526020600020908101906131c891906131cc565b5b50565b6131ee91905b808211156131ea5760008160009055506001016131d2565b5090565b9056fea165627a7a72305820807e326a240f43b489d2e58bcd4281b7d962072156ebc0fb1a52a0aa8d5ee2720029",
  "source": "pragma solidity ^0.5.0;\n\nimport \"../libraries/SafeMath.sol\";\n\ncontract Shop {\n  using SafeMath for uint256;\n\n  enum UserType { Guest, Admin, Owner }\n  enum State { Active, Deleted }\n\n  struct User {\n    string name;\n    UserType userType;\n  }\n\n  struct Store {\n    address ownerAddress;\n    uint256 storeNumber;\n    string name;\n    string city;\n    uint256 earnings;\n    State state;\n  }\n\n  struct Product {\n    uint256 productNumber;\n    string name;\n    string description;\n    uint256 price;\n    uint256 inventory;\n    State state;\n  }\n\n  // Contract owner state\n  address public contractOwner;\n  uint256 private contractBalance;\n  bool public emergencyStop;\n\n  // User state\n  mapping (address => User) public users;\n\n  // Store state\n  uint256 public storeNumber;\n  mapping (uint256 => Store) public stores;\n\n  // Product state\n  uint256 public productNumber;\n  mapping (uint256 => Product[]) public products;\n\n  modifier verifyAdmin(address userAddress) {\n    require(users[userAddress].userType == UserType.Admin, \"User must be an admin\");\n    _;\n  }\n\n  modifier verifyOwner(address ownerAddress) {\n    require(users[ownerAddress].userType == UserType.Owner, \"User must be an owner\");\n    _;\n  }\n\n  modifier ensureNoEmergency() {\n    require(emergencyStop == false, \"Contract is in emergency mode\");\n    _;\n  }\n\n  constructor() public {\n    // Initializing state\n    contractOwner = msg.sender;\n    contractBalance = 0;\n    emergencyStop = false;\n    storeNumber = 0;\n    productNumber = 0;\n\n    // Add contract owner as an admin\n    users[msg.sender] = User({\n      name: \"Super Admin\",\n      userType: UserType.Admin\n    });\n  }\n\n  /*\n  @dev Toggles the emergency stop boolean\n  */\n  function toggleEmergencyStop() public {\n    require(msg.sender == contractOwner);\n\n    if (emergencyStop == false) {\n      emergencyStop = true;\n    } else {\n      emergencyStop = false;\n    }\n  }\n\n  /*\n  @dev Adds an admin tied to a user's address\n  @param userAddress Address of user to add as admin\n  @param name Name of admin user\n  */\n  function addAdmin(address userAddress, string memory name) public\n  ensureNoEmergency()\n  verifyAdmin(msg.sender) {\n    users[userAddress] = User({\n      name: name,\n      userType: UserType.Admin\n    });\n  }\n\n  /*\n  @dev Adds an owner tied to a user's address\n  @param userAddress Address of user to add as owner\n  @param name Name of owner user\n  */\n  function addOwner(address userAddress, string memory name) public\n  ensureNoEmergency()\n  verifyAdmin(msg.sender) {\n    users[userAddress] = User({\n      name: name,\n      userType: UserType.Owner\n    });\n  }\n\n  /*\n  @dev Adds a store tied to a specific owner\n  @param name Name of the store\n  @param city City of the store\n  */\n  function addStore(string memory name, string memory city) public\n  ensureNoEmergency()\n  verifyOwner(msg.sender) {\n    storeNumber = storeNumber + 1;\n\n    stores[storeNumber] = Store({\n      ownerAddress: msg.sender,\n      storeNumber: storeNumber,\n      name: name,\n      city: city,\n      earnings: 0,\n      state: State.Active\n    });\n  }\n\n  /*\n  @dev Deletes a store by its number assigned upon creation\n  @param storeNumberGiven Store number provided\n  */\n  function deleteStore(uint256 storeNumberGiven) public\n  ensureNoEmergency()\n  verifyOwner(msg.sender) {\n    delete stores[storeNumberGiven];\n\n    stores[storeNumberGiven].state = State.Deleted;\n\n    for (uint256 i = 0; i < products[storeNumberGiven].length; i++) {\n      delete products[storeNumberGiven][i];\n\n      products[storeNumberGiven][i].state = State.Deleted;\n    }\n  }\n\n  /*\n  @dev Saves the edits to a specific store using its store number\n  @param storeNumberGiven Number of the store that was assigned on creation\n  @param name Name of the store to edit\n  @param city City of the store to edit\n  */\n  function saveStoreEdits(uint256 storeNumberGiven, string memory name, string memory city) public\n  ensureNoEmergency()\n  verifyOwner(msg.sender) {\n    stores[storeNumberGiven].name = name;\n    stores[storeNumberGiven].city = city;\n  }\n\n  /*\n  @dev Adds a product to an existing store\n  @param storeNumberGiven Number of store to add a product to\n  @param name Name of the new product\n  @param description Description of the new product\n  @param price Price of the new product in Wei\n  @param inventory Inventory number of the product\n  */\n  function addProduct(uint256 storeNumberGiven, string memory name, string memory description, uint256 price, uint256 inventory) public\n  ensureNoEmergency()\n  verifyOwner(msg.sender) {\n    productNumber = productNumber + 1;\n\n    products[storeNumberGiven].push(Product({\n      productNumber: productNumber,\n      name: name,\n      description: description,\n      price: price,\n      inventory: inventory,\n      state: State.Active\n    }));\n  }\n\n  /*\n  @dev Deletes a specific product via its associated store number and product number assined\n  @param storeNumberGiven Number of store that the product is tied to\n  @param productNumberGiven Product number assigned during creation\n  */\n  function deleteProduct(uint256 storeNumberGiven, uint256 productNumberGiven) public\n  ensureNoEmergency()\n  verifyOwner(msg.sender) {\n    for (uint256 i = 0; i < products[storeNumberGiven].length; i++) {\n      if (products[storeNumberGiven][i].productNumber == productNumberGiven) {\n        delete products[storeNumberGiven][i];\n\n        products[storeNumberGiven][i].state = State.Deleted;\n      }\n    }\n  }\n\n  /*\n  @dev Saves edits to a specific product\n  @param storeNumberGiven Store number that the product is tied to\n  @param productNumberGiven Product number assigned to specific product\n  @param name Edited name of product\n  @param description Edited description of product\n  @param price Edited price of the product\n  @param inventory Edited inventory of product\n  */\n  function saveProductEdits(uint256 storeNumberGiven, uint256 productNumberGiven, string memory name, string memory description, uint256 price, uint256 inventory) public\n  ensureNoEmergency()\n  verifyOwner(msg.sender) {\n    for (uint256 i = 0; i < products[storeNumberGiven].length; i++) {\n      if (products[storeNumberGiven][i].productNumber == productNumberGiven) {\n        products[storeNumberGiven][i].name = name;\n        products[storeNumberGiven][i].description = description;\n        products[storeNumberGiven][i].price = price;\n        products[storeNumberGiven][i].inventory = inventory;\n      }\n    }\n  }\n\n  /*\n  @dev Allows a guest user to buy a specific product with Ether\n  @param storeNumberGiven Store number that product is associated with\n  @param productNumberGiven Specific number of product to be purchased\n  */\n  function buyProduct(uint256 storeNumberGiven, uint256 productNumberGiven) public payable\n  ensureNoEmergency() {\n    Product memory product;\n\n    for (uint256 i = 0; i < products[storeNumberGiven].length; i++) {\n      if (products[storeNumberGiven][i].productNumber == productNumberGiven) {\n        product = products[storeNumberGiven][i];\n\n        require(product.inventory >= 1, \"Store must have inventory of this product\");\n\n        products[storeNumberGiven][i].inventory = SafeMath.sub(products[storeNumberGiven][i].inventory, 1);\n      }\n    }\n\n    require(product.price == msg.value, \"Product price and value sent must be equal\");\n\n    contractBalance = SafeMath.add(contractBalance, product.price);\n\n    stores[storeNumberGiven].earnings = SafeMath.add(stores[storeNumberGiven].earnings, product.price);\n  }\n\n  /*\n  @dev Allows owner user to withdraw earnings for a specific store\n  @param storeNumberGiven Store number for store to withdraw funds from\n  */\n  function withdrawEarnings(uint256 storeNumberGiven) public\n  ensureNoEmergency()\n  verifyOwner(msg.sender) {\n    require(contractBalance >= stores[storeNumberGiven].earnings, \"Contract must have enough balance to process this withdrawal\");\n    require(stores[storeNumberGiven].earnings > 0, \"Store must have positive earnings\");\n    \n    uint256 amountToWithdraw = stores[storeNumberGiven].earnings;\n\n    stores[storeNumberGiven].earnings = 0;\n\n    msg.sender.transfer(amountToWithdraw);\n  }\n\n  /*\n  @dev Returns the length of the products array for a specific store\n  @param storeNumberGiven Specific store number\n  @return Length of products array associated with specific store\n  */\n  function getProductsLength(uint256 storeNumberGiven) public view\n  ensureNoEmergency()\n  returns(uint256) {\n    return products[storeNumberGiven].length;\n  }\n}\n",
  "sourcePath": "/Users/asood/Desktop/consensys/chain-shop-redux/contracts/Shop.sol",
  "compiler": {
    "name": "solc",
    "version": "0.5.0+commit.1d4f565a.Emscripten.clang"
  },
  "schemaVersion": "3.0.1",
  "updatedAt": "2019-01-17T19:59:38.234Z",
  "devdoc": {
    "methods": {}
  },
  "userdoc": {
    "methods": {}
  }
}