{
  "contractName": "Shop",
  "abi": [
    {
      "constant": true,
      "inputs": [],
      "name": "storeNumber",
      "outputs": [
        {
          "name": "",
          "type": "uint256"
        }
      ],
      "payable": false,
      "stateMutability": "view",
      "type": "function",
      "signature": "0x1cdb717f"
    },
    {
      "constant": true,
      "inputs": [],
      "name": "productNumber",
      "outputs": [
        {
          "name": "",
          "type": "uint256"
        }
      ],
      "payable": false,
      "stateMutability": "view",
      "type": "function",
      "signature": "0x5034735d"
    },
    {
      "constant": true,
      "inputs": [
        {
          "name": "",
          "type": "uint256"
        },
        {
          "name": "",
          "type": "uint256"
        }
      ],
      "name": "products",
      "outputs": [
        {
          "name": "productNumber",
          "type": "uint256"
        },
        {
          "name": "name",
          "type": "string"
        },
        {
          "name": "description",
          "type": "string"
        },
        {
          "name": "price",
          "type": "uint256"
        },
        {
          "name": "inventory",
          "type": "uint256"
        },
        {
          "name": "state",
          "type": "uint8"
        }
      ],
      "payable": false,
      "stateMutability": "view",
      "type": "function",
      "signature": "0xa590fbdb"
    },
    {
      "constant": true,
      "inputs": [
        {
          "name": "",
          "type": "address"
        }
      ],
      "name": "users",
      "outputs": [
        {
          "name": "name",
          "type": "string"
        },
        {
          "name": "userType",
          "type": "uint8"
        }
      ],
      "payable": false,
      "stateMutability": "view",
      "type": "function",
      "signature": "0xa87430ba"
    },
    {
      "constant": true,
      "inputs": [
        {
          "name": "",
          "type": "uint256"
        }
      ],
      "name": "stores",
      "outputs": [
        {
          "name": "ownerAddress",
          "type": "address"
        },
        {
          "name": "storeNumber",
          "type": "uint256"
        },
        {
          "name": "name",
          "type": "string"
        },
        {
          "name": "city",
          "type": "string"
        },
        {
          "name": "earnings",
          "type": "uint256"
        },
        {
          "name": "state",
          "type": "uint8"
        }
      ],
      "payable": false,
      "stateMutability": "view",
      "type": "function",
      "signature": "0xe8a59cd8"
    },
    {
      "inputs": [],
      "payable": false,
      "stateMutability": "nonpayable",
      "type": "constructor",
      "signature": "constructor"
    },
    {
      "constant": false,
      "inputs": [
        {
          "name": "userAddress",
          "type": "address"
        },
        {
          "name": "name",
          "type": "string"
        }
      ],
      "name": "addAdmin",
      "outputs": [],
      "payable": false,
      "stateMutability": "nonpayable",
      "type": "function",
      "signature": "0xd16856ca"
    },
    {
      "constant": false,
      "inputs": [
        {
          "name": "userAddress",
          "type": "address"
        },
        {
          "name": "name",
          "type": "string"
        }
      ],
      "name": "addOwner",
      "outputs": [],
      "payable": false,
      "stateMutability": "nonpayable",
      "type": "function",
      "signature": "0x3542758f"
    },
    {
      "constant": false,
      "inputs": [
        {
          "name": "name",
          "type": "string"
        },
        {
          "name": "city",
          "type": "string"
        }
      ],
      "name": "addStore",
      "outputs": [],
      "payable": false,
      "stateMutability": "nonpayable",
      "type": "function",
      "signature": "0xed48719c"
    },
    {
      "constant": false,
      "inputs": [
        {
          "name": "storeNumberGiven",
          "type": "uint256"
        }
      ],
      "name": "deleteStore",
      "outputs": [],
      "payable": false,
      "stateMutability": "nonpayable",
      "type": "function",
      "signature": "0x7cc69325"
    },
    {
      "constant": false,
      "inputs": [
        {
          "name": "storeNumberGiven",
          "type": "uint256"
        },
        {
          "name": "name",
          "type": "string"
        },
        {
          "name": "city",
          "type": "string"
        }
      ],
      "name": "saveStoreEdits",
      "outputs": [],
      "payable": false,
      "stateMutability": "nonpayable",
      "type": "function",
      "signature": "0xbe1e5980"
    },
    {
      "constant": false,
      "inputs": [
        {
          "name": "storeNumberGiven",
          "type": "uint256"
        },
        {
          "name": "name",
          "type": "string"
        },
        {
          "name": "description",
          "type": "string"
        },
        {
          "name": "price",
          "type": "uint256"
        },
        {
          "name": "inventory",
          "type": "uint256"
        }
      ],
      "name": "addProduct",
      "outputs": [],
      "payable": false,
      "stateMutability": "nonpayable",
      "type": "function",
      "signature": "0x01db5b48"
    },
    {
      "constant": false,
      "inputs": [
        {
          "name": "storeNumberGiven",
          "type": "uint256"
        },
        {
          "name": "productNumberGiven",
          "type": "uint256"
        }
      ],
      "name": "deleteProduct",
      "outputs": [],
      "payable": false,
      "stateMutability": "nonpayable",
      "type": "function",
      "signature": "0xa1c48cc4"
    },
    {
      "constant": false,
      "inputs": [
        {
          "name": "storeNumberGiven",
          "type": "uint256"
        },
        {
          "name": "productNumberGiven",
          "type": "uint256"
        }
      ],
      "name": "buyProduct",
      "outputs": [],
      "payable": true,
      "stateMutability": "payable",
      "type": "function",
      "signature": "0x53b62866"
    },
    {
      "constant": false,
      "inputs": [
        {
          "name": "storeNumberGiven",
          "type": "uint256"
        }
      ],
      "name": "withdrawEarnings",
      "outputs": [],
      "payable": false,
      "stateMutability": "nonpayable",
      "type": "function",
      "signature": "0x6e70096e"
    },
    {
      "constant": true,
      "inputs": [],
      "name": "getStoresLength",
      "outputs": [
        {
          "name": "",
          "type": "uint256"
        }
      ],
      "payable": false,
      "stateMutability": "view",
      "type": "function",
      "signature": "0x86a9bd11"
    },
    {
      "constant": true,
      "inputs": [
        {
          "name": "storeNumberGiven",
          "type": "uint256"
        }
      ],
      "name": "getProductsLength",
      "outputs": [
        {
          "name": "",
          "type": "uint256"
        }
      ],
      "payable": false,
      "stateMutability": "view",
      "type": "function",
      "signature": "0x5412fc46"
    }
  ],
  "bytecode": "0x60806040523480156200001157600080fd5b50600080819055506000600281905550600060048190555060408051908101604052806040805190810160405280600b81526020017f53757065722041646d696e0000000000000000000000000000000000000000008152508152602001600160028111156200007d57fe5b815250600160003373ffffffffffffffffffffffffffffffffffffffff1673ffffffffffffffffffffffffffffffffffffffff1681526020019081526020016000206000820151816000019080519060200190620000dd92919062000111565b5060208201518160010160006101000a81548160ff021916908360028111156200010357fe5b0217905550905050620001c0565b828054600181600116156101000203166002900490600052602060002090601f016020900481019282601f106200015457805160ff191683800117855562000185565b8280016001018555821562000185579182015b828111156200018457825182559160200191906001019062000167565b5b50905062000194919062000198565b5090565b620001bd91905b80821115620001b95760008160009055506001016200019f565b5090565b90565b61268580620001d06000396000f3fe6080604052600436106100e6576000357c0100000000000000000000000000000000000000000000000000000000900463ffffffff16806301db5b48146100eb5780631cdb717f146102685780633542758f146102935780635034735d1461037b57806353b62866146103a65780635412fc46146103de5780636e70096e1461042d5780637cc693251461046857806386a9bd11146104a3578063a1c48cc4146104ce578063a590fbdb14610513578063a87430ba14610667578063be1e598014610746578063d16856ca146108af578063e8a59cd814610997578063ed48719c14610b0d575b600080fd5b3480156100f757600080fd5b50610266600480360360a081101561010e57600080fd5b81019080803590602001909291908035906020019064010000000081111561013557600080fd5b82018360208201111561014757600080fd5b8035906020019184600183028401116401000000008311171561016957600080fd5b91908080601f016020809104026020016040519081016040528093929190818152602001838380828437600081840152601f19601f820116905080830192505050505050509192919290803590602001906401000000008111156101cc57600080fd5b8201836020820111156101de57600080fd5b8035906020019184600183028401116401000000008311171561020057600080fd5b91908080601f016020809104026020016040519081016040528093929190818152602001838380828437600081840152601f19601f8201169050808301925050505050505091929192908035906020019092919080359060200190929190505050610c6c565b005b34801561027457600080fd5b5061027d610e5b565b6040518082815260200191505060405180910390f35b34801561029f57600080fd5b50610379600480360360408110156102b657600080fd5b81019080803573ffffffffffffffffffffffffffffffffffffffff169060200190929190803590602001906401000000008111156102f357600080fd5b82018360208201111561030557600080fd5b8035906020019184600183028401116401000000008311171561032757600080fd5b91908080601f016020809104026020016040519081016040528093929190818152602001838380828437600081840152601f19601f820116905080830192505050505050509192919290505050610e61565b005b34801561038757600080fd5b50610390610fec565b6040518082815260200191505060405180910390f35b6103dc600480360360408110156103bc57600080fd5b810190808035906020019092919080359060200190929190505050610ff2565b005b3480156103ea57600080fd5b506104176004803603602081101561040157600080fd5b8101908080359060200190929190505050611473565b6040518082815260200191505060405180910390f35b34801561043957600080fd5b506104666004803603602081101561045057600080fd5b8101908080359060200190929190505050611493565b005b34801561047457600080fd5b506104a16004803603602081101561048b57600080fd5b810190808035906020019092919050505061162d565b005b3480156104af57600080fd5b506104b8611927565b6040518082815260200191505060405180910390f35b3480156104da57600080fd5b50610511600480360360408110156104f157600080fd5b810190808035906020019092919080359060200190929190505050611934565b005b34801561051f57600080fd5b506105566004803603604081101561053657600080fd5b810190808035906020019092919080359060200190929190505050611b52565b60405180878152602001806020018060200186815260200185815260200184600181111561058057fe5b60ff168152602001838103835288818151815260200191508051906020019080838360005b838110156105c05780820151818401526020810190506105a5565b50505050905090810190601f1680156105ed5780820380516001836020036101000a031916815260200191505b50838103825287818151815260200191508051906020019080838360005b8381101561062657808201518184015260208101905061060b565b50505050905090810190601f1680156106535780820380516001836020036101000a031916815260200191505b509850505050505050505060405180910390f35b34801561067357600080fd5b506106b66004803603602081101561068a57600080fd5b81019080803573ffffffffffffffffffffffffffffffffffffffff169060200190929190505050611ce7565b60405180806020018360028111156106ca57fe5b60ff168152602001828103825284818151815260200191508051906020019080838360005b8381101561070a5780820151818401526020810190506106ef565b50505050905090810190601f1680156107375780820380516001836020036101000a031916815260200191505b50935050505060405180910390f35b34801561075257600080fd5b506108ad6004803603606081101561076957600080fd5b81019080803590602001909291908035906020019064010000000081111561079057600080fd5b8201836020820111156107a257600080fd5b803590602001918460018302840111640100000000831117156107c457600080fd5b91908080601f016020809104026020016040519081016040528093929190818152602001838380828437600081840152601f19601f8201169050808301925050505050505091929192908035906020019064010000000081111561082757600080fd5b82018360208201111561083957600080fd5b8035906020019184600183028401116401000000008311171561085b57600080fd5b91908080601f016020809104026020016040519081016040528093929190818152602001838380828437600081840152601f19601f820116905080830192505050505050509192919290505050611db0565b005b3480156108bb57600080fd5b50610995600480360360408110156108d257600080fd5b81019080803573ffffffffffffffffffffffffffffffffffffffff1690602001909291908035906020019064010000000081111561090f57600080fd5b82018360208201111561092157600080fd5b8035906020019184600183028401116401000000008311171561094357600080fd5b91908080601f016020809104026020016040519081016040528093929190818152602001838380828437600081840152601f19601f820116905080830192505050505050509192919290505050611f47565b005b3480156109a357600080fd5b506109d0600480360360208110156109ba57600080fd5b81019080803590602001909291905050506120d3565b604051808773ffffffffffffffffffffffffffffffffffffffff1673ffffffffffffffffffffffffffffffffffffffff1681526020018681526020018060200180602001858152602001846001811115610a2657fe5b60ff168152602001838103835287818151815260200191508051906020019080838360005b83811015610a66578082015181840152602081019050610a4b565b50505050905090810190601f168015610a935780820380516001836020036101000a031916815260200191505b50838103825286818151815260200191508051906020019080838360005b83811015610acc578082015181840152602081019050610ab1565b50505050905090810190601f168015610af95780820380516001836020036101000a031916815260200191505b509850505050505050505060405180910390f35b348015610b1957600080fd5b50610c6a60048036036040811015610b3057600080fd5b8101908080359060200190640100000000811115610b4d57600080fd5b820183602082011115610b5f57600080fd5b80359060200191846001830284011164010000000083111715610b8157600080fd5b91908080601f016020809104026020016040519081016040528093929190818152602001838380828437600081840152601f19601f82011690508083019250505050505050919291929080359060200190640100000000811115610be457600080fd5b820183602082011115610bf657600080fd5b80359060200191846001830284011164010000000083111715610c1857600080fd5b91908080601f016020809104026020016040519081016040528093929190818152602001838380828437600081840152601f19601f82011690508083019250505050505050919291929050505061227b565b005b33600280811115610c7957fe5b600160008373ffffffffffffffffffffffffffffffffffffffff1673ffffffffffffffffffffffffffffffffffffffff16815260200190815260200160002060010160009054906101000a900460ff166002811115610cd457fe5b141515610d49576040517f08c379a00000000000000000000000000000000000000000000000000000000081526004018080602001828103825260158152602001807f55736572206d75737420626520616e206f776e6572000000000000000000000081525060200191505060405180910390fd5b6001600454016004819055506005600087815260200190815260200160002060c060405190810160405280600454815260200187815260200186815260200185815260200184815260200160006001811115610da157fe5b81525090806001815401808255809150509060018203906000526020600020906006020160009091929091909150600082015181600001556020820151816001019080519060200190610df59291906124aa565b506040820151816002019080519060200190610e129291906124aa565b50606082015181600301556080820151816004015560a08201518160050160006101000a81548160ff02191690836001811115610e4b57fe5b0217905550505050505050505050565b60025481565b3360016002811115610e6f57fe5b600160008373ffffffffffffffffffffffffffffffffffffffff1673ffffffffffffffffffffffffffffffffffffffff16815260200190815260200160002060010160009054906101000a900460ff166002811115610eca57fe5b141515610f3f576040517f08c379a00000000000000000000000000000000000000000000000000000000081526004018080602001828103825260158152602001807f55736572206d75737420626520616e2061646d696e000000000000000000000081525060200191505060405180910390fd5b6040805190810160405280838152602001600280811115610f5c57fe5b815250600160008573ffffffffffffffffffffffffffffffffffffffff1673ffffffffffffffffffffffffffffffffffffffff1681526020019081526020016000206000820151816000019080519060200190610fba9291906124aa565b5060208201518160010160006101000a81548160ff02191690836002811115610fdf57fe5b0217905550905050505050565b60045481565b610ffa61252a565b60008090505b600560008581526020019081526020016000208054905081101561133d5782600560008681526020019081526020016000208281548110151561103f57fe5b906000526020600020906006020160000154141561133057600560008581526020019081526020016000208181548110151561107757fe5b906000526020600020906006020160c0604051908101604052908160008201548152602001600182018054600181600116156101000203166002900480601f0160208091040260200160405190810160405280929190818152602001828054600181600116156101000203166002900480156111345780601f1061110957610100808354040283529160200191611134565b820191906000526020600020905b81548152906001019060200180831161111757829003601f168201915b50505050508152602001600282018054600181600116156101000203166002900480601f0160208091040260200160405190810160405280929190818152602001828054600181600116156101000203166002900480156111d65780601f106111ab576101008083540402835291602001916111d6565b820191906000526020600020905b8154815290600101906020018083116111b957829003601f168201915b5050505050815260200160038201548152602001600482015481526020016005820160009054906101000a900460ff16600181111561121157fe5b600181111561121c57fe5b81525050915060018260800151101515156112c5576040517f08c379a00000000000000000000000000000000000000000000000000000000081526004018080602001828103825260298152602001807f53746f7265206d757374206861766520696e76656e746f7279206f662074686981526020017f732070726f64756374000000000000000000000000000000000000000000000081525060400191505060405180910390fd5b600160056000868152602001908152602001600020828154811015156112e757fe5b90600052602060002090600602016004015403600560008681526020019081526020016000208281548110151561131a57fe5b9060005260206000209060060201600401819055505b8080600101915050611000565b503481606001511415156113df576040517f08c379a000000000000000000000000000000000000000000000000000000000815260040180806020018281038252602a8152602001807f50726f6475637420707269636520616e642076616c75652073656e74206d757381526020017f7420626520657175616c0000000000000000000000000000000000000000000081525060400191505060405180910390fd5b8060600151600080828254019250508190555060008090505b60038054905081101561146d578360038281548110151561141557fe5b906000526020600020906006020160010154141561146057816060015160038281548110151561144157fe5b9060005260206000209060060201600401600082825401925050819055505b80806001019150506113f8565b50505050565b600060056000838152602001908152602001600020805490509050919050565b60008090505b60038054905081101561162957816003828154811015156114b657fe5b906000526020600020906006020160010154141561161c576003818154811015156114dd57fe5b9060005260206000209060060201600401546000541015151561158e576040517f08c379a000000000000000000000000000000000000000000000000000000000815260040180806020018281038252603c8152602001807f436f6e7472616374206d757374206861766520656e6f7567682062616c616e6381526020017f6520746f2070726f636573732074686973207769746864726177616c0000000081525060400191505060405180910390fd5b3373ffffffffffffffffffffffffffffffffffffffff166108fc6003838154811015156115b757fe5b9060005260206000209060060201600401549081150290604051600060405180830381858888f193505050501580156115f4573d6000803e3d6000fd5b50600060038281548110151561160657fe5b9060005260206000209060060201600401819055505b8080600101915050611499565b5050565b3360028081111561163a57fe5b600160008373ffffffffffffffffffffffffffffffffffffffff1673ffffffffffffffffffffffffffffffffffffffff16815260200190815260200160002060010160009054906101000a900460ff16600281111561169557fe5b14151561170a576040517f08c379a00000000000000000000000000000000000000000000000000000000081526004018080602001828103825260158152602001807f55736572206d75737420626520616e206f776e6572000000000000000000000081525060200191505060405180910390fd5b60008090505b600380549050811015611820578260038281548110151561172d57fe5b90600052602060002090600602016001015414156118135760038181548110151561175457fe5b9060005260206000209060060201600080820160006101000a81549073ffffffffffffffffffffffffffffffffffffffff021916905560018201600090556002820160006117a2919061256c565b6003820160006117b2919061256c565b60048201600090556005820160006101000a81549060ff0219169055505060016003828154811015156117e157fe5b906000526020600020906006020160050160006101000a81548160ff0219169083600181111561180d57fe5b02179055505b8080600101915050611710565b5060008090505b600560008481526020019081526020016000208054905081101561192257600560008481526020019081526020016000208181548110151561186557fe5b906000526020600020906006020160008082016000905560018201600061188c919061256c565b60028201600061189c919061256c565b600382016000905560048201600090556005820160006101000a81549060ff02191690555050600160056000858152602001908152602001600020828154811015156118e457fe5b906000526020600020906006020160050160006101000a81548160ff0219169083600181111561191057fe5b02179055508080600101915050611827565b505050565b6000600380549050905090565b3360028081111561194157fe5b600160008373ffffffffffffffffffffffffffffffffffffffff1673ffffffffffffffffffffffffffffffffffffffff16815260200190815260200160002060010160009054906101000a900460ff16600281111561199c57fe5b141515611a11576040517f08c379a00000000000000000000000000000000000000000000000000000000081526004018080602001828103825260158152602001807f55736572206d75737420626520616e206f776e6572000000000000000000000081525060200191505060405180910390fd5b60008090505b6005600085815260200190815260200160002080549050811015611b4c57826005600086815260200190815260200160002082815481101515611a5657fe5b9060005260206000209060060201600001541415611b3f576005600085815260200190815260200160002081815481101515611a8e57fe5b9060005260206000209060060201600080820160009055600182016000611ab5919061256c565b600282016000611ac5919061256c565b600382016000905560048201600090556005820160006101000a81549060ff0219169055505060016005600086815260200190815260200160002082815481101515611b0d57fe5b906000526020600020906006020160050160006101000a81548160ff02191690836001811115611b3957fe5b02179055505b8080600101915050611a17565b50505050565b600560205281600052604060002081815481101515611b6d57fe5b906000526020600020906006020160009150915050806000015490806001018054600181600116156101000203166002900480601f016020809104026020016040519081016040528092919081815260200182805460018160011615610100020316600290048015611c205780601f10611bf557610100808354040283529160200191611c20565b820191906000526020600020905b815481529060010190602001808311611c0357829003601f168201915b505050505090806002018054600181600116156101000203166002900480601f016020809104026020016040519081016040528092919081815260200182805460018160011615610100020316600290048015611cbe5780601f10611c9357610100808354040283529160200191611cbe565b820191906000526020600020905b815481529060010190602001808311611ca157829003601f168201915b5050505050908060030154908060040154908060050160009054906101000a900460ff16905086565b6001602052806000526040600020600091509050806000018054600181600116156101000203166002900480601f016020809104026020016040519081016040528092919081815260200182805460018160011615610100020316600290048015611d935780601f10611d6857610100808354040283529160200191611d93565b820191906000526020600020905b815481529060010190602001808311611d7657829003601f168201915b5050505050908060010160009054906101000a900460ff16905082565b33600280811115611dbd57fe5b600160008373ffffffffffffffffffffffffffffffffffffffff1673ffffffffffffffffffffffffffffffffffffffff16815260200190815260200160002060010160009054906101000a900460ff166002811115611e1857fe5b141515611e8d576040517f08c379a00000000000000000000000000000000000000000000000000000000081526004018080602001828103825260158152602001807f55736572206d75737420626520616e206f776e6572000000000000000000000081525060200191505060405180910390fd5b60008090505b600380549050811015611f405784600382815481101515611eb057fe5b9060005260206000209060060201600101541415611f335783600382815481101515611ed857fe5b90600052602060002090600602016002019080519060200190611efc9291906125b4565b5082600382815481101515611f0d57fe5b90600052602060002090600602016003019080519060200190611f319291906125b4565b505b8080600101915050611e93565b5050505050565b3360016002811115611f5557fe5b600160008373ffffffffffffffffffffffffffffffffffffffff1673ffffffffffffffffffffffffffffffffffffffff16815260200190815260200160002060010160009054906101000a900460ff166002811115611fb057fe5b141515612025576040517f08c379a00000000000000000000000000000000000000000000000000000000081526004018080602001828103825260158152602001807f55736572206d75737420626520616e2061646d696e000000000000000000000081525060200191505060405180910390fd5b60408051908101604052808381526020016001600281111561204357fe5b815250600160008573ffffffffffffffffffffffffffffffffffffffff1673ffffffffffffffffffffffffffffffffffffffff16815260200190815260200160002060008201518160000190805190602001906120a19291906124aa565b5060208201518160010160006101000a81548160ff021916908360028111156120c657fe5b0217905550905050505050565b6003818154811015156120e257fe5b90600052602060002090600602016000915090508060000160009054906101000a900473ffffffffffffffffffffffffffffffffffffffff1690806001015490806002018054600181600116156101000203166002900480601f0160208091040260200160405190810160405280929190818152602001828054600181600116156101000203166002900480156121ba5780601f1061218f576101008083540402835291602001916121ba565b820191906000526020600020905b81548152906001019060200180831161219d57829003601f168201915b505050505090806003018054600181600116156101000203166002900480601f0160208091040260200160405190810160405280929190818152602001828054600181600116156101000203166002900480156122585780601f1061222d57610100808354040283529160200191612258565b820191906000526020600020905b81548152906001019060200180831161223b57829003601f168201915b5050505050908060040154908060050160009054906101000a900460ff16905086565b3360028081111561228857fe5b600160008373ffffffffffffffffffffffffffffffffffffffff1673ffffffffffffffffffffffffffffffffffffffff16815260200190815260200160002060010160009054906101000a900460ff1660028111156122e357fe5b141515612358576040517f08c379a00000000000000000000000000000000000000000000000000000000081526004018080602001828103825260158152602001807f55736572206d75737420626520616e206f776e6572000000000000000000000081525060200191505060405180910390fd5b600160025401600281905550600360c0604051908101604052803373ffffffffffffffffffffffffffffffffffffffff168152602001600254815260200185815260200184815260200160008152602001600060018111156123b657fe5b8152509080600181540180825580915050906001820390600052602060002090600602016000909192909190915060008201518160000160006101000a81548173ffffffffffffffffffffffffffffffffffffffff021916908373ffffffffffffffffffffffffffffffffffffffff1602179055506020820151816001015560408201518160020190805190602001906124519291906124aa565b50606082015181600301908051906020019061246e9291906124aa565b506080820151816004015560a08201518160050160006101000a81548160ff0219169083600181111561249d57fe5b0217905550505050505050565b828054600181600116156101000203166002900490600052602060002090601f016020900481019282601f106124eb57805160ff1916838001178555612519565b82800160010185558215612519579182015b828111156125185782518255916020019190600101906124fd565b5b5090506125269190612634565b5090565b60c06040519081016040528060008152602001606081526020016060815260200160008152602001600081526020016000600181111561256657fe5b81525090565b50805460018160011615610100020316600290046000825580601f1061259257506125b1565b601f0160209004906000526020600020908101906125b09190612634565b5b50565b828054600181600116156101000203166002900490600052602060002090601f016020900481019282601f106125f557805160ff1916838001178555612623565b82800160010185558215612623579182015b82811115612622578251825591602001919060010190612607565b5b5090506126309190612634565b5090565b61265691905b8082111561265257600081600090555060010161263a565b5090565b9056fea165627a7a72305820aa187a72b80223b3cb83f64abd1bb724619daa85e91a121908985ef37101bd3e0029",
  "source": "pragma solidity ^0.5.0;\n\ncontract Shop {\n  enum UserType { Guest, Admin, Owner }\n  enum State { Active, Deleted }\n\n  struct User {\n    string name;\n    UserType userType;\n  }\n\n  struct Store {\n    address ownerAddress;\n    uint storeNumber;\n    string name;\n    string city;\n    uint earnings;\n    State state;\n  }\n\n  struct Product {\n    uint productNumber;\n    string name;\n    string description;\n    uint price;\n    uint inventory;\n    State state;\n  }\n\n  // Contract owner state\n  uint private contractBalance;\n\n  // User state\n  mapping (address => User) public users;\n\n  // Store state\n  uint public storeNumber;\n  Store[] public stores;\n\n  // Product state\n  uint public productNumber;\n  mapping (uint => Product[]) public products;\n\n  modifier verifyAdmin(address userAddress) {\n    require(users[userAddress].userType == UserType.Admin, \"User must be an admin\");\n    _;\n  }\n\n  modifier verifyOwner(address ownerAddress) {\n    require(users[ownerAddress].userType == UserType.Owner, \"User must be an owner\");\n    _;\n  }\n\n  constructor() public {\n    // Initializing state\n    contractBalance = 0;\n    storeNumber = 0;\n    productNumber = 0;\n\n    // Add contract owner as an admin\n    users[msg.sender] = User({\n      name: \"Super Admin\",\n      userType: UserType.Admin\n    });\n  }\n\n  function addAdmin(address userAddress, string memory name) public\n  verifyAdmin(msg.sender) {\n    users[userAddress] = User({\n      name: name,\n      userType: UserType.Admin\n    });\n  }\n\n  function addOwner(address userAddress, string memory name) public\n  verifyAdmin(msg.sender) {\n    users[userAddress] = User({\n      name: name,\n      userType: UserType.Owner\n    });\n  }\n\n  function addStore(string memory name, string memory city) public\n  verifyOwner(msg.sender) {\n    storeNumber = storeNumber + 1;\n\n    stores.push(Store({\n      ownerAddress: msg.sender,\n      storeNumber: storeNumber,\n      name: name,\n      city: city,\n      earnings: 0,\n      state: State.Active\n    }));\n  }\n\n  function deleteStore(uint storeNumberGiven) public\n  verifyOwner(msg.sender) {\n    for (uint i = 0; i < stores.length; i++) {\n      if (stores[i].storeNumber == storeNumberGiven) {\n        delete stores[i];\n\n        stores[i].state = State.Deleted;\n      }\n    }\n\n    for (uint i = 0; i < products[storeNumberGiven].length; i++) {\n      delete products[storeNumberGiven][i];\n\n      products[storeNumberGiven][i].state = State.Deleted;\n    }\n  }\n\n  function saveStoreEdits(uint storeNumberGiven, string memory name, string memory city) public\n  verifyOwner(msg.sender) {\n    for (uint i = 0; i < stores.length; i++) {\n      if (stores[i].storeNumber == storeNumberGiven) {\n        stores[i].name = name;\n        stores[i].city = city;\n      }\n    }\n  }\n\n  function addProduct(uint storeNumberGiven, string memory name, string memory description, uint price, uint inventory) public\n  verifyOwner(msg.sender) {\n    productNumber = productNumber + 1;\n\n    products[storeNumberGiven].push(Product({\n      productNumber: productNumber,\n      name: name,\n      description: description,\n      price: price,\n      inventory: inventory,\n      state: State.Active\n    }));\n  }\n\n  function deleteProduct(uint storeNumberGiven, uint productNumberGiven) public\n  verifyOwner(msg.sender) {\n    for (uint i = 0; i < products[storeNumberGiven].length; i++) {\n      if (products[storeNumberGiven][i].productNumber == productNumberGiven) {\n        delete products[storeNumberGiven][i];\n\n        products[storeNumberGiven][i].state = State.Deleted;\n      }\n    }\n  }\n\n  function buyProduct(uint storeNumberGiven, uint productNumberGiven) public payable {\n    Product memory product;\n\n    for (uint i = 0; i < products[storeNumberGiven].length; i++) {\n      if (products[storeNumberGiven][i].productNumber == productNumberGiven) {\n        product = products[storeNumberGiven][i];\n\n        require(product.inventory >= 1, \"Store must have inventory of this product\");\n\n        products[storeNumberGiven][i].inventory = products[storeNumberGiven][i].inventory - 1;\n      }\n    }\n\n    require(product.price == msg.value, \"Product price and value sent must be equal\");\n\n    contractBalance += product.price;\n\n    for (uint i = 0; i < stores.length; i++) {\n      if (stores[i].storeNumber == storeNumberGiven) {\n        stores[i].earnings += product.price;\n      }\n    }\n  }\n\n  function withdrawEarnings(uint storeNumberGiven) public {\n    for (uint i = 0; i < stores.length; i++) {\n      if (stores[i].storeNumber == storeNumberGiven) {\n        require(contractBalance >= stores[i].earnings, \"Contract must have enough balance to process this withdrawal\");\n\n        msg.sender.transfer(stores[i].earnings);\n        stores[i].earnings = 0;\n      }\n    }\n  }\n\n  function getStoresLength() public view returns(uint) {\n    return stores.length;\n  }\n\n  function getProductsLength(uint storeNumberGiven) public view returns(uint) {\n    return products[storeNumberGiven].length;\n  }\n}\n",
  "sourcePath": "/Users/asood/Desktop/consensys/chain-shop-redux/contracts/Shop.sol",
  "compiler": {
    "name": "solc",
    "version": "0.5.0+commit.1d4f565a.Emscripten.clang"
  },
  "schemaVersion": "3.0.1",
  "updatedAt": "2019-01-15T18:00:42.213Z",
  "devdoc": {
    "methods": {}
  },
  "userdoc": {
    "methods": {}
  }
}