{
  "contractName": "Shop",
  "abi": [
    {
      "constant": true,
      "inputs": [],
      "name": "storeNumber",
      "outputs": [
        {
          "name": "",
          "type": "uint256"
        }
      ],
      "payable": false,
      "stateMutability": "view",
      "type": "function",
      "signature": "0x1cdb717f"
    },
    {
      "constant": true,
      "inputs": [],
      "name": "productNumber",
      "outputs": [
        {
          "name": "",
          "type": "uint256"
        }
      ],
      "payable": false,
      "stateMutability": "view",
      "type": "function",
      "signature": "0x5034735d"
    },
    {
      "constant": true,
      "inputs": [
        {
          "name": "",
          "type": "uint256"
        },
        {
          "name": "",
          "type": "uint256"
        }
      ],
      "name": "products",
      "outputs": [
        {
          "name": "productNumber",
          "type": "uint256"
        },
        {
          "name": "name",
          "type": "string"
        },
        {
          "name": "description",
          "type": "string"
        },
        {
          "name": "price",
          "type": "uint256"
        },
        {
          "name": "inventory",
          "type": "uint256"
        }
      ],
      "payable": false,
      "stateMutability": "view",
      "type": "function",
      "signature": "0xa590fbdb"
    },
    {
      "constant": true,
      "inputs": [
        {
          "name": "",
          "type": "address"
        }
      ],
      "name": "users",
      "outputs": [
        {
          "name": "name",
          "type": "string"
        },
        {
          "name": "userType",
          "type": "uint8"
        }
      ],
      "payable": false,
      "stateMutability": "view",
      "type": "function",
      "signature": "0xa87430ba"
    },
    {
      "constant": true,
      "inputs": [
        {
          "name": "",
          "type": "uint256"
        }
      ],
      "name": "stores",
      "outputs": [
        {
          "name": "ownerAddress",
          "type": "address"
        },
        {
          "name": "storeNumber",
          "type": "uint256"
        },
        {
          "name": "name",
          "type": "string"
        },
        {
          "name": "city",
          "type": "string"
        },
        {
          "name": "earnings",
          "type": "uint256"
        }
      ],
      "payable": false,
      "stateMutability": "view",
      "type": "function",
      "signature": "0xe8a59cd8"
    },
    {
      "inputs": [],
      "payable": false,
      "stateMutability": "nonpayable",
      "type": "constructor",
      "signature": "constructor"
    },
    {
      "constant": false,
      "inputs": [
        {
          "name": "userAddress",
          "type": "address"
        },
        {
          "name": "name",
          "type": "string"
        }
      ],
      "name": "addAdmin",
      "outputs": [],
      "payable": false,
      "stateMutability": "nonpayable",
      "type": "function",
      "signature": "0xd16856ca"
    },
    {
      "constant": false,
      "inputs": [
        {
          "name": "userAddress",
          "type": "address"
        },
        {
          "name": "name",
          "type": "string"
        }
      ],
      "name": "addOwner",
      "outputs": [],
      "payable": false,
      "stateMutability": "nonpayable",
      "type": "function",
      "signature": "0x3542758f"
    },
    {
      "constant": false,
      "inputs": [
        {
          "name": "name",
          "type": "string"
        },
        {
          "name": "city",
          "type": "string"
        }
      ],
      "name": "addStore",
      "outputs": [],
      "payable": false,
      "stateMutability": "nonpayable",
      "type": "function",
      "signature": "0xed48719c"
    },
    {
      "constant": false,
      "inputs": [
        {
          "name": "storeNumberGiven",
          "type": "uint256"
        },
        {
          "name": "name",
          "type": "string"
        },
        {
          "name": "description",
          "type": "string"
        },
        {
          "name": "price",
          "type": "uint256"
        },
        {
          "name": "inventory",
          "type": "uint256"
        }
      ],
      "name": "addProduct",
      "outputs": [],
      "payable": false,
      "stateMutability": "nonpayable",
      "type": "function",
      "signature": "0x01db5b48"
    },
    {
      "constant": false,
      "inputs": [
        {
          "name": "storeNumberGiven",
          "type": "uint256"
        },
        {
          "name": "productNumberGiven",
          "type": "uint256"
        }
      ],
      "name": "buyProduct",
      "outputs": [],
      "payable": true,
      "stateMutability": "payable",
      "type": "function",
      "signature": "0x53b62866"
    },
    {
      "constant": false,
      "inputs": [
        {
          "name": "storeNumberGiven",
          "type": "uint256"
        }
      ],
      "name": "withdrawEarnings",
      "outputs": [],
      "payable": false,
      "stateMutability": "nonpayable",
      "type": "function",
      "signature": "0x6e70096e"
    },
    {
      "constant": true,
      "inputs": [],
      "name": "getStoresLength",
      "outputs": [
        {
          "name": "",
          "type": "uint256"
        }
      ],
      "payable": false,
      "stateMutability": "view",
      "type": "function",
      "signature": "0x86a9bd11"
    },
    {
      "constant": true,
      "inputs": [
        {
          "name": "storeNumberGiven",
          "type": "uint256"
        }
      ],
      "name": "getProductsLength",
      "outputs": [
        {
          "name": "",
          "type": "uint256"
        }
      ],
      "payable": false,
      "stateMutability": "view",
      "type": "function",
      "signature": "0x5412fc46"
    }
  ],
  "bytecode": "0x60806040523480156200001157600080fd5b50600080819055506000600281905550600060048190555060408051908101604052806040805190810160405280600b81526020017f53757065722041646d696e0000000000000000000000000000000000000000008152508152602001600160028111156200007d57fe5b815250600160003373ffffffffffffffffffffffffffffffffffffffff1673ffffffffffffffffffffffffffffffffffffffff1681526020019081526020016000206000820151816000019080519060200190620000dd92919062000111565b5060208201518160010160006101000a81548160ff021916908360028111156200010357fe5b0217905550905050620001c0565b828054600181600116156101000203166002900490600052602060002090601f016020900481019282601f106200015457805160ff191683800117855562000185565b8280016001018555821562000185579182015b828111156200018457825182559160200191906001019062000167565b5b50905062000194919062000198565b5090565b620001bd91905b80821115620001b95760008160009055506001016200019f565b5090565b90565b611b7080620001d06000396000f3fe6080604052600436106100c5576000357c0100000000000000000000000000000000000000000000000000000000900463ffffffff16806301db5b48146100ca5780631cdb717f146102475780633542758f146102725780635034735d1461035a57806353b62866146103855780635412fc46146103bd5780636e70096e1461040c57806386a9bd1114610447578063a590fbdb14610472578063a87430ba146105b1578063d16856ca14610690578063e8a59cd814610778578063ed48719c146108d9575b600080fd5b3480156100d657600080fd5b50610245600480360360a08110156100ed57600080fd5b81019080803590602001909291908035906020019064010000000081111561011457600080fd5b82018360208201111561012657600080fd5b8035906020019184600183028401116401000000008311171561014857600080fd5b91908080601f016020809104026020016040519081016040528093929190818152602001838380828437600081840152601f19601f820116905080830192505050505050509192919290803590602001906401000000008111156101ab57600080fd5b8201836020820111156101bd57600080fd5b803590602001918460018302840111640100000000831117156101df57600080fd5b91908080601f016020809104026020016040519081016040528093929190818152602001838380828437600081840152601f19601f8201169050808301925050505050505091929192908035906020019092919080359060200190929190505050610a38565b005b34801561025357600080fd5b5061025c610bec565b6040518082815260200191505060405180910390f35b34801561027e57600080fd5b506103586004803603604081101561029557600080fd5b81019080803573ffffffffffffffffffffffffffffffffffffffff169060200190929190803590602001906401000000008111156102d257600080fd5b8201836020820111156102e457600080fd5b8035906020019184600183028401116401000000008311171561030657600080fd5b91908080601f016020809104026020016040519081016040528093929190818152602001838380828437600081840152601f19601f820116905080830192505050505050509192919290505050610bf2565b005b34801561036657600080fd5b5061036f610d7d565b6040518082815260200191505060405180910390f35b6103bb6004803603604081101561039b57600080fd5b810190808035906020019092919080359060200190929190505050610d83565b005b3480156103c957600080fd5b506103f6600480360360208110156103e057600080fd5b8101908080359060200190929190505050611148565b6040518082815260200191505060405180910390f35b34801561041857600080fd5b506104456004803603602081101561042f57600080fd5b8101908080359060200190929190505050611168565b005b34801561045357600080fd5b5061045c611302565b6040518082815260200191505060405180910390f35b34801561047e57600080fd5b506104b56004803603604081101561049557600080fd5b81019080803590602001909291908035906020019092919050505061130f565b604051808681526020018060200180602001858152602001848152602001838103835287818151815260200191508051906020019080838360005b8381101561050b5780820151818401526020810190506104f0565b50505050905090810190601f1680156105385780820380516001836020036101000a031916815260200191505b50838103825286818151815260200191508051906020019080838360005b83811015610571578082015181840152602081019050610556565b50505050905090810190601f16801561059e5780820380516001836020036101000a031916815260200191505b5097505050505050505060405180910390f35b3480156105bd57600080fd5b50610600600480360360208110156105d457600080fd5b81019080803573ffffffffffffffffffffffffffffffffffffffff169060200190929190505050611491565b604051808060200183600281111561061457fe5b60ff168152602001828103825284818151815260200191508051906020019080838360005b83811015610654578082015181840152602081019050610639565b50505050905090810190601f1680156106815780820380516001836020036101000a031916815260200191505b50935050505060405180910390f35b34801561069c57600080fd5b50610776600480360360408110156106b357600080fd5b81019080803573ffffffffffffffffffffffffffffffffffffffff169060200190929190803590602001906401000000008111156106f057600080fd5b82018360208201111561070257600080fd5b8035906020019184600183028401116401000000008311171561072457600080fd5b91908080601f016020809104026020016040519081016040528093929190818152602001838380828437600081840152601f19601f82011690508083019250505050505050919291929050505061155a565b005b34801561078457600080fd5b506107b16004803603602081101561079b57600080fd5b81019080803590602001909291905050506116e6565b604051808673ffffffffffffffffffffffffffffffffffffffff1673ffffffffffffffffffffffffffffffffffffffff1681526020018581526020018060200180602001848152602001838103835286818151815260200191508051906020019080838360005b83811015610833578082015181840152602081019050610818565b50505050905090810190601f1680156108605780820380516001836020036101000a031916815260200191505b50838103825285818151815260200191508051906020019080838360005b8381101561089957808201518184015260208101905061087e565b50505050905090810190601f1680156108c65780820380516001836020036101000a031916815260200191505b5097505050505050505060405180910390f35b3480156108e557600080fd5b50610a36600480360360408110156108fc57600080fd5b810190808035906020019064010000000081111561091957600080fd5b82018360208201111561092b57600080fd5b8035906020019184600183028401116401000000008311171561094d57600080fd5b91908080601f016020809104026020016040519081016040528093929190818152602001838380828437600081840152601f19601f820116905080830192505050505050509192919290803590602001906401000000008111156109b057600080fd5b8201836020820111156109c257600080fd5b803590602001918460018302840111640100000000831117156109e457600080fd5b91908080601f016020809104026020016040519081016040528093929190818152602001838380828437600081840152601f19601f82011690508083019250505050505050919291929050505061187b565b005b33600280811115610a4557fe5b600160008373ffffffffffffffffffffffffffffffffffffffff1673ffffffffffffffffffffffffffffffffffffffff16815260200190815260200160002060010160009054906101000a900460ff166002811115610aa057fe5b141515610b15576040517f08c379a00000000000000000000000000000000000000000000000000000000081526004018080602001828103825260158152602001807f55736572206d75737420626520616e206f776e6572000000000000000000000081525060200191505060405180910390fd5b6001600454016004819055506005600087815260200190815260200160002060a06040519081016040528060045481526020018781526020018681526020018581526020018481525090806001815401808255809150509060018203906000526020600020906005020160009091929091909150600082015181600001556020820151816001019080519060200190610baf929190611a6f565b506040820151816002019080519060200190610bcc929190611a6f565b506060820151816003015560808201518160040155505050505050505050565b60025481565b3360016002811115610c0057fe5b600160008373ffffffffffffffffffffffffffffffffffffffff1673ffffffffffffffffffffffffffffffffffffffff16815260200190815260200160002060010160009054906101000a900460ff166002811115610c5b57fe5b141515610cd0576040517f08c379a00000000000000000000000000000000000000000000000000000000081526004018080602001828103825260158152602001807f55736572206d75737420626520616e2061646d696e000000000000000000000081525060200191505060405180910390fd5b6040805190810160405280838152602001600280811115610ced57fe5b815250600160008573ffffffffffffffffffffffffffffffffffffffff1673ffffffffffffffffffffffffffffffffffffffff1681526020019081526020016000206000820151816000019080519060200190610d4b929190611a6f565b5060208201518160010160006101000a81548160ff02191690836002811115610d7057fe5b0217905550905050505050565b60045481565b610d8b611aef565b60008090505b600560008581526020019081526020016000208054905081101561101257826005600086815260200190815260200160002082815481101515610dd057fe5b9060005260206000209060050201600001541415611005576005600085815260200190815260200160002081815481101515610e0857fe5b906000526020600020906005020160a0604051908101604052908160008201548152602001600182018054600181600116156101000203166002900480601f016020809104026020016040519081016040528092919081815260200182805460018160011615610100020316600290048015610ec55780601f10610e9a57610100808354040283529160200191610ec5565b820191906000526020600020905b815481529060010190602001808311610ea857829003601f168201915b50505050508152602001600282018054600181600116156101000203166002900480601f016020809104026020016040519081016040528092919081815260200182805460018160011615610100020316600290048015610f675780601f10610f3c57610100808354040283529160200191610f67565b820191906000526020600020905b815481529060010190602001808311610f4a57829003601f168201915b505050505081526020016003820154815260200160048201548152505091506001826080015110151515610f9a57600080fd5b60016005600086815260200190815260200160002082815481101515610fbc57fe5b906000526020600020906005020160040154036005600086815260200190815260200160002082815481101515610fef57fe5b9060005260206000209060050201600401819055505b8080600101915050610d91565b503481606001511415156110b4576040517f08c379a000000000000000000000000000000000000000000000000000000000815260040180806020018281038252602a8152602001807f50726f6475637420707269636520616e642076616c75652073656e74206d757381526020017f7420626520657175616c0000000000000000000000000000000000000000000081525060400191505060405180910390fd5b8060600151600080828254019250508190555060008090505b60038054905081101561114257836003828154811015156110ea57fe5b906000526020600020906005020160010154141561113557816060015160038281548110151561111657fe5b9060005260206000209060050201600401600082825401925050819055505b80806001019150506110cd565b50505050565b600060056000838152602001908152602001600020805490509050919050565b60008090505b6003805490508110156112fe578160038281548110151561118b57fe5b90600052602060002090600502016001015414156112f1576003818154811015156111b257fe5b90600052602060002090600502016004015460005410151515611263576040517f08c379a000000000000000000000000000000000000000000000000000000000815260040180806020018281038252603c8152602001807f436f6e7472616374206d757374206861766520656e6f7567682062616c616e6381526020017f6520746f2070726f636573732074686973207769746864726177616c0000000081525060400191505060405180910390fd5b3373ffffffffffffffffffffffffffffffffffffffff166108fc60038381548110151561128c57fe5b9060005260206000209060050201600401549081150290604051600060405180830381858888f193505050501580156112c9573d6000803e3d6000fd5b5060006003828154811015156112db57fe5b9060005260206000209060050201600401819055505b808060010191505061116e565b5050565b6000600380549050905090565b60056020528160005260406000208181548110151561132a57fe5b906000526020600020906005020160009150915050806000015490806001018054600181600116156101000203166002900480601f0160208091040260200160405190810160405280929190818152602001828054600181600116156101000203166002900480156113dd5780601f106113b2576101008083540402835291602001916113dd565b820191906000526020600020905b8154815290600101906020018083116113c057829003601f168201915b505050505090806002018054600181600116156101000203166002900480601f01602080910402602001604051908101604052809291908181526020018280546001816001161561010002031660029004801561147b5780601f106114505761010080835404028352916020019161147b565b820191906000526020600020905b81548152906001019060200180831161145e57829003601f168201915b5050505050908060030154908060040154905085565b6001602052806000526040600020600091509050806000018054600181600116156101000203166002900480601f01602080910402602001604051908101604052809291908181526020018280546001816001161561010002031660029004801561153d5780601f106115125761010080835404028352916020019161153d565b820191906000526020600020905b81548152906001019060200180831161152057829003601f168201915b5050505050908060010160009054906101000a900460ff16905082565b336001600281111561156857fe5b600160008373ffffffffffffffffffffffffffffffffffffffff1673ffffffffffffffffffffffffffffffffffffffff16815260200190815260200160002060010160009054906101000a900460ff1660028111156115c357fe5b141515611638576040517f08c379a00000000000000000000000000000000000000000000000000000000081526004018080602001828103825260158152602001807f55736572206d75737420626520616e2061646d696e000000000000000000000081525060200191505060405180910390fd5b60408051908101604052808381526020016001600281111561165657fe5b815250600160008573ffffffffffffffffffffffffffffffffffffffff1673ffffffffffffffffffffffffffffffffffffffff16815260200190815260200160002060008201518160000190805190602001906116b4929190611a6f565b5060208201518160010160006101000a81548160ff021916908360028111156116d957fe5b0217905550905050505050565b6003818154811015156116f557fe5b90600052602060002090600502016000915090508060000160009054906101000a900473ffffffffffffffffffffffffffffffffffffffff1690806001015490806002018054600181600116156101000203166002900480601f0160208091040260200160405190810160405280929190818152602001828054600181600116156101000203166002900480156117cd5780601f106117a2576101008083540402835291602001916117cd565b820191906000526020600020905b8154815290600101906020018083116117b057829003601f168201915b505050505090806003018054600181600116156101000203166002900480601f01602080910402602001604051908101604052809291908181526020018280546001816001161561010002031660029004801561186b5780601f106118405761010080835404028352916020019161186b565b820191906000526020600020905b81548152906001019060200180831161184e57829003601f168201915b5050505050908060040154905085565b3360028081111561188857fe5b600160008373ffffffffffffffffffffffffffffffffffffffff1673ffffffffffffffffffffffffffffffffffffffff16815260200190815260200160002060010160009054906101000a900460ff1660028111156118e357fe5b141515611958576040517f08c379a00000000000000000000000000000000000000000000000000000000081526004018080602001828103825260158152602001807f55736572206d75737420626520616e206f776e6572000000000000000000000081525060200191505060405180910390fd5b600160025401600281905550600360a0604051908101604052803373ffffffffffffffffffffffffffffffffffffffff168152602001600254815260200185815260200184815260200160008152509080600181540180825580915050906001820390600052602060002090600502016000909192909190915060008201518160000160006101000a81548173ffffffffffffffffffffffffffffffffffffffff021916908373ffffffffffffffffffffffffffffffffffffffff160217905550602082015181600101556040820151816002019080519060200190611a3f929190611a6f565b506060820151816003019080519060200190611a5c929190611a6f565b5060808201518160040155505050505050565b828054600181600116156101000203166002900490600052602060002090601f016020900481019282601f10611ab057805160ff1916838001178555611ade565b82800160010185558215611ade579182015b82811115611add578251825591602001919060010190611ac2565b5b509050611aeb9190611b1f565b5090565b60a06040519081016040528060008152602001606081526020016060815260200160008152602001600081525090565b611b4191905b80821115611b3d576000816000905550600101611b25565b5090565b9056fea165627a7a723058208ef4c0a7d3bacfaeb48f554628e43d896b3dd9a4eba09ee94535307f1ef7ec7e0029",
  "source": "pragma solidity ^0.5.0;\n\ncontract Shop {\n  enum UserType { Guest, Admin, Owner }\n\n  struct User {\n    string name;\n    UserType userType;\n  }\n\n  struct Store {\n    address ownerAddress;\n    uint storeNumber;\n    string name;\n    string city;\n    uint earnings;\n  }\n\n  struct Product {\n    uint productNumber;\n    string name;\n    string description;\n    uint price;\n    uint inventory;\n  }\n\n  // Contract owner state\n  uint private contractBalance;\n\n  // User state\n  mapping (address => User) public users;\n\n  // Store state\n  uint public storeNumber;\n  Store[] public stores;\n\n  // Product state\n  uint public productNumber;\n  mapping (uint => Product[]) public products;\n\n  modifier verifyAdmin(address userAddress) {\n    require(users[userAddress].userType == UserType.Admin, \"User must be an admin\");\n    _;\n  }\n\n  modifier verifyOwner(address ownerAddress) {\n    require(users[ownerAddress].userType == UserType.Owner, \"User must be an owner\");\n    _;\n  }\n\n  constructor() public {\n    // Initializing state\n    contractBalance = 0;\n    storeNumber = 0;\n    productNumber = 0;\n\n    // Add contract owner as an admin\n    users[msg.sender] = User({\n      name: \"Super Admin\",\n      userType: UserType.Admin\n    });\n  }\n\n  function addAdmin(address userAddress, string memory name) public\n  verifyAdmin(msg.sender) {\n    users[userAddress] = User({\n      name: name,\n      userType: UserType.Admin\n    });\n  }\n\n  function addOwner(address userAddress, string memory name) public\n  verifyAdmin(msg.sender) {\n    users[userAddress] = User({\n      name: name,\n      userType: UserType.Owner\n    });\n  }\n\n  function addStore(string memory name, string memory city) public\n  verifyOwner(msg.sender) {\n    storeNumber = storeNumber + 1;\n\n    stores.push(Store({\n      ownerAddress: msg.sender,\n      storeNumber: storeNumber,\n      name: name,\n      city: city,\n      earnings: 0\n    }));\n  }\n\n  function addProduct(uint storeNumberGiven, string memory name, string memory description, uint price, uint inventory) public\n  verifyOwner(msg.sender) {\n    productNumber = productNumber + 1;\n\n    products[storeNumberGiven].push(Product({\n      productNumber: productNumber,\n      name: name,\n      description: description,\n      price: price,\n      inventory: inventory\n    }));\n  }\n\n  function buyProduct(uint storeNumberGiven, uint productNumberGiven) public payable {\n    Product memory product;\n\n    for (uint i = 0; i < products[storeNumberGiven].length; i++) {\n      if (products[storeNumberGiven][i].productNumber == productNumberGiven) {\n        product = products[storeNumberGiven][i];\n\n        require(product.inventory >= 1);\n\n        products[storeNumberGiven][i].inventory = products[storeNumberGiven][i].inventory - 1;\n      }\n    }\n\n    require(product.price == msg.value, \"Product price and value sent must be equal\");\n\n    contractBalance += product.price;\n\n    for (uint i = 0; i < stores.length; i++) {\n      if (stores[i].storeNumber == storeNumberGiven) {\n        stores[i].earnings += product.price;\n      }\n    }\n  }\n\n  function withdrawEarnings(uint storeNumberGiven) public {\n    for (uint i = 0; i < stores.length; i++) {\n      if (stores[i].storeNumber == storeNumberGiven) {\n        require(contractBalance >= stores[i].earnings, \"Contract must have enough balance to process this withdrawal\");\n\n        msg.sender.transfer(stores[i].earnings);\n        stores[i].earnings = 0;\n      }\n    }\n  }\n\n  function getStoresLength() public view returns(uint) {\n    return stores.length;\n  }\n\n  function getProductsLength(uint storeNumberGiven) public view returns(uint) {\n    return products[storeNumberGiven].length;\n  }\n}\n",
  "sourcePath": "/Users/asood/Desktop/consensys/chain-shop-redux/contracts/Shop.sol",
  "compiler": {
    "name": "solc",
    "version": "0.5.0+commit.1d4f565a.Emscripten.clang"
  },
  "schemaVersion": "3.0.1",
  "updatedAt": "2019-01-14T22:52:10.682Z",
  "devdoc": {
    "methods": {}
  },
  "userdoc": {
    "methods": {}
  }
}