{
  "contractName": "Shop",
  "abi": [
    {
      "constant": true,
      "inputs": [],
      "name": "storeNumber",
      "outputs": [
        {
          "name": "",
          "type": "uint256"
        }
      ],
      "payable": false,
      "stateMutability": "view",
      "type": "function",
      "signature": "0x1cdb717f"
    },
    {
      "constant": true,
      "inputs": [],
      "name": "emergencyStop",
      "outputs": [
        {
          "name": "",
          "type": "bool"
        }
      ],
      "payable": false,
      "stateMutability": "view",
      "type": "function",
      "signature": "0x63a599a4"
    },
    {
      "constant": true,
      "inputs": [
        {
          "name": "",
          "type": "uint256"
        },
        {
          "name": "",
          "type": "uint256"
        }
      ],
      "name": "products",
      "outputs": [
        {
          "name": "productNumber",
          "type": "uint256"
        },
        {
          "name": "name",
          "type": "string"
        },
        {
          "name": "description",
          "type": "string"
        },
        {
          "name": "price",
          "type": "uint256"
        },
        {
          "name": "inventory",
          "type": "uint256"
        },
        {
          "name": "state",
          "type": "uint8"
        }
      ],
      "payable": false,
      "stateMutability": "view",
      "type": "function",
      "signature": "0xa590fbdb"
    },
    {
      "constant": true,
      "inputs": [
        {
          "name": "",
          "type": "address"
        }
      ],
      "name": "users",
      "outputs": [
        {
          "name": "name",
          "type": "string"
        },
        {
          "name": "userType",
          "type": "uint8"
        }
      ],
      "payable": false,
      "stateMutability": "view",
      "type": "function",
      "signature": "0xa87430ba"
    },
    {
      "constant": true,
      "inputs": [],
      "name": "contractOwner",
      "outputs": [
        {
          "name": "",
          "type": "address"
        }
      ],
      "payable": false,
      "stateMutability": "view",
      "type": "function",
      "signature": "0xce606ee0"
    },
    {
      "constant": true,
      "inputs": [
        {
          "name": "",
          "type": "uint256"
        }
      ],
      "name": "stores",
      "outputs": [
        {
          "name": "storeNumber",
          "type": "uint256"
        },
        {
          "name": "ownerAddress",
          "type": "address"
        },
        {
          "name": "name",
          "type": "string"
        },
        {
          "name": "city",
          "type": "string"
        },
        {
          "name": "earnings",
          "type": "uint256"
        },
        {
          "name": "productNumber",
          "type": "uint256"
        },
        {
          "name": "state",
          "type": "uint8"
        }
      ],
      "payable": false,
      "stateMutability": "view",
      "type": "function",
      "signature": "0xe8a59cd8"
    },
    {
      "inputs": [],
      "payable": false,
      "stateMutability": "nonpayable",
      "type": "constructor",
      "signature": "constructor"
    },
    {
      "constant": false,
      "inputs": [],
      "name": "toggleEmergencyStop",
      "outputs": [],
      "payable": false,
      "stateMutability": "nonpayable",
      "type": "function",
      "signature": "0x4b7aac94"
    },
    {
      "constant": false,
      "inputs": [
        {
          "name": "userAddress",
          "type": "address"
        },
        {
          "name": "name",
          "type": "string"
        }
      ],
      "name": "addAdmin",
      "outputs": [],
      "payable": false,
      "stateMutability": "nonpayable",
      "type": "function",
      "signature": "0xd16856ca"
    },
    {
      "constant": false,
      "inputs": [
        {
          "name": "userAddress",
          "type": "address"
        },
        {
          "name": "name",
          "type": "string"
        }
      ],
      "name": "addOwner",
      "outputs": [],
      "payable": false,
      "stateMutability": "nonpayable",
      "type": "function",
      "signature": "0x3542758f"
    },
    {
      "constant": false,
      "inputs": [
        {
          "name": "name",
          "type": "string"
        },
        {
          "name": "city",
          "type": "string"
        }
      ],
      "name": "addStore",
      "outputs": [],
      "payable": false,
      "stateMutability": "nonpayable",
      "type": "function",
      "signature": "0xed48719c"
    },
    {
      "constant": false,
      "inputs": [
        {
          "name": "storeNumberGiven",
          "type": "uint256"
        }
      ],
      "name": "deleteStore",
      "outputs": [],
      "payable": false,
      "stateMutability": "nonpayable",
      "type": "function",
      "signature": "0x7cc69325"
    },
    {
      "constant": false,
      "inputs": [
        {
          "name": "storeNumberGiven",
          "type": "uint256"
        },
        {
          "name": "name",
          "type": "string"
        },
        {
          "name": "city",
          "type": "string"
        }
      ],
      "name": "saveStoreEdits",
      "outputs": [],
      "payable": false,
      "stateMutability": "nonpayable",
      "type": "function",
      "signature": "0xbe1e5980"
    },
    {
      "constant": false,
      "inputs": [
        {
          "name": "storeNumberGiven",
          "type": "uint256"
        },
        {
          "name": "name",
          "type": "string"
        },
        {
          "name": "description",
          "type": "string"
        },
        {
          "name": "price",
          "type": "uint256"
        },
        {
          "name": "inventory",
          "type": "uint256"
        }
      ],
      "name": "addProduct",
      "outputs": [],
      "payable": false,
      "stateMutability": "nonpayable",
      "type": "function",
      "signature": "0x01db5b48"
    },
    {
      "constant": false,
      "inputs": [
        {
          "name": "storeNumberGiven",
          "type": "uint256"
        },
        {
          "name": "productNumberGiven",
          "type": "uint256"
        }
      ],
      "name": "deleteProduct",
      "outputs": [],
      "payable": false,
      "stateMutability": "nonpayable",
      "type": "function",
      "signature": "0xa1c48cc4"
    },
    {
      "constant": false,
      "inputs": [
        {
          "name": "storeNumberGiven",
          "type": "uint256"
        },
        {
          "name": "productNumberGiven",
          "type": "uint256"
        },
        {
          "name": "name",
          "type": "string"
        },
        {
          "name": "description",
          "type": "string"
        },
        {
          "name": "price",
          "type": "uint256"
        },
        {
          "name": "inventory",
          "type": "uint256"
        }
      ],
      "name": "saveProductEdits",
      "outputs": [],
      "payable": false,
      "stateMutability": "nonpayable",
      "type": "function",
      "signature": "0x0b158e8c"
    },
    {
      "constant": false,
      "inputs": [
        {
          "name": "storeNumberGiven",
          "type": "uint256"
        },
        {
          "name": "productNumberGiven",
          "type": "uint256"
        }
      ],
      "name": "buyProduct",
      "outputs": [],
      "payable": true,
      "stateMutability": "payable",
      "type": "function",
      "signature": "0x53b62866"
    },
    {
      "constant": false,
      "inputs": [
        {
          "name": "storeNumberGiven",
          "type": "uint256"
        }
      ],
      "name": "withdrawEarnings",
      "outputs": [],
      "payable": false,
      "stateMutability": "nonpayable",
      "type": "function",
      "signature": "0x6e70096e"
    }
  ],
  "bytecode": "0x60806040523480156200001157600080fd5b50336000806101000a81548173ffffffffffffffffffffffffffffffffffffffff021916908373ffffffffffffffffffffffffffffffffffffffff16021790555060006001819055506000600260006101000a81548160ff021916908315150217905550600060048190555060408051908101604052806040805190810160405280600b81526020017f53757065722041646d696e000000000000000000000000000000000000000000815250815260200160016002811115620000d157fe5b815250600360003373ffffffffffffffffffffffffffffffffffffffff1673ffffffffffffffffffffffffffffffffffffffff16815260200190815260200160002060008201518160000190805190602001906200013192919062000165565b5060208201518160010160006101000a81548160ff021916908360028111156200015757fe5b021790555090505062000214565b828054600181600116156101000203166002900490600052602060002090601f016020900481019282601f10620001a857805160ff1916838001178555620001d9565b82800160010185558215620001d9579182015b82811115620001d8578251825591602001919060010190620001bb565b5b509050620001e89190620001ec565b5090565b6200021191905b808211156200020d576000816000905550600101620001f3565b5090565b90565b612f5c80620002246000396000f3fe6080604052600436106100f1576000357c0100000000000000000000000000000000000000000000000000000000900463ffffffff16806301db5b48146100f65780630b158e8c146102735780631cdb717f146103fa5780633542758f146104255780634b7aac941461050d57806353b628661461052457806363a599a41461055c5780636e70096e1461058b5780637cc69325146105c6578063a1c48cc414610601578063a590fbdb14610646578063a87430ba1461079a578063be1e598014610879578063ce606ee0146109e2578063d16856ca14610a39578063e8a59cd814610b21578063ed48719c14610c9e575b600080fd5b34801561010257600080fd5b50610271600480360360a081101561011957600080fd5b81019080803590602001909291908035906020019064010000000081111561014057600080fd5b82018360208201111561015257600080fd5b8035906020019184600183028401116401000000008311171561017457600080fd5b91908080601f016020809104026020016040519081016040528093929190818152602001838380828437600081840152601f19601f820116905080830192505050505050509192919290803590602001906401000000008111156101d757600080fd5b8201836020820111156101e957600080fd5b8035906020019184600183028401116401000000008311171561020b57600080fd5b91908080601f016020809104026020016040519081016040528093929190818152602001838380828437600081840152601f19601f8201169050808301925050505050505091929192908035906020019092919080359060200190929190505050610dfd565b005b34801561027f57600080fd5b506103f8600480360360c081101561029657600080fd5b810190808035906020019092919080359060200190929190803590602001906401000000008111156102c757600080fd5b8201836020820111156102d957600080fd5b803590602001918460018302840111640100000000831117156102fb57600080fd5b91908080601f016020809104026020016040519081016040528093929190818152602001838380828437600081840152601f19601f8201169050808301925050505050505091929192908035906020019064010000000081111561035e57600080fd5b82018360208201111561037057600080fd5b8035906020019184600183028401116401000000008311171561039257600080fd5b91908080601f016020809104026020016040519081016040528093929190818152602001838380828437600081840152601f19601f82011690508083019250505050505050919291929080359060200190929190803590602001909291905050506110af565b005b34801561040657600080fd5b5061040f6112f0565b6040518082815260200191505060405180910390f35b34801561043157600080fd5b5061050b6004803603604081101561044857600080fd5b81019080803573ffffffffffffffffffffffffffffffffffffffff1690602001909291908035906020019064010000000081111561048557600080fd5b82018360208201111561049757600080fd5b803590602001918460018302840111640100000000831117156104b957600080fd5b91908080601f016020809104026020016040519081016040528093929190818152602001838380828437600081840152601f19601f8201169050808301925050505050505091929192905050506112f6565b005b34801561051957600080fd5b5061052261150c565b005b61055a6004803603604081101561053a57600080fd5b8101908080359060200190929190803590602001909291905050506115c1565b005b34801561056857600080fd5b506105716119ec565b604051808215151515815260200191505060405180910390f35b34801561059757600080fd5b506105c4600480360360208110156105ae57600080fd5b81019080803590602001909291905050506119ff565b005b3480156105d257600080fd5b506105ff600480360360208110156105e957600080fd5b8101908080359060200190929190505050611d54565b005b34801561060d57600080fd5b506106446004803603604081101561062457600080fd5b810190808035906020019092919080359060200190929190505050612074565b005b34801561065257600080fd5b506106896004803603604081101561066957600080fd5b81019080803590602001909291908035906020019092919050505061229d565b6040518087815260200180602001806020018681526020018581526020018460018111156106b357fe5b60ff168152602001838103835288818151815260200191508051906020019080838360005b838110156106f35780820151818401526020810190506106d8565b50505050905090810190601f1680156107205780820380516001836020036101000a031916815260200191505b50838103825287818151815260200191508051906020019080838360005b8381101561075957808201518184015260208101905061073e565b50505050905090810190601f1680156107865780820380516001836020036101000a031916815260200191505b509850505050505050505060405180910390f35b3480156107a657600080fd5b506107e9600480360360208110156107bd57600080fd5b81019080803573ffffffffffffffffffffffffffffffffffffffff169060200190929190505050612423565b60405180806020018360028111156107fd57fe5b60ff168152602001828103825284818151815260200191508051906020019080838360005b8381101561083d578082015181840152602081019050610822565b50505050905090810190601f16801561086a5780820380516001836020036101000a031916815260200191505b50935050505060405180910390f35b34801561088557600080fd5b506109e06004803603606081101561089c57600080fd5b8101908080359060200190929190803590602001906401000000008111156108c357600080fd5b8201836020820111156108d557600080fd5b803590602001918460018302840111640100000000831117156108f757600080fd5b91908080601f016020809104026020016040519081016040528093929190818152602001838380828437600081840152601f19601f8201169050808301925050505050505091929192908035906020019064010000000081111561095a57600080fd5b82018360208201111561096c57600080fd5b8035906020019184600183028401116401000000008311171561098e57600080fd5b91908080601f016020809104026020016040519081016040528093929190818152602001838380828437600081840152601f19601f8201169050808301925050505050505091929192905050506124ec565b005b3480156109ee57600080fd5b506109f76126b0565b604051808273ffffffffffffffffffffffffffffffffffffffff1673ffffffffffffffffffffffffffffffffffffffff16815260200191505060405180910390f35b348015610a4557600080fd5b50610b1f60048036036040811015610a5c57600080fd5b81019080803573ffffffffffffffffffffffffffffffffffffffff16906020019092919080359060200190640100000000811115610a9957600080fd5b820183602082011115610aab57600080fd5b80359060200191846001830284011164010000000083111715610acd57600080fd5b91908080601f016020809104026020016040519081016040528093929190818152602001838380828437600081840152601f19601f8201169050808301925050505050505091929192905050506126d5565b005b348015610b2d57600080fd5b50610b5a60048036036020811015610b4457600080fd5b81019080803590602001909291905050506128ec565b604051808881526020018773ffffffffffffffffffffffffffffffffffffffff1673ffffffffffffffffffffffffffffffffffffffff1681526020018060200180602001868152602001858152602001846001811115610bb657fe5b60ff168152602001838103835288818151815260200191508051906020019080838360005b83811015610bf6578082015181840152602081019050610bdb565b50505050905090810190601f168015610c235780820380516001836020036101000a031916815260200191505b50838103825287818151815260200191508051906020019080838360005b83811015610c5c578082015181840152602081019050610c41565b50505050905090810190601f168015610c895780820380516001836020036101000a031916815260200191505b50995050505050505050505060405180910390f35b348015610caa57600080fd5b50610dfb60048036036040811015610cc157600080fd5b8101908080359060200190640100000000811115610cde57600080fd5b820183602082011115610cf057600080fd5b80359060200191846001830284011164010000000083111715610d1257600080fd5b91908080601f016020809104026020016040519081016040528093929190818152602001838380828437600081840152601f19601f82011690508083019250505050505050919291929080359060200190640100000000811115610d7557600080fd5b820183602082011115610d8757600080fd5b80359060200191846001830284011164010000000083111715610da957600080fd5b91908080601f016020809104026020016040519081016040528093929190818152602001838380828437600081840152601f19601f820116905080830192505050505050509192919290505050612a8b565b005b60001515600260009054906101000a900460ff161515141515610e88576040517f08c379a000000000000000000000000000000000000000000000000000000000815260040180806020018281038252601d8152602001807f436f6e747261637420697320696e20656d657267656e6379206d6f646500000081525060200191505060405180910390fd5b33600280811115610e9557fe5b600360008373ffffffffffffffffffffffffffffffffffffffff1673ffffffffffffffffffffffffffffffffffffffff16815260200190815260200160002060010160009054906101000a900460ff166002811115610ef057fe5b141515610f65576040517f08c379a00000000000000000000000000000000000000000000000000000000081526004018080602001828103825260158152602001807f55736572206d75737420626520616e206f776e6572000000000000000000000081525060200191505060405180910390fd5b6001600560008881526020019081526020016000206005015401600560008881526020019081526020016000206005018190555060c0604051908101604052806005600089815260200190815260200160002060050154815260200186815260200185815260200184815260200183815260200160006001811115610fe657fe5b815250600660008881526020019081526020016000206000600560008a8152602001908152602001600020600501548152602001908152602001600020600082015181600001556020820151816001019080519060200190611049929190612d81565b506040820151816002019080519060200190611066929190612d81565b50606082015181600301556080820151816004015560a08201518160050160006101000a81548160ff0219169083600181111561109f57fe5b0217905550905050505050505050565b60001515600260009054906101000a900460ff16151514151561113a576040517f08c379a000000000000000000000000000000000000000000000000000000000815260040180806020018281038252601d8152602001807f436f6e747261637420697320696e20656d657267656e6379206d6f646500000081525060200191505060405180910390fd5b3360028081111561114757fe5b600360008373ffffffffffffffffffffffffffffffffffffffff1673ffffffffffffffffffffffffffffffffffffffff16815260200190815260200160002060010160009054906101000a900460ff1660028111156111a257fe5b141515611217576040517f08c379a00000000000000000000000000000000000000000000000000000000081526004018080602001828103825260158152602001807f55736572206d75737420626520616e206f776e6572000000000000000000000081525060200191505060405180910390fd5b846006600089815260200190815260200160002060008881526020019081526020016000206001019080519060200190611252929190612e01565b5083600660008981526020019081526020016000206000888152602001908152602001600020600201908051906020019061128e929190612e01565b508260066000898152602001908152602001600020600088815260200190815260200160002060030181905550816006600089815260200190815260200160002060008881526020019081526020016000206004018190555050505050505050565b60045481565b60001515600260009054906101000a900460ff161515141515611381576040517f08c379a000000000000000000000000000000000000000000000000000000000815260040180806020018281038252601d8152602001807f436f6e747261637420697320696e20656d657267656e6379206d6f646500000081525060200191505060405180910390fd5b336001600281111561138f57fe5b600360008373ffffffffffffffffffffffffffffffffffffffff1673ffffffffffffffffffffffffffffffffffffffff16815260200190815260200160002060010160009054906101000a900460ff1660028111156113ea57fe5b14151561145f576040517f08c379a00000000000000000000000000000000000000000000000000000000081526004018080602001828103825260158152602001807f55736572206d75737420626520616e2061646d696e000000000000000000000081525060200191505060405180910390fd5b604080519081016040528083815260200160028081111561147c57fe5b815250600360008573ffffffffffffffffffffffffffffffffffffffff1673ffffffffffffffffffffffffffffffffffffffff16815260200190815260200160002060008201518160000190805190602001906114da929190612d81565b5060208201518160010160006101000a81548160ff021916908360028111156114ff57fe5b0217905550905050505050565b6000809054906101000a900473ffffffffffffffffffffffffffffffffffffffff1673ffffffffffffffffffffffffffffffffffffffff163373ffffffffffffffffffffffffffffffffffffffff1614151561156757600080fd5b60001515600260009054906101000a900460ff16151514156115a3576001600260006101000a81548160ff0219169083151502179055506115bf565b6000600260006101000a81548160ff0219169083151502179055505b565b60001515600260009054906101000a900460ff16151514151561164c576040517f08c379a000000000000000000000000000000000000000000000000000000000815260040180806020018281038252601d8152602001807f436f6e747261637420697320696e20656d657267656e6379206d6f646500000081525060200191505060405180910390fd5b611654612e81565b60066000848152602001908152602001600020600083815260200190815260200160002060c0604051908101604052908160008201548152602001600182018054600181600116156101000203166002900480601f0160208091040260200160405190810160405280929190818152602001828054600181600116156101000203166002900480156117275780601f106116fc57610100808354040283529160200191611727565b820191906000526020600020905b81548152906001019060200180831161170a57829003601f168201915b50505050508152602001600282018054600181600116156101000203166002900480601f0160208091040260200160405190810160405280929190818152602001828054600181600116156101000203166002900480156117c95780601f1061179e576101008083540402835291602001916117c9565b820191906000526020600020905b8154815290600101906020018083116117ac57829003601f168201915b5050505050815260200160038201548152602001600482015481526020016005820160009054906101000a900460ff16600181111561180457fe5b600181111561180f57fe5b81525050905060018160800151101515156118b8576040517f08c379a00000000000000000000000000000000000000000000000000000000081526004018080602001828103825260298152602001807f53746f7265206d757374206861766520696e76656e746f7279206f662074686981526020017f732070726f64756374000000000000000000000000000000000000000000000081525060400191505060405180910390fd5b6118c781608001516001612d3e565b60066000858152602001908152602001600020600084815260200190815260200160002060040181905550348160600151141515611993576040517f08c379a000000000000000000000000000000000000000000000000000000000815260040180806020018281038252602a8152602001807f50726f6475637420707269636520616e642076616c75652073656e74206d757381526020017f7420626520657175616c0000000000000000000000000000000000000000000081525060400191505060405180910390fd5b6119a36001548260600151612d60565b6001819055506119cd60056000858152602001908152602001600020600401548260600151612d60565b6005600085815260200190815260200160002060040181905550505050565b600260009054906101000a900460ff1681565b60001515600260009054906101000a900460ff161515141515611a8a576040517f08c379a000000000000000000000000000000000000000000000000000000000815260040180806020018281038252601d8152602001807f436f6e747261637420697320696e20656d657267656e6379206d6f646500000081525060200191505060405180910390fd5b33600280811115611a9757fe5b600360008373ffffffffffffffffffffffffffffffffffffffff1673ffffffffffffffffffffffffffffffffffffffff16815260200190815260200160002060010160009054906101000a900460ff166002811115611af257fe5b141515611b67576040517f08c379a00000000000000000000000000000000000000000000000000000000081526004018080602001828103825260158152602001807f55736572206d75737420626520616e206f776e6572000000000000000000000081525060200191505060405180910390fd5b600560008381526020019081526020016000206004015460015410151515611c1d576040517f08c379a000000000000000000000000000000000000000000000000000000000815260040180806020018281038252603c8152602001807f436f6e7472616374206d757374206861766520656e6f7567682062616c616e6381526020017f6520746f2070726f636573732074686973207769746864726177616c0000000081525060400191505060405180910390fd5b60006005600084815260200190815260200160002060040154111515611cd1576040517f08c379a00000000000000000000000000000000000000000000000000000000081526004018080602001828103825260218152602001807f53746f7265206d757374206861766520706f736974697665206561726e696e6781526020017f730000000000000000000000000000000000000000000000000000000000000081525060400191505060405180910390fd5b600060056000848152602001908152602001600020600401549050600060056000858152602001908152602001600020600401819055503373ffffffffffffffffffffffffffffffffffffffff166108fc829081150290604051600060405180830381858888f19350505050158015611d4e573d6000803e3d6000fd5b50505050565b60001515600260009054906101000a900460ff161515141515611ddf576040517f08c379a000000000000000000000000000000000000000000000000000000000815260040180806020018281038252601d8152602001807f436f6e747261637420697320696e20656d657267656e6379206d6f646500000081525060200191505060405180910390fd5b33600280811115611dec57fe5b600360008373ffffffffffffffffffffffffffffffffffffffff1673ffffffffffffffffffffffffffffffffffffffff16815260200190815260200160002060010160009054906101000a900460ff166002811115611e4757fe5b141515611ebc576040517f08c379a00000000000000000000000000000000000000000000000000000000081526004018080602001828103825260158152602001807f55736572206d75737420626520616e206f776e6572000000000000000000000081525060200191505060405180910390fd5b600560008381526020019081526020016000206000808201600090556001820160006101000a81549073ffffffffffffffffffffffffffffffffffffffff0219169055600282016000611f0f9190612ec3565b600382016000611f1f9190612ec3565b600482016000905560058201600090556006820160006101000a81549060ff0219169055505060016005600084815260200190815260200160002060060160006101000a81548160ff02191690836001811115611f7857fe5b02179055506000600190505b60016005600085815260200190815260200160002060050154018111151561206f57600660008481526020019081526020016000206000828152602001908152602001600020600080820160009055600182016000611fe39190612ec3565b600282016000611ff39190612ec3565b600382016000905560048201600090556005820160006101000a81549060ff02191690555050600160066000858152602001908152602001600020600083815260200190815260200160002060050160006101000a81548160ff0219169083600181111561205d57fe5b02179055508080600101915050611f84565b505050565b60001515600260009054906101000a900460ff1615151415156120ff576040517f08c379a000000000000000000000000000000000000000000000000000000000815260040180806020018281038252601d8152602001807f436f6e747261637420697320696e20656d657267656e6379206d6f646500000081525060200191505060405180910390fd5b3360028081111561210c57fe5b600360008373ffffffffffffffffffffffffffffffffffffffff1673ffffffffffffffffffffffffffffffffffffffff16815260200190815260200160002060010160009054906101000a900460ff16600281111561216757fe5b1415156121dc576040517f08c379a00000000000000000000000000000000000000000000000000000000081526004018080602001828103825260158152602001807f55736572206d75737420626520616e206f776e6572000000000000000000000081525060200191505060405180910390fd5b6006600084815260200190815260200160002060008381526020019081526020016000206000808201600090556001820160006122199190612ec3565b6002820160006122299190612ec3565b600382016000905560048201600090556005820160006101000a81549060ff02191690555050600160066000858152602001908152602001600020600084815260200190815260200160002060050160006101000a81548160ff0219169083600181111561229357fe5b0217905550505050565b600660205281600052604060002060205280600052604060002060009150915050806000015490806001018054600181600116156101000203166002900480601f01602080910402602001604051908101604052809291908181526020018280546001816001161561010002031660029004801561235c5780601f106123315761010080835404028352916020019161235c565b820191906000526020600020905b81548152906001019060200180831161233f57829003601f168201915b505050505090806002018054600181600116156101000203166002900480601f0160208091040260200160405190810160405280929190818152602001828054600181600116156101000203166002900480156123fa5780601f106123cf576101008083540402835291602001916123fa565b820191906000526020600020905b8154815290600101906020018083116123dd57829003601f168201915b5050505050908060030154908060040154908060050160009054906101000a900460ff16905086565b6003602052806000526040600020600091509050806000018054600181600116156101000203166002900480601f0160208091040260200160405190810160405280929190818152602001828054600181600116156101000203166002900480156124cf5780601f106124a4576101008083540402835291602001916124cf565b820191906000526020600020905b8154815290600101906020018083116124b257829003601f168201915b5050505050908060010160009054906101000a900460ff16905082565b60001515600260009054906101000a900460ff161515141515612577576040517f08c379a000000000000000000000000000000000000000000000000000000000815260040180806020018281038252601d8152602001807f436f6e747261637420697320696e20656d657267656e6379206d6f646500000081525060200191505060405180910390fd5b3360028081111561258457fe5b600360008373ffffffffffffffffffffffffffffffffffffffff1673ffffffffffffffffffffffffffffffffffffffff16815260200190815260200160002060010160009054906101000a900460ff1660028111156125df57fe5b141515612654576040517f08c379a00000000000000000000000000000000000000000000000000000000081526004018080602001828103825260158152602001807f55736572206d75737420626520616e206f776e6572000000000000000000000081525060200191505060405180910390fd5b8260056000868152602001908152602001600020600201908051906020019061267e929190612e01565b50816005600086815260200190815260200160002060030190805190602001906126a9929190612e01565b5050505050565b6000809054906101000a900473ffffffffffffffffffffffffffffffffffffffff1681565b60001515600260009054906101000a900460ff161515141515612760576040517f08c379a000000000000000000000000000000000000000000000000000000000815260040180806020018281038252601d8152602001807f436f6e747261637420697320696e20656d657267656e6379206d6f646500000081525060200191505060405180910390fd5b336001600281111561276e57fe5b600360008373ffffffffffffffffffffffffffffffffffffffff1673ffffffffffffffffffffffffffffffffffffffff16815260200190815260200160002060010160009054906101000a900460ff1660028111156127c957fe5b14151561283e576040517f08c379a00000000000000000000000000000000000000000000000000000000081526004018080602001828103825260158152602001807f55736572206d75737420626520616e2061646d696e000000000000000000000081525060200191505060405180910390fd5b60408051908101604052808381526020016001600281111561285c57fe5b815250600360008573ffffffffffffffffffffffffffffffffffffffff1673ffffffffffffffffffffffffffffffffffffffff16815260200190815260200160002060008201518160000190805190602001906128ba929190612d81565b5060208201518160010160006101000a81548160ff021916908360028111156128df57fe5b0217905550905050505050565b60056020528060005260406000206000915090508060000154908060010160009054906101000a900473ffffffffffffffffffffffffffffffffffffffff1690806002018054600181600116156101000203166002900480601f0160208091040260200160405190810160405280929190818152602001828054600181600116156101000203166002900480156129c45780601f10612999576101008083540402835291602001916129c4565b820191906000526020600020905b8154815290600101906020018083116129a757829003601f168201915b505050505090806003018054600181600116156101000203166002900480601f016020809104026020016040519081016040528092919081815260200182805460018160011615610100020316600290048015612a625780601f10612a3757610100808354040283529160200191612a62565b820191906000526020600020905b815481529060010190602001808311612a4557829003601f168201915b5050505050908060040154908060050154908060060160009054906101000a900460ff16905087565b60001515600260009054906101000a900460ff161515141515612b16576040517f08c379a000000000000000000000000000000000000000000000000000000000815260040180806020018281038252601d8152602001807f436f6e747261637420697320696e20656d657267656e6379206d6f646500000081525060200191505060405180910390fd5b33600280811115612b2357fe5b600360008373ffffffffffffffffffffffffffffffffffffffff1673ffffffffffffffffffffffffffffffffffffffff16815260200190815260200160002060010160009054906101000a900460ff166002811115612b7e57fe5b141515612bf3576040517f08c379a00000000000000000000000000000000000000000000000000000000081526004018080602001828103825260158152602001807f55736572206d75737420626520616e206f776e6572000000000000000000000081525060200191505060405180910390fd5b60016004540160048190555060e06040519081016040528060045481526020013373ffffffffffffffffffffffffffffffffffffffff168152602001848152602001838152602001600081526020016000815260200160006001811115612c5657fe5b8152506005600060045481526020019081526020016000206000820151816000015560208201518160010160006101000a81548173ffffffffffffffffffffffffffffffffffffffff021916908373ffffffffffffffffffffffffffffffffffffffff1602179055506040820151816002019080519060200190612cdb929190612d81565b506060820151816003019080519060200190612cf8929190612d81565b506080820151816004015560a0820151816005015560c08201518160060160006101000a81548160ff02191690836001811115612d3157fe5b0217905550905050505050565b6000828211151515612d4f57600080fd5b600082840390508091505092915050565b6000808284019050838110151515612d7757600080fd5b8091505092915050565b828054600181600116156101000203166002900490600052602060002090601f016020900481019282601f10612dc257805160ff1916838001178555612df0565b82800160010185558215612df0579182015b82811115612def578251825591602001919060010190612dd4565b5b509050612dfd9190612f0b565b5090565b828054600181600116156101000203166002900490600052602060002090601f016020900481019282601f10612e4257805160ff1916838001178555612e70565b82800160010185558215612e70579182015b82811115612e6f578251825591602001919060010190612e54565b5b509050612e7d9190612f0b565b5090565b60c060405190810160405280600081526020016060815260200160608152602001600081526020016000815260200160006001811115612ebd57fe5b81525090565b50805460018160011615610100020316600290046000825580601f10612ee95750612f08565b601f016020900490600052602060002090810190612f079190612f0b565b5b50565b612f2d91905b80821115612f29576000816000905550600101612f11565b5090565b9056fea165627a7a72305820a09ed6a427c68bbf9d13430efc602fb4218d043474faef9445185835d776e5e80029",
  "source": "pragma solidity ^0.5.0;\n\nimport \"../libraries/SafeMath.sol\";\n\ncontract Shop {\n  using SafeMath for uint256;\n\n  enum UserType { Guest, Admin, Owner }\n  enum State { Active, Deleted }\n\n  struct User {\n    string name;\n    UserType userType;\n  }\n\n  struct Store {\n    uint256 storeNumber;\n    address ownerAddress;\n    string name;\n    string city;\n    uint256 earnings;\n    uint256 productNumber;\n    State state;\n  }\n\n  struct Product {\n    uint256 productNumber;\n    string name;\n    string description;\n    uint256 price;\n    uint256 inventory;\n    State state;\n  }\n\n  // Contract owner state\n  address public contractOwner;\n  uint256 private contractBalance;\n  bool public emergencyStop;\n\n  // User state\n  mapping (address => User) public users;\n\n  // Store state\n  uint256 public storeNumber;\n  mapping (uint256 => Store) public stores;\n\n  // Product state\n  mapping (uint256 => mapping (uint256 => Product)) public products;\n\n  modifier verifyAdmin(address userAddress) {\n    require(users[userAddress].userType == UserType.Admin, \"User must be an admin\");\n    _;\n  }\n\n  modifier verifyOwner(address ownerAddress) {\n    require(users[ownerAddress].userType == UserType.Owner, \"User must be an owner\");\n    _;\n  }\n\n  modifier ensureNoEmergency() {\n    require(emergencyStop == false, \"Contract is in emergency mode\");\n    _;\n  }\n\n  constructor() public {\n    // Initializing state\n    contractOwner = msg.sender;\n    contractBalance = 0;\n    emergencyStop = false;\n    storeNumber = 0;\n\n    // Add contract owner as an admin\n    users[msg.sender] = User({\n      name: \"Super Admin\",\n      userType: UserType.Admin\n    });\n  }\n\n  /*\n  @dev Toggles the emergency stop boolean\n  */\n  function toggleEmergencyStop() public {\n    require(msg.sender == contractOwner);\n\n    if (emergencyStop == false) {\n      emergencyStop = true;\n    } else {\n      emergencyStop = false;\n    }\n  }\n\n  /*\n  @dev Adds an admin tied to a user's address\n  @param userAddress Address of user to add as admin\n  @param name Name of admin user\n  */\n  function addAdmin(address userAddress, string memory name) public\n  ensureNoEmergency()\n  verifyAdmin(msg.sender) {\n    users[userAddress] = User({\n      name: name,\n      userType: UserType.Admin\n    });\n  }\n\n  /*\n  @dev Adds an owner tied to a user's address\n  @param userAddress Address of user to add as owner\n  @param name Name of owner user\n  */\n  function addOwner(address userAddress, string memory name) public\n  ensureNoEmergency()\n  verifyAdmin(msg.sender) {\n    users[userAddress] = User({\n      name: name,\n      userType: UserType.Owner\n    });\n  }\n\n  /*\n  @dev Adds a store tied to a specific owner\n  @param name Name of the store\n  @param city City of the store\n  */\n  function addStore(string memory name, string memory city) public\n  ensureNoEmergency()\n  verifyOwner(msg.sender) {\n    storeNumber = storeNumber + 1;\n\n    stores[storeNumber] = Store({\n      storeNumber: storeNumber,\n      ownerAddress: msg.sender,\n      name: name,\n      city: city,\n      earnings: 0,\n      productNumber: 0,\n      state: State.Active\n    });\n  }\n\n  /*\n  @dev Deletes a store by its number assigned upon creation\n  @param storeNumberGiven Store number provided\n  */\n  function deleteStore(uint256 storeNumberGiven) public\n  ensureNoEmergency()\n  verifyOwner(msg.sender) {\n    delete stores[storeNumberGiven];\n\n    stores[storeNumberGiven].state = State.Deleted;\n\n    for (uint256 i = 1; i <= stores[storeNumberGiven].productNumber + 1; i++) {\n      delete products[storeNumberGiven][i];\n\n      products[storeNumberGiven][i].state = State.Deleted;\n    }\n  }\n\n  /*\n  @dev Saves the edits to a specific store using its store number\n  @param storeNumberGiven Number of the store that was assigned on creation\n  @param name Name of the store to edit\n  @param city City of the store to edit\n  */\n  function saveStoreEdits(uint256 storeNumberGiven, string memory name, string memory city) public\n  ensureNoEmergency()\n  verifyOwner(msg.sender) {\n    stores[storeNumberGiven].name = name;\n    stores[storeNumberGiven].city = city;\n  }\n\n  /*\n  @dev Adds a product to an existing store\n  @param storeNumberGiven Number of store to add a product to\n  @param name Name of the new product\n  @param description Description of the new product\n  @param price Price of the new product in Wei\n  @param inventory Inventory number of the product\n  */\n  function addProduct(uint256 storeNumberGiven, string memory name, string memory description, uint256 price, uint256 inventory) public\n  ensureNoEmergency()\n  verifyOwner(msg.sender) {\n    stores[storeNumberGiven].productNumber = stores[storeNumberGiven].productNumber + 1;\n\n    products[storeNumberGiven][stores[storeNumberGiven].productNumber] = Product({\n      productNumber: stores[storeNumberGiven].productNumber,\n      name: name,\n      description: description,\n      price: price,\n      inventory: inventory,\n      state: State.Active\n    });\n  }\n\n  /*\n  @dev Deletes a specific product via its associated store number and product number assined\n  @param storeNumberGiven Number of store that the product is tied to\n  @param productNumberGiven Product number assigned during creation\n  */\n  function deleteProduct(uint256 storeNumberGiven, uint256 productNumberGiven) public\n  ensureNoEmergency()\n  verifyOwner(msg.sender) {\n    delete products[storeNumberGiven][productNumberGiven];\n\n    products[storeNumberGiven][productNumberGiven].state = State.Deleted;\n  }\n\n  /*\n  @dev Saves edits to a specific product\n  @param storeNumberGiven Store number that the product is tied to\n  @param productNumberGiven Product number assigned to specific product\n  @param name Edited name of product\n  @param description Edited description of product\n  @param price Edited price of the product\n  @param inventory Edited inventory of product\n  */\n  function saveProductEdits(uint256 storeNumberGiven, uint256 productNumberGiven, string memory name, string memory description, uint256 price, uint256 inventory) public\n  ensureNoEmergency()\n  verifyOwner(msg.sender) {\n    products[storeNumberGiven][productNumberGiven].name = name;\n    products[storeNumberGiven][productNumberGiven].description = description;\n    products[storeNumberGiven][productNumberGiven].price = price;\n    products[storeNumberGiven][productNumberGiven].inventory = inventory;\n  }\n\n  /*\n  @dev Allows a guest user to buy a specific product with Ether\n  @param storeNumberGiven Store number that product is associated with\n  @param productNumberGiven Specific number of product to be purchased\n  */\n  function buyProduct(uint256 storeNumberGiven, uint256 productNumberGiven) public payable\n  ensureNoEmergency() {\n    Product memory product = products[storeNumberGiven][productNumberGiven];\n\n    require(product.inventory >= 1, \"Store must have inventory of this product\");\n\n    products[storeNumberGiven][productNumberGiven].inventory = SafeMath.sub(product.inventory, 1);\n\n    require(product.price == msg.value, \"Product price and value sent must be equal\");\n\n    contractBalance = SafeMath.add(contractBalance, product.price);\n\n    stores[storeNumberGiven].earnings = SafeMath.add(stores[storeNumberGiven].earnings, product.price);\n  }\n\n  /*\n  @dev Allows owner user to withdraw earnings for a specific store\n  @param storeNumberGiven Store number for store to withdraw funds from\n  */\n  function withdrawEarnings(uint256 storeNumberGiven) public\n  ensureNoEmergency()\n  verifyOwner(msg.sender) {\n    require(contractBalance >= stores[storeNumberGiven].earnings, \"Contract must have enough balance to process this withdrawal\");\n    require(stores[storeNumberGiven].earnings > 0, \"Store must have positive earnings\");\n    \n    uint256 amountToWithdraw = stores[storeNumberGiven].earnings;\n\n    stores[storeNumberGiven].earnings = 0;\n\n    msg.sender.transfer(amountToWithdraw);\n  }\n}\n",
  "sourcePath": "/Users/asood/Desktop/consensys/chain-shop-redux/contracts/Shop.sol",
  "compiler": {
    "name": "solc",
    "version": "0.5.0+commit.1d4f565a.Emscripten.clang"
  },
  "schemaVersion": "3.0.1",
  "updatedAt": "2019-01-18T06:25:10.422Z",
  "devdoc": {
    "methods": {}
  },
  "userdoc": {
    "methods": {}
  }
}